:1000000032C400000C94BA1D0C94321E54C400007B
:1000100052C4000050C400004EC400004CC4000094
:100020004AC4000048C4000046C4000044C40000A4
:1000300042C4000040C400003EC400003CC40000B4
:100040000C94AD2638C400000C94BA0C0C94E00C4F
:1000500032C4000030C400002EC400002CC40000D4
:100060002AC4000028C40000084AD73B3BCE016EDA
:1000700084BCBFFDC12F3D6C74319ABD56833DDAFF
:100080003D00C77F11BED9E4BB4C3E916BAAAABE0E
:10009000000000803F05A84CCDB2D44EB93836A937
:1000A000020C50B9918688083CA6AAAA2ABE000074
:1000B00000803F0664EC1B3C04BC163E3BE5B93CAB
:1000C000C93C37C29E5A3D660498083EEA69AAAA0E
:1000D0003E000000803F0302010053637265656EBD
:1000E000203000100E0F1123317A7A7A7A7A0A00C2
:1000F00001000A006400E80320284E5453432900FD
:10010000202850414C290025372E32660025362EF6
:100110003166009125372E326600A125372E3266D2
:100120000007010B681A05000D018F689905000D85
:100130000114731205000D011D730A05000D011253
:10014000680E0500130190760205001A01A076FEE4
:1001500004000D01BD610605000D015777FA04008A
:100160000D0101669505004E6F20696E7075742053
:100170006461746121202575FF00B8B900253469D8
:100180000507002534690506006F7665726C6F619E
:10019000640066726F7A656E0053747265616D00FB
:1001A0002534690500FF20CECECECE60CECECECE99
:1001B00000FF20202024CB7C40CB24008280818043
:1001C000818084808180818083808180818085801E
:1001D0008180818020C8C8C8C87EC8C8C8C820FF20
:1001E0000020202024CBB8B9CB24202020FF0020E1
:1001F00058650025322E3066002520342E306600EA
:100200002520342E3166002520342E3266005225FA
:10021000332E306605005025332E30660500482504
:10022000332E306605004225352E31660500452502
:10023000352E3166004525342E30666D0073452518
:10024000352E3166000E026E6993050016026E6946
:100250009105001E026E698F0500260254698D0506
:10026000002E024168890500350258697F05003D6E
:100270000241738505002090910025352E316600DE
:10028000432564253569FF002569002E2534640067
:100290001F1C1F1E1F1E1F1F1E1F1E1F2530326901
:1002A000FF003A253032693A00202078202079205A
:1002B000207AFF0020B3FF20B3FF20C5FF20B3FF4B
:1002C00020B300B2FFB2FFC6FFB2FFB200B0B1B4BC
:1002D000B5B6B77B7D42616420436F6E6669673A4D
:1002E000202564206D79203739004D696E696D4F86
:1002F00053442D4578747261204C544D20322E3475
:10030000FF756E692072393336204D4DFF0015BAE6
:10031000180001160800020F080003CB14BC8497D4
:100320001426052A080007C10E00344A0C0335467E
:100330000C0418E308000611140008690E0009AA4D
:10034000180025AA11008BB5100B0A760800195D5C
:100350000C000DAE135C1130131116CC1012121BD1
:100360001114170E111313440902141D087F0FF006
:1003700014BD2EC909571B23151D9CC00F151DA6A2
:1003800011000E6015091EC7150021A1090020A249
:100390000C0022D0108F24DB121F2BC3091F2C89C5
:1003A0000F002D620F002F450F00A7850D00A882BA
:1003B0000D00A97F0D00AA7C0D001FC50B0026684B
:1003C0000B003083070031BC0800334E0900234680
:1003D0000E0032DD0D009ADB110000000000100459
:1003E0000C0000F20305640BD00609880D00000024
:1003F0000000080568000000EE0466440425FB04C4
:1004000066480425D204664C0425E00466500425A1
:10041000BB0500000000AB05421B04009C054254D4
:1004200004008E05621A04107C05621904106B0525
:10043000622104105E05622204104E0500000000D7
:1004400040056259041137056218041227055A56EF
:10045000041319057A550414880483047E040000EB
:10046000FF000100040000000300E1FF1F00F1FF96
:100470000F00FCFF0400C0E0401F9CFF6400252E1D
:10048000336600252E30660025332E316676003423
:1004900020285253534929204B003320284375729A
:1004A00072656E7429204B00322028563229204B69
:1004B00000202020202020204100312028563129F2
:1004C000204B0020202050696E2053656E736F72A0
:1004D0007300526F6C6C2020696E204E54534300A1
:1004E000506974636820696E204E54534300526F04
:1004F0006C6C2020696E2050414C00506974636818
:1005000020696E2050414C002020486F72697A6F3C
:100510006E20616E676C6573005665727469636105
:100520006C206F66667300486F72697A6F6E7461D3
:100530006C206F66667300436F6E74726173740033
:1005400053637265656E7320436F756E740020206F
:1005500053637265656E20706172616D73005253F2
:100560005349207761726E696E670042617474202E
:10057000636861726765207761726E004F7665729D
:100580007370656564207761726E696E670053747D
:10059000616C6C207761726E696E67004261747481
:1005A0002032207761726E696E67004261747465F3
:1005B0007279207761726E696E67002020204F5338
:1005C00044207365747570002E2530326400432515
:1005D0006920006D5F256400E605E005F305ED0583
:1005E00025392E3566002531302E3666002530350A
:1005F0006C64002530366C640074066B066006532C
:100600000648063B062F06240618060D0646656EAC
:10061000636520466172210046656E636520486906
:100620006768210046656E6365204C6F7721004244
:100630006174742042206C6F7721004869676820DC
:100640005653706565642100204C6F772052737398
:1006500069210042617474657279204C6F772100C2
:100660004F76657253706565642100202053746174
:100670006C6C21004E6F2047505320666978210032
:1006800025342E30660025342E31660025342E3276
:10069000660025352E326600253269002533690053
:1006A0002534690025332E30660052B80E4085EBA4
:1006B00051401966BB0012800C1CA0141E666666B1
:1006C000400000803F100CBA000A00001BE8031A2B
:1006D000C30400000000BA0473800225B1047384CF
:1006E0000227A80473000025B104730000279A04B0
:1006F00073000026B104730000278F0473000026E6
:10070000B10473000027000000070002010000038D
:100710000406000000000000000001020408102090
:100720004080010204081020010204081020040483
:100730000404040404040202020202020303030389
:100740000303000000002300260029000000000031
:10075000250028002B0000000000240027002A00AC
:100760006E616E00696E660000407A10F35A00A058
:10077000724E18090010A5D4E80000E8764817006A
:1007800000E40B54020000CA9A3B000000E1F505AA
:10079000000080969800000040420F000000A086F4
:1007A00001000000102700000000E8030000000026
:1007B0006400000000000A000000000001000000CA
:1007C00000002C76D888DC674F0823DFC1DFAE59E4
:1007D000E1B1B796E5E3E453C63AE651997696E877
:1007E000E6C28426EB898C9B62ED407C6FFCEFBCFB
:1007F0009C9F40F2BAA56FA5F490055A2AF75C9326
:100800006B6CF9676DC11BFCE0E40D47FEF520E65B
:10081000B500D0ED902E0300943577050080841E3E
:10082000080000204E0A000000C80C333333330F99
:10083000986E12831141EF8D2114893BE65516CF36
:10084000FEE6DB18D1844B381BF77C1D901DA4BB42
:10085000E424203284725E228100C9F124ECA1E5F7
:100860003D27F4069A2111241FBECFEFD8E0DEBF4A
:10087000CDBF11E0A0E0B1E0EEECF4E602C00590DF
:100880000D92A634B107D9F726E0A6E4B1E001C085
:100890001D92A833B207E1F714E0C3E3D4E004C02B
:1008A0002197FE010E944932C133D107C9F70E9446
:1008B000B0290C94002EA4CBFA01AA27283051F1BC
:1008C000203181F1E8946F936E7F6E5F7F4F8F4F81
:1008D0009F4FAF4FB1E03ED0B4E03CD0670F781FE0
:1008E000891F9A1FA11D680F791F8A1F911DA11DC5
:1008F0006A0F711D811D911DA11D20D009F46894FE
:100900003F912AE0269F11243019305D3193DEF6A5
:10091000CF010895462F4770405D4193B3E00FD05B
:10092000C9F7F6CF462F4F70405D4A3318F0495D46
:1009300031FD4052419302D0A9F7EACFB4E0A69529
:100940009795879577956795BA95C9F7009761054B
:10095000710508959B01AC010A2E069457954795A1
:1009600037952795BA95C9F7620F731F841F951F96
:10097000A01D0895283008F027E03327DA01990FE9
:10098000311D87FD916000966105710539F4326073
:100990002E5F3D9330E32A95E1F708959F3F30F0B5
:1009A00080387105610509F03C5F3C5F3D939130F3
:1009B00008F08068911DDF93CF931F930F93FF92F0
:1009C000EF92192F987F9695E92F96959695E90FB6
:1009D000FF27EE53F84F99273327EE24FF24A70172
:1009E000E70105900894079428F4360FE71EF81ED7
:1009F000491F511D660F771F881F991F0694A1F785
:100A00000590079428F4E70EF81E491F561FC11DD4
:100A1000770F881F991F661F0694A1F7059007940A
:100A200028F4F80E491F561FC71FD11D880F991FA4
:100A3000661F771F0694A1F70590079420F4490FCD
:100A4000561FC71FD81F990F661F771F881F069450
:100A5000A9F784911095177041F0D695C7955795D1
:100A60004795F794E7941A95C1F7E8E6F7E068949C
:100A70001590159135916591959105907FE273954B
:100A8000E118F10A430B560BC90BD009C0F7E10C72
:100A9000F11E431F561FC91FD01D7EF4703311F481
:100AA0008A95E6CFE894015030F0080F0AF4002749
:100AB000021708F4202F2395022F7A3328F079E3C8
:100AC0007D932A95E9F710C07D932A9589F60694BF
:100AD00097956795379517951794E118F10A430B89
:100AE000560BC90BD00998F023957E9173957A33F4
:100AF00008F070E37C932013B8F77E9170617D93CA
:100B000030F0839571E37D9370E32A95E1F711242A
:100B1000EF90FF900F911F91CF91DF91992787FD63
:100B20009095089580E0089580E0089580E008950C
:100B300008956FE070E080E090E00C942827682F23
:100B400080E00C941E0F882311F080E401C080E047
:100B500090912803981741F0809328035E98809124
:100B600028038C61ECDF5E9A08955E9880911304EF
:100B700081FD06C08091120483FF1AC081E019C074
:100B800080EA0E94290F80FF06C081E0DCDF8091AF
:100B90001204886007C081FF08C080E0D4DF809124
:100BA0001204877F8093120405C082FDE3CF02C048
:100BB00080E0C9DF5E9A0895CF93DF93E091180437
:100BC000E43008F0E0E0F0E0EA52FF4FC49180E149
:100BD000D1E0D80F6C2F0E941E0F8D2FD032C1F79D
:100BE000DF91CF9108955E98E7DF6091560482E02F
:100BF0000E941E0F6091550483E00E941E0F5E9AB2
:100C000008955E988CEE0E94290F682F6F7E8CE607
:100C10000E941E0F62E18CE00E941E0F809128034B
:100C20008C638DDF0E945F18809128038C6187DFC1
:100C3000DACFCF93DF935E98C0E1DFEFC15049F484
:100C40008091280382607BDF74DFDBDFDF91CF914F
:100C5000089580EA0E94290F877091F784E08150FF
:100C600031F0DEBD0DB407FEFDCF9EB5F8CF61DFDC
:100C7000E5CF61E086E00E94BA2762E082E00E9450
:100C8000BA2761E08AE00E94BA2761E08AE00E9408
:100C9000F627CFDF6ADFB5CF2091290380912A03A1
:100CA00090E03EE1239F800D911D11249093470118
:100CB0008093460108958F7180932A036F7060932B
:100CC000290380912803803411F0673008F4E4CFC1
:100CD000635060932903FBCF90912903690F909192
:100CE0002A03890F9EE1699FB0011124680F711DCD
:100CF0007093470160934601089520914601309119
:100D00004701203E91E0390758F4A9014F5F5F4F3A
:100D10005093470140934601F901E85BFE4F808301
:100D200008958F3F31F4809129038F5F80932903C9
:100D3000B3CFE3CF862FF5DF81E090E00895CF9326
:100D4000C42FCADF8C2FEDDFCF9108955E9860E04D
:100D500085E00E941E0F60E086E00E941E0F61E0A9
:100D600084E00E941E0F5E9AE8E4F1E080E25E9863
:100D700090819EBD0DB407FEFDCF9EB581935E9A16
:100D800093E0E832F90798F35E988FEF8EBD0DB4CB
:100D900007FEFDCF8EB55E9A0895A1E0B0E0E3EDC9
:100DA000F6E00C9422321CBC8F7280658CBD8DB530
:100DB00081608DBD8DB589838EB589832196E2E0F2
:100DC0000C943E3261E08DE00E94BA2761E08BE036
:100DD0000E94BA2760E08CE00E94BA2761E08AE0B6
:100DE0000E94BA2780E0D9CF8BE293E0EBCFE82FC7
:100DF000F0E0EE0FFF1FEB5EFE4F20813181662396
:100E000029F040E253E088E998E004C048EE53E05E
:100E100080ED97E02417350780F0241B350B841BE9
:100E2000950B65E070E00E949431C9010E949431F5
:100E3000862F653018F084E0089580E00895A5E1DC
:100E4000B1E0E3E2F5E080819181883E934028F4AF
:100E50008D919C911197918380833296129685E0B3
:100E6000EB32F80781F7089590E0880F991FDC01B5
:100E7000AB5EBE4FFC01ED5DFA4F8D919C912081E0
:100E80003181821B930B0895E091220535E0E39FA9
:100E9000F0011124E052FC4F9491915020910A01ED
:100EA00060915C0370915D0387FF03C0222339F0DA
:100EB00004C0882311F0291721F0280F03C0292F1F
:100EC00001C020E0FB0136E0239FE00DF11D11245D
:100ED000339645915491452B39F320930A01089597
:100EE000692FE9CE7F936F939F938F9382E393E073
:100EF0009F938F930E949A2A0F900F900F900F90BC
:100F00000F900F900895A0E0B0E0E9E8F7E00C94AE
:100F10001C32D92F00915403109155032091560390
:100F2000309157038091A003882309F473C082EBAA
:100F3000E82E87E0F82EE4E6F0E090E9C92EDD2403
:100F4000D394C70183709927892B81F4C701BF010E
:100F50000E949431892B31F4C701B6010E9494316B
:100F6000892B21F461E08EE691E003C060E08DE61C
:100F700091E0A0E0B0E0081719072A073B0718F432
:100F800040E050E008C0081B190B2A0B3B0B8FEF09
:100F9000E81AF80AD6CFC42FFA01E057FD4FE491C2
:100FA0004130510511F46111EF5F8E2F90E0A0E008
:100FB000B0E0081719072A073B0750F0081B190B68
:100FC0002A0B3B0B4F5F5F4F4C30510521F7CCE0B4
:100FD0008D2F0F5F1F4FD0E086FF0EC0B80189EC48
:100FE00095E080DFBE016F5F7F4F88EC95E07ADF90
:100FF000B7018BE892E00DC0B70180EA96E072DF9E
:10100000BE016F5F7F4F88EC95E06CDFB80188EC24
:1010100095E068DFCDB7DEB7E8E00C943832609138
:10102000EE037091EF0383E891E05CCF6091EC03F5
:101030007091ED038DE791E055CF6091700570E000
:1010400083ED95E04FDF80918C03882311F086E8D3
:1010500068CE08951F93CF93DF93C82F192F8091E7
:101060005505823019F020F0DFE003C0DFE101C058
:10107000DAE2C095CC1FCC27CC1F11F016FF0DC0B3
:101080006091560570E088E996E02CDFCC2341F0B2
:1010900016FF06C08D2F45DE03C08D2F42DEF0CF38
:1010A000DF91CF911F910895CF93DF9388E839DEC8
:1010B000CCE0D1E0888135DE898133DE8EE831DE17
:1010C000DF91CF910895CF93813110F08051FCCF03
:1010D000811101C080E1880FCEEFC80F80E98C0F2D
:1010E00020DE81E98C0F1DDECF910895CF93809192
:1010F0009303882361F0C92F80914E05E4DFC6FF7A
:1011000006C060914E0570E08CE996E0EBDECF9171
:101110000895EF92FF920F931F93CF93DF938C016B
:10112000D62FC42F6CE370E00E9494317C018CE9CF
:1011300096E0D8DECC2341F0B70182EA92E0D2DE1D
:10114000CF776C2F70E010C0DD2331F080919103D8
:10115000882311F080E201C08AE3E3DDC8016CE37B
:1011600070E00E949431BC018CE992E0BBDECDB707
:10117000DEB7E6E00C943A32CF938091A003882347
:10118000D9F0C92F6091500370915103809152039F
:10119000909153032CE330E040E050E00E94BB31DB
:1011A000DA01C901C5FF04C0462F406860E003C0F2
:1011B0006C2F607440E0ADDFCF91089540E060E0B7
:1011C000A8CF85E2AECD1F93CF93DF93382F192F91
:1011D000209174052F55C0917605263008F046C041
:1011E000D0E080E09C2F64E670E00E949431CB0157
:1011F0006138710540F029E820930C01805891096D
:10120000EDE0F1E012C02DE820930D01623171058F
:1012100050F420919103222331F020E220930C011D
:1012200020930D0109C0ECE0F1E06AE170E00E945A
:1012300094312DE8261B208337FF36DF16FF06C0CA
:10124000BE0188E996E04EDEBCDF1AC060919505CC
:101250007091960580919705909198050E944E2F68
:1012600080EA96E03FDE81E05CDD0AC024E6C29FB2
:10127000C00111246FEF70E00E94A831EB01B1CFE3
:10128000DF91CF911F91089560E070E08CE996E0C6
:1012900029DE97CF80E245CD8FEF43CDEF92FF92CD
:1012A0000F931F93CF9306E313E0C0E096FD1CC09D
:1012B00089E0E82EF12CF801819191918F018C54F5
:1012C0009440B7010E94943189EC95E00BDEC13067
:1012D00011F4E2DF01C0DEDFCF5FC43061F70FC081
:1012E000D9DFCF5FC43059F0F801619171918F015E
:1012F00080EA96E0F7DDC13099F7CEDFF2CFCF91EB
:101300001F910F91FF90EF900895CF93C22F7F937D
:101310006F935F934F939F938F9382E393E09F9399
:101320008F930E949A2A8DB79EB708960FB6F894AD
:101330009EBF0FBE8DBFCC2311F08C2FF2DCCF915E
:101340000895CF9380917D0590917E05FC013A969A
:10135000C4913296E491FC013D966591749180E0D0
:1013600090E00E947F2F2AE037ED43E25CE30E9489
:101370009A30AB01BC012C2F8AE792E0C6DFCF91F7
:10138000089520E0C2CF40E050E0BA018CE896E03A
:10139000F8CF40910E0450910F04609110047091A9
:1013A000110484EA96E0EDCFABE0B0E0EAEDF9E0BD
:1013B0000C94123280912803803489F48090480480
:1013C00090904904A0904A04B0904B04C09044040B
:1013D000D0904504E0904604F090470410C08090FF
:1013E000500490905104A0905204B0905304C090C7
:1013F0004C04D0904D04E0904E04F0904F04809146
:10140000EE039091EF03BC01990F880B990B0E949A
:10141000812F9B01AC01C701B6010E949A306B017C
:101420007C0180917D0380FF04C0F7FAF094F7F807
:10143000F094C701B6010E944E2FAB016A357105C9
:1014400040F09B012D543F4F2935310580F477FD45
:10145000A901473451052CF54A31510534F54A307C
:10146000510540F128E02A8713EF30ED27C06B3596
:1014700071051CF0AB01435B5109CA0157FF03C062
:1014800091958195910987349105D0F48A31910520
:10149000E0F40A9700F148E04A8715EF82EE8B8767
:1014A0001FC01A861DEC91EC14C0E7E0EA8718EF24
:1014B000F9ED15C029E02A871DEC36EC3B8710C0FA
:1014C0001A861DEC41EC4B870BC087E08A871BEF27
:1014D0009BEE9B8705C0E9E0EA871DECF6ECFB87F5
:1014E00027EA32E94BE25CEBC501B4010E949A3075
:1014F0004B015C0125E33AEF4EE85CE3C701B6011E
:101500000E949A306C837D838E839F839CE0292E7A
:10151000312C19822A85022E000C330B398728873B
:101520008981C82E880FDD086091EC037091ED036E
:101530006C0D7D1D072E000C880B990B0E94812FCE
:10154000A50194010E949A300E94423120E030E0CF
:1015500044EB52E40E949A302B013C0120E030E041
:10156000A9010E948F3020E030E040E05FE387FD7A
:101570000BC0C301B2010E94192E0E944E2F7B01A5
:10158000EDE2EE0EF11C0AC0C301B2010E94182E5A
:101590000E944E2F7B01FDE2EF0EF11C0DE00219BF
:1015A000222733272C193D093B832A83802F90E083
:1015B000281639060CF46FC06C817D818E819F8165
:1015C0000E9442312B013C013CE0039F602D11241D
:1015D0006E54062E000C770B880B990B0E94812FFE
:1015E0009B01AC01C301B2010E949A300E944E2FB0
:1015F000F701E60FF71FCF0101978A35910508F033
:1016000048C062E170E00E94A8313B014A85442352
:1016100079F031962EEE2603C001279F900D1124FC
:10162000E80FF91FF7FD3196F595E7955E2E01C09D
:10163000512C64E066198FEF800F4EDB3981332324
:1016400079F0053069F4B601D7FE02C06A817B816A
:101650004AE050E082E393E00E94AA2906E003C03A
:101660008B85850D5EDB5520A1F0252D30E088852A
:101670009985281739076CF094E06916710449F0D0
:10168000E52DE10F4AEF4E0F63E066198FEF800FF3
:1016900056DB0F5F8BCFF7FE0BC0E981E25EE9837B
:1016A00034E0231A310844E02416310449F038CFDD
:1016B000FBE5EF16F10424F029812E512983F0CFA8
:1016C0002B96E2E10C942E3266E089E0F4DA6CCEDF
:1016D0000F931F93CF93DF932091AF03222309F43D
:1016E0004DC04091AD035091AE0320913A05309129
:1016F0003B054217530709F441C0692F9091AC0391
:101700002AE1291B27FD0AC02695820FD4DA6FEA49
:1017100073E082E393E00E94222932C066FD1CC080
:10172000219530E08091EA039091AA03891B90E013
:10173000B901660F771F0E94A8314091A3034111A0
:101740000DC0009729F0215031098217930731F419
:1017500021E02093A30302C080E090E0EC01C1559A
:10176000DC4F8E01065E1F4F8991811102C092DD10
:1017700007C0D7DAC017D107B9F7F9CF1092AF0376
:10178000DF91CF911F910F910895292F80913A05F4
:1017900090913B058F739927029710F026FF06C0A2
:1017A00063E274E082E393E00C94222908950E949E
:1017B000182E20EC3BE649ED57E40C949A30CF927A
:1017C000DF92EF92FF92CF93C42F6B017C01E894DC
:1017D000F7F8C701B6010E944E2F072E000C880BA8
:1017E000990B0E94812F9B01AC01C701B6010E9499
:1017F000182E9B01AC01C11105C060E074E284E7C2
:1018000099E404C060E070E583EC97E40E949A30AC
:101810000E944E2FCF91FF90EF90DF90CF900895D0
:10182000CF93DF93282F86FB442740F9E42FF0E085
:10183000DB016D917D918D919C91EE0FFF1F25FF36
:101840001AC0E452FA4FC591D491B9DF9F938F9398
:101850007F936F93DF93CF9382E393E09F938F9374
:101860000E949A2AADB7BEB718960FB6F894BEBFBD
:101870000FBEADBF08C0E852FA4F25913491AB01BD
:10188000BC01C9017EDDDF91CF91089562E074E073
:10189000892FC6CF6EEF73E0892FC2CFCF93C42FAD
:1018A00028EE33E040E050E00E94BB31DA01C9018C
:1018B00040E06C2F2EDCCF910895492F4074609149
:1018C0006005709161058091620590916305E6CF96
:1018D000CF93C82F6091B4047091B5048091B60481
:1018E0009091B7040E944E2F615071096F3077427A
:1018F00080F4C7FD02C086E114DA4091B40450912F
:10190000B5046091B6047091B70421E080E896E0D8
:10191000FCDCCF9108957F936F939F938F9380E822
:1019200092E09F938F9382E393E09F938F930E9423
:101930009A2A8DB79EB708960FB6F8949EBF0FBE31
:101940008DBF08950F931F93CF93DF9305E111E0AF
:1019500080E090E0F801619171918F01EC01219696
:10196000CE01D9DFCE012897A9F7DF91CF911F9142
:101970000F9108951F920F920FB60F9211242F937B
:101980008F939F93EF93FF939091C60080913606BB
:101990008F5F8F7720913706821741F0E0913606EE
:1019A000F0E0EC54FA4F908380933606FF91EF916C
:1019B0009F918F912F910F900FBE0F901F901895B0
:1019C0001F920F920FB60F9211248F939F93EF9354
:1019D000FF939091350680913406981779F0E09145
:1019E0003506F0E0E055FA4F80818093C600809183
:1019F00035068F5F83708093350605C08091C100E6
:101A00008F7D8093C100FF91EF919F918F910F90F7
:101A10000FBE0F901F901895EF92FF920F931F9398
:101A2000CF93DF938C01040F151FEC017B01E81AA3
:101A3000F90AC017D10739F0C7018C0F9D1F0E940A
:101A40004F328993F6CFCDB7DEB7E6E00C943A3249
:101A5000A8E1B0E0EEE2FDE00C942132182F88E11D
:101A6000189FB001112460587D4F48E150E0CE012D
:101A70000196D2DFE12FF0E0EE0FFF1FE559FC4F9A
:101A80006081718180E090E00E947F2F29813A81FE
:101A90004B815C810E949A302D813E814F81588517
:101AA0000E94192E9F938F937F936F93CE01099677
:101AB0009F938F9382E393E09F938F930E948A2A50
:101AC0000FB6F894DEBF0FBECDBF6896E3E00C946E
:101AD0003D32982F262F30E0F901E959FC4F87FD60
:101AE00009C0862F41E04083F901ED59FC4F907405
:101AF0009083AECF1082089563E0892FEACF62E031
:101B0000892FE7CF61E0892FE4CF60E0892FE1CF13
:101B1000CF936AE086E0CFD8C0E08C2F99DFBCDBA2
:101B2000CF5FC430D1F7CF910895A0E0B0E0EBE9EA
:101B3000FDE00C941D32EB017C018B01040F151F9D
:101B4000C017D10771F0F701D1907F01CE010E943B
:101B50004F328D1521F06D2DCE010E945732219606
:101B6000EFCFCDB7DEB7E7E00C943932EF92FF92BA
:101B70001F93CF93DF93182F7B01C0E0D3E0CE01FA
:101B80000E944F328F3F71F0811103C0112351F039
:101B90001150111102C0F70109952196C038F3E0E8
:101BA000DF0769F7DF91CF911F91FF90EF900895C4
:101BB000BC0182E393E00C94762A1F93CF93DF93CA
:101BC000182FD92F87FD0EC096FF04C0C0E084EB0C
:101BD00092E003C0C1E083EC92E0EADF812F9D2F09
:101BE0007FD901C0C0E080919D0590919E05A09194
:101BF0009F05B091A005BC01CD0190589B01AC019F
:101C00000E94192E0E944E2F80917D0382FF05C0F5
:101C1000CB016CE370E00E94A831D5FF05C0CB0179
:101C20006AE070E00E94A831D4FF06C077FF02C0CE
:101C30006F5F7F4F7595679516FF08C077FF02C0ED
:101C40006D5F7F4F75956795759567959B01235DD2
:101C50003F4F37FF02C02F5F3F4FC90195958795D2
:101C600069E070E00E94A83165302CF467FD06C081
:101C70004FEC481B05C04EE764E002C040E660E060
:101C80008C2F5DD8DF91CF911F910895CF93DF9373
:101C900087FD03C089EA92E08BDFC4E4D3E0499179
:101CA00059916991799184EA96E06BDB83E0C035C4
:101CB000D807A9F7F1DACEE3D3E0699179918CE9FD
:101CC00096E010D983E0C434D807B9F7DF91CF91FB
:101CD0000895FF920F931F93CF93DF93F92E809572
:101CE000D82FDD1FDD27DD1F092F0072DD2339F01E
:101CF00096FD05C00023A9F181EE91E059DF83EC48
:101D000010D8209148053091490548E1429FC00113
:101D1000439F900D11240C9668E671E00E94A83153
:101D200064507109C62F77FF02C0C8E1C60F0111C8
:101D300002C019E001C01AE0EC2FF0E0E454FE4FBD
:101D400084910E949106CF5FC83108F0C0E0115025
:101D500099F787E80E949106DD2371F0F6FC04C034
:101D60000BC084ED91E0CACF011103C085EA91E078
:101D700002C081EB91E01CDFCDB7DEB7E5E00C944B
:101D80003B321F93CF93DF934091020450910304A1
:101D90006091040470910504452B462B472B69F490
:101DA0004091FE035091FF03609100047091010483
:101DB000452B462B472B09F43DC094FD02C01FEF75
:101DC00001C010E2EC01809191038823D9F0809149
:101DD0009D038A3048F089E991E0EADE812F0E9474
:101DE000910682E991E00CC080919E038A3050F008
:101DF00089E991E0DDDE812F0E94910689E891E07A
:101E0000D7DE18C0C095CC1FCC27CC1F19F083E0BB
:101E10000E9491066EEF73E08D2F02DD812F0E94EC
:101E20009106CC2319F084E00E94910662E074E0F0
:101E30008D2FF6DCDF91CF911F9108958EBD0DB4EB
:101E400007FEFDCF8EB56EBD0DB407FEFDCF8EB57E
:101E500008958EBD0DB407FEFDCF8EB58FEF8EBDFC
:101E60000DB407FEFDCF8EB5089595FB222720F90E
:101E700094FD02C090E001C092E0922B86FD02C06A
:101E800080E001C084E0892B08951F93CF93DF93F6
:101E9000182FEBDF8C5FC82FD0E017FD06C0BE0106
:101EA0006F5F7F4F8EEC95E01DD8CC0FDD1FCB5EB2
:101EB000DE4F6881798180EA96E014D8DF91CF9176
:101EC0001F9108951F93CF93DF93182FC92FCDDF54
:101ED000D4E0D80F17FD08C06D2F70E06F5F7F4F03
:101EE00088E892E00E9472076C2F60748D2F0E9428
:101EF000F706D82FC0E0CD1302C081E801C080E80A
:101F00000E949106CF5FC530B1F7DF91CF911F914D
:101F100008951F93CF93DF93182FC92FA6DFD4E026
:101F2000D80F17FD08C06D2F70E06F5F7F4F8EECEC
:101F300095E00E9472076C2F60748D2F0E94F70647
:101F400061E976E013DEDF91CF911F91089596FB52
:101F5000222720F930E095FD03C080E090E002C028
:101F600082E090E0282B392B2150310923303105B4
:101F700028F4F901EE5EFE4F8081089580E0089517
:101F8000CF92DF92EF92FF92CF93DF93D82FC92F9A
:101F9000DEDF80930901C7FD46C0C4FF2AC081E08F
:101FA0008093980329E838E848E85CE360919D0550
:101FB00070919E0580919F059091A0050E949A3096
:101FC0006B017C010E944E2F9B0177FF04C02227EA
:101FD0003327261B370B2A303105FCF4D6FD03C00E
:101FE00087E092E002C080E092E028E1B701A6011C
:101FF00012C010929803E0917D05F0917E057296D3
:10200000249140919D0550919E0560919F0570918E
:10201000A00589EF91E079D906C0243631051CF37B
:1020200089EF91E0E2CFDF91CF91FF90EF90DF90C9
:10203000CF900895A2E0B0E0E0E2F0E10C9422320B
:1020400090913305682F70E0660F771F80E8989FA6
:10205000600D711D112442E050E0CE010196DCDCE0
:1020600089819A812296E2E00C943E320F931F936D
:10207000CF93DF93EC018B010E94F726DC01CB01AB
:10208000800F911FA11DB11D88839983AA83BB83F3
:10209000DF91CF911F910F9108959B01FC01408129
:1020A000518162817381420F531F611D711D4083F5
:1020B0005183628373830895E0917D05F0917E05DD
:1020C000349665917591859194910895CF92DF92A0
:1020D000EF92FF92CF93DF936B017C01EDDFA701BD
:1020E00096010E949A306B017C0120E03CE34CE1B8
:1020F00056E40E94DF2EC0917D05D0917E05FE0141
:1021000018163CF039962491B701A60180E896E0B4
:1021100024C070966591749180E090E00E947F2FBA
:102120009B01AC01C701B6010E94E62E6B017C0148
:102130000E944E2F6A30710534F06436710534F018
:1021400080E896E005C08CE896E002C086E896E05C
:10215000FE013F962491B701A601D7D8DF91CF9118
:10216000FF90EF90DF90CF90089596FB882780F93D
:102170008093A20380919303882369F097FD0BC09D
:1021800060914F05709150058091510590915205D5
:102190000E94812F9BCF089560E070E0CB0196CF25
:1021A0006091990570919A0580919B0590919C058D
:1021B0008DCFE0917D05F0917E05659175918591BA
:1021C00094910895CF92DF92EF92FF921F93CF9355
:1021D000DF93EC016A017B01122FEBDFA70196016F
:1021E0000E949A30112341F024EE38E34EE85EE37A
:1021F0000E949A3028E106C0E0917D05F0917E05AD
:1022000038962491AB01BC01CE017FD8DF91CF91EC
:102210001F91FF90EF90DF90CF900895292F2074A9
:1022200040914005509141056091420570914305F0
:1022300084EA96E0C7CF292F207440913C05509145
:102240003D0560913E0570913F0584EA96E0BACF66
:10225000A0E0B0E0EEE2F1E10C941C32EC01D62EED
:10226000FE01059114910115110509F46AC0FE01E2
:102270003296849181110E949106FE0133968491D9
:102280003196E590F490893691F030F4813609F476
:102290003CC08836C1F004C08337E9F0863719F1B5
:1022A00050E2C52E60E070E080E89FE337C0F701A0
:1022B00060817181072E000C880B990B0E94812F81
:1022C00040E2C42E32C0E0917D05F0917E05399642
:1022D000C490F2DE23C0E0917D05F0917E05389632
:1022E000C49067DF1BC0E8DE20919803211114C061
:1022F000E0917D05F0917E057296C49020E030E07B
:1023000040E752E40E949A3009C031E4C32E6AE0EB
:1023100077ED83E29CE302C028E1C22EF701208121
:102320003181428153810E949A302C2DAB01BC0136
:10233000C8010E9485090E944C092796DA94D110A1
:102340008FCFCDB7DEB7E8E00C94383267E085E494
:1023500092E07ECFCF93DF93D82FC92F0E947007D2
:1023600088E00E94910660916005709161058091FE
:1023700062059091630540E091DA6AE081E291E0C4
:1023800067DFC6FF05C06C2F8AE08D0F0E945B06D9
:1023900083E00E9491066EEF73E080E041DA0E94D4
:1023A0004C0984E00E94910662E074E080E038DA33
:1023B000DF91CF910895CF92DF92EF92FF921F931A
:1023C000CF93DF9380918B03882309F4DAC01092B6
:1023D0008B03C0904005D0904105E0904205F090FD
:1023E0004305E7DEA70196010E949A300E944E2F16
:1023F000A0917B05B0917C0580919703882351F0D3
:1024000021E090E080915505823008F020E0C22F55
:10241000D92F02C0C0E0D0E0E0911604E1110AC05B
:1024200020911A0430E06217730724F4809190031E
:1024300080FDC26020911904222329F030E0261784
:1024400037070CF4C46030917605209174054091F3
:102450001B04442369F0CD0164E670E00E949431CE
:102460006115710529F0842F90E068177907E4F071
:10247000409121044423C9F054E6359FC001112442
:10248000322F27FF02C031E0320F3595830F911DA7
:1024900037FD9A95622F220F770B0E94A831842F67
:1024A00090E0681779070CF4C8608091200480FDE3
:1024B0000BC08091220490E02091E4033091E50369
:1024C0002817390708F4C06180919D0590919E05F9
:1024D000A0919F05B091A005E130A1F410911A04DC
:1024E000112381F0BC01CD019F770E944E2FCB01BB
:1024F0006AE070E00E94A831812F90E0861797076C
:102500000CF4C0628091790590917A052091540471
:10251000222371F064E670E00E9494316115710528
:1025200039F0822F90E06817790714F4C06405C071
:10253000209719F410922D0324C090912D0381E06F
:102540009111890F80932D0380912D034FEF480F38
:1025500021E030E002C0220F331F4A95E2F78B30B2
:1025600018F081E021E030E0A9014C235D23452BE8
:1025700021F48F5F220F331FF2CF80932D03891731
:10258000C9F2E0912D03EE2341F0F0E0EE0FFF1FC2
:10259000E950FA4F859194910BDBDF91CF911F9118
:1025A000FF90EF90DF90CF9008952FE632E143E85F
:1025B0005AE30C949A30CF92DF92EF92FF92CF932E
:1025C000DF93C091B804D091B90476DD6B017C0132
:1025D0002AEF2C9FC0012D9F900D1124BC01990F53
:1025E000880B990B0E94812F9B01AC01C701B6019A
:1025F0000E949A30E0917D05F0917E05A8974CF0FD
:102600003F96C491D2DFAB01BC012C2F8CE896E041
:1026100006C039962491AB01BC0180E896E00E9487
:102620008509DF91CF91FF90EF90DF90CF900895D3
:10263000CF93DF93611103C0C2E9D6E002C0C6E8C0
:10264000D6E0BC0180E090E00E947F2FAEDFAB01BE
:10265000BC012DE0CE010E948509DF91CF91089544
:102660000F931F93292F207495FF12C0222361F02E
:102670008091440590914505A0914605B09147058C
:10268000BC01CD0190581DC060E070E0CB0119C0C5
:1026900060910604709107048091080490910904E8
:1026A000222361F00091FA031091FB032091FC03B7
:1026B0003091FD03601B710B820B930B0E94812FE5
:1026C00074DF04DD1F910F91089520913A05309138
:1026D0003B05260F311D3093AE032093AD0380934D
:1026E000AC038091EA038093AA03089597FF03C087
:1026F00088599E4F0895893621E0920714F0885634
:1027000091400895CF93DF93EC010E94F726288132
:102710003981CB01821B930BDF91CF91089581E02A
:102720008093850388E0E3E2F5E0DF011D928A955E
:10273000E9F780E07FDC90937E0380937D0308952A
:1027400024E0880F991F2A95E1F78C549F4F68E683
:1027500071E00E94A831CB0101960895CF92DF92DB
:10276000EF92FF921F93CF93DF93809170058A3091
:1027700009F04FC0C0917F05D0918005C83E83E02D
:10278000D8073CF4C9318CEFD8072CF4C9E1DCEF51
:1027900002C0C7EED3E0E0917D05F0917E05399649
:1027A000149160E070E088E996E00E9472070E9450
:1027B0004A0982DC212F40E050E0BA0180E896E02F
:1027C0000E9485090E944C0980918D0590918E058B
:1027D0008DDF2091480530914905821B930BB0DFB6
:1027E0000E9463088FEE91E0E3D966DC6B017C0107
:1027F000BE01DD0F880B990B0E94812FA701960166
:102800000E949A30AB01BC01212F80E896E00E9423
:102810008509DF91CF911F91FF90EF90DF90CF90CE
:102820000895809148059091490591958195910968
:102830005DDF845B9109909354058093530580DF9D
:10284000885F0E946308609153057091540580EA87
:1028500091E00C947207CF92DF92EF92FF92CF93A8
:10286000DF93EC016A017B019A01AB0168817981F8
:102870008A819B810E94DF2E87FF04C0C882D98293
:10288000EA82FB82DF91CF91FF90EF90DF90CF90B3
:1028900008958F929F92AF92BF92CF92DF92EF9264
:1028A000FF920F931F93CF938C014A015B01C22FBC
:1028B000FC01C080D180E280F38020E030E0A901FB
:1028C000C701B6010E94DF2E882311F0C23030F418
:1028D000F80180829182A282B3821DC0A701960175
:1028E000C501B4010E94182E4B015C016C2F70E0F1
:1028F00080E090E00E94812F9B01AC01C501B401F2
:102900000E94E62EA70196010E94192EF80160830D
:10291000718382839383CF911F910F91FF90EF90EA
:10292000DF90CF90BF90AF909F908F900895CF93FE
:10293000DF9397FD25C0C92F91E09093A1039C2FB1
:1029400006DBD82F6091790570917A0580E090E0E0
:102950000E947F2FAB01BC012D2F84EA94E099DF08
:10296000C0716091A4047091A5048091A604909117
:10297000A7040E94532FDC01CB016C2F59DE08C045
:1029800081E090915404911101C080E08093A103F3
:10299000DF91CF910895CF93DF93C92FD8DAD82F45
:1029A00060917B0570917C0580E090E00E947F2F14
:1029B000AB01BC012D2F80EA94E06BDFC071609108
:1029C000A0047091A1048091A2049091A3040E949C
:1029D000532FDC01CB016C2F2BDEDF91CF910895BB
:1029E000CF93DF93C92FB3DAD82F60917705709119
:1029F0007805072E000C880B990B0E94812FAB01E4
:102A0000BC012D2F88EA94E044DFC4FD03C0C2E975
:102A1000D6E002C0C6E8D6E02AE037ED43E25CE348
:102A20006091A8047091A9048091AA049091AB04CC
:102A30000E949A30AB01BC012EE0CE010E948509B4
:102A4000DF91CF9108950F931F93CF93DF93D92FE9
:102A500080E090E04BDE8C0124E640E050E0BA01DB
:102A600081EA95E016DFD6FBCC27C0F92C2F40E099
:102A700050E0BA0184EA96E0A5DB0E944C0920915F
:102A8000480530914905C801821B930B59DED5FDDD
:102A900002C090E001C098E0890F0E946308409155
:102AA000A1055091A2056091A3057091A4052C2F5A
:102AB00083EF91E087DBDF91CF911F910F91089514
:102AC000CF93DF93C92F43DAD82F6091E40370913D
:102AD000E50380E090E00E947F2FAB01BC012D2F29
:102AE0008CEA94E0D6DE6091AC047091AD048091E4
:102AF000AE049091AF040E944E2F8CE996E00E94A4
:102B000072078091200480FD03C0C4FD0E94E1088B
:102B1000DF91CF9108958F929F92AF92BF92CF9203
:102B2000DF92EF92FF926091770570917805072E02
:102B3000000C880B990B0E94812F6B017C01809007
:102B40003C0590903D05A0903E05B0903F0531DBDF
:102B5000A50194010E949A309B01AC01C701B60106
:102B60000E94E62E20E030E040E251E40E949A30DC
:102B7000AB01BC0124E684EB94E08BDEFF90EF9088
:102B8000DF90CF90BF90AF909F908F900895A0E07E
:102B9000B0E0EDECF5E10C941C3220918C03222383
:102BA00009F4AAC0C82F96FF15C020E030E0A901A3
:102BB00060913C0570913D0580913E0590913F05E7
:102BC0000E94DF2E882309F497C0A5DF8C2F0E9476
:102BD000680C92C080911604811141C020E030E061
:102BE000A90160913C0570913D0580913E05909151
:102BF0003F050E94DF2E882309F47EC08CDF809180
:102C00008F038823D1F01092570510925805109227
:102C1000590510925A058091990590919A05A091B5
:102C20009B05B0919C058093B0049093B104A09350
:102C3000B204B093B30410928F038091EC0390918F
:102C4000ED0397FF59C080919103882319F087E71E
:102C500092E002C086E792E00E94D80D4DC0D0916C
:102C600076050D2F10E080917305082E000C990B4E
:102C700008171907B1F160916005709161058091A5
:102C80006205909163050E947F2F6B017C016D2F7F
:102C900070E080E090E00E947F2F9B01AC01C701B3
:102CA000B6010E949A306B017C0140917405042E9C
:102CB000000C550B401B510BBA01550F880B990B9B
:102CC0000E94812F9B01AC01C701B6010E94E62E34
:102CD0006CDC0E94532F7093720560937105D09342
:102CE0007305C7FD03C087E10E94910680917105BD
:102CF000909172050E94DE08CDB7DEB7E8E00C9433
:102D000038322AE0C6CDCF93DF93EC019A01AB01B4
:102D1000688179818A819B810E94192E68837983D9
:102D20008A839B83DF91CF910895A3E0B0E0EBE924
:102D3000F6E10C9412328AE094E0E4DC1C0160E0DD
:102D400070E08AE094E092D9B10180E090E00E94C6
:102D50007F2F2BDC4B015C0160917705709178052A
:102D6000072E000C880B990B0E94812F6B017C01B0
:102D700060917B0570917C0580E090E00E947F2F40
:102D8000A70196010E949A302CEA35EC47E257E3FE
:102D90000E949A30AB01BC018EE094E0B2DF10914A
:102DA00009018AD9212F40E050E0BA018DE995E070
:102DB00070DD2091760580917405082E000C990B2A
:102DC000422F50E08417950714F42093740521E6F0
:102DD0003BE046E35BE3C701B6010E949A30A501E0
:102DE00094010E949A30AB01BC0185E995E08BDF2C
:102DF0008091E6039091E7032091200420FD5FC0BD
:102E000020915A0430915B043B832A8300915C0437
:102E100010915D04021713074CF43A812B811B8338
:102E20000A83032F122F31E0398301C019823A81BE
:102E30002B814A815B814817590714F4382F292FB9
:102E4000632F722F061717070CF4B8018A819B8134
:102E5000681B790B80E090E00E947F2F2B013C01E2
:102E6000B801EA81FB816E1B7F0B80E090E00E943D
:102E70007F2F9B01AC01C301B2010E94E62E20E02E
:102E800030E048EC52E40E949A300E944E2F6536A2
:102E900071052CF477FF05C060E070E002C064E6C5
:102EA00070E0F981FF2331F084E690E09C01261B5D
:102EB000370BB9017093E5036093E40304C090936A
:102EC000E5038093E40380911604811104C080918E
:102ED000900380FD05C080918C03882309F466C0AF
:102EE000B10180E695E0D9D880919303882389F0D9
:102EF00020913C0530913D0540913E0550913F05A4
:102F0000C501B4010E949A30AB01BC0189E995E08A
:102F1000FADE60914F0570915005809151059091B6
:102F200052050E94812FAB01BC018AE195E093DC40
:102F300040914005509141056091420570914305D3
:102F400086E195E088DC40913C0550913D0560911B
:102F50003E0570913F0582E195E07DDC40E050E068
:102F6000BA018EE095E077DC40E050E0BA018AE0FB
:102F700095E071DC40910E0450910F0460911004B3
:102F8000709111048AEF94E066DCB701A60186E037
:102F900095E061DC40E050E0BA0182E095E05BDC66
:102FA00040E050E0BA018EEF94E055DC2396E2E178
:102FB0000C942E32CF93DF93EC01CB01BA010E9427
:102FC000812F25E93FEB46ED53E30E949A30688359
:102FD00079838A839B83DF91CF9108950E94F7269E
:102FE00060933405709335058093360590933705CB
:102FF00080913A0590913B0590933905809338056F
:10300000E5E8F3E081E08083828308958091860380
:10301000882329F09091840381E0911180E0089544
:10302000CF9390917503992309F447C0E091570419
:10303000F0E0EE0FFF1FE35EFE4F20813181CFB73E
:10304000882309F0F89480915E048130D9F018F05B
:10305000823011F131C0E0917303F09174039081DB
:1030600080917503892B8083C9010E944C27E091D0
:103070007303F09174039081809175038095892387
:1030800080831AC090917503E0917303F0917403EB
:103090002D3D35406CF009C090917503E0917303AC
:1030A000F09174032C3D35401CF48081982B03C0B3
:1030B0008081909598239083CFBFCF91089566E942
:1030C00070E080E090E00C94282765E082E00E94A8
:1030D0005B068AEE92E00E94D80D0E94F7264AE035
:1030E00050E082E393E00E94712980919F0388233E
:1030F00059F061E081E00E945B0660912C0470E071
:1031000085ED92E00E9472070E94A606D8CF84E265
:103110000E941A1096FF07C080914E0590E08C54D3
:103120009F4FE4DA04C08091480590914905880FCB
:10313000991F8D966AE570E00E94A83177FF03C061
:10314000685F7F4FFBCF67707727FB01E353FD4F2D
:103150008491089587FD03C0DADF0E949106609193
:103160004805709149058CE996E00E94720785E058
:103170000C9491064F925F926F927F928F929F92E2
:10318000AF92BF92DF92EF92FF920F931F93CF9374
:10319000DF937C01F6FC0CC06F2D81E08E0D0E9448
:1031A0005B0680917D0381FD1CC00E94D40919C07B
:1031B000C5E082EB0E949106DDE0D15019F00E943B
:1031C0004A09FBCFC33011F083EB01C085EC0E94AC
:1031D00091060E944C09C150F9F2C33051F786ECB8
:1031E000E9CFF4FEB1C0C0914C05D0914D050091DE
:1031F0004A0510914B05C80117FF04C0882799277D
:10320000801B910B6AEF70E00E94A831E62F472FD8
:10321000CE01D7FF04C0882799278C1B9D0B6AEF2E
:1032200070E00E94A8312E2F342F261737070CF498
:103230009B01B9016F5F7F4F7093B9046093B8042D
:10324000072E000C880B990B0E94812F4B015C010B
:10325000B801110F880B990B0E94812F2B013C01A3
:1032600024EE38E34EE552E4C501B4010E949A30E1
:103270009B01AC01C301B2010E94E62E0E944E2FB9
:10328000162FBE01DD0F880B990B0E94812F2B0199
:103290003C012DE63BED4EE052E4C501B4010E9435
:1032A0009A309B01AC01C301B2010E94E62E20E0DE
:1032B00030E040E05FE30E94192E0E944E2F062F5F
:1032C000E6FC09C024DF62E0611B482F85E0800F27
:1032D0000E949F0639C090912B05961304C08091DF
:1032E0002C058117E1F080912F0590913005909386
:1032F00032058093310580912D0590912E05909394
:10330000300580932F0580912B0590912C0590938B
:103310002E0580932D0500932B0510932C05C0E0FE
:10332000D0E032E0B32EFE01E55DFA4F87816B2DD0
:10333000681B868144E28B5F0E949F062297CA3FEA
:103340004FEFD40781F7BECFE7FC08C062E085E00D
:103350000E946C068AE791E00E94D80DF5FE8AC0B3
:1033600080918C03882309F485C080911604811113
:103370007AC060914F0570915005809151059091F0
:1033800052050E94812F9B01AC0160E070E0CB01EF
:103390000E948C2E21EE3EE245EE52E40E949A30CD
:1033A0000E944E2F6A5071092DE2269FC001279F6F
:1033B000900D11246AE070E00E94A831CB018D9637
:1033C00097FD01969595879569E070E00E94A83178
:1033D000D62F653058F4CFECC81B4C2F8CE00E94E0
:1033E0009F064C2F6D2F81E00E949F0680914E0515
:1033F00090E020910E0130910F01821B930B76D942
:10340000853B910534F028E631E0A901481B590BB2
:10341000CA019C01245B310948E4429FC001439FDB
:10342000900D11246AE070E00E94A831CB018496CF
:1034300066E070E00E94A83167FD07C06D3044F47B
:10344000DFEBD80FC1E0C60F05C0C1E0DCE302C06E
:10345000CCE0DEE34D2F64E08C2F0E949F064D2FC1
:1034600060E08C2F05C00E945C104BEC62E086E0AF
:103470000E949F06DF91CF911F910F91FF90EF90D7
:10348000DF90BF90AF909F908F907F906F905F90F4
:103490004F900895ABE0B0E0E0E5FAE10C94123211
:1034A0006B017C010E94B5058091160410918C037C
:1034B00081111CC0112301F18091900380FF1CC079
:1034C00060913C0570913D0580913E0590913F05CE
:1034D0000E944E2F623071057CF0C0928105D0921F
:1034E0008205E0928305F092840506C0111104C0A4
:1034F00080918D038111F1CF10938D038091590438
:10350000853018F084E08093590484E395E0FAD87C
:10351000853C994080F110923C0510923D05109237
:103520003E0510923F0562E085E00E945B066091D7
:103530003A0570913B058091380590913905681BDB
:10354000790B87E691E00E9472074091A4035091A5
:10355000A5036091A6037091A7034115510561056C
:10356000710531F02AE030E082E393E00E946429A3
:1035700083E094E469C08091130480FF68C01091D7
:103580008C03111123C08091810590918205A09137
:103590008305B0918405892B8A2B8B2BB9F0609120
:1035A000990570919A0580919B0590919C050E94C8
:1035B0004E2F6630710554F081E080939A030E948B
:1035C0001F0780913305809362033CC080919A036A
:1035D0008823E9F18091620390913305891721F0E6
:1035E0008093330510929A0382E00E943407092EDB
:1035F000000CAA0BBB0BB7FF07C0B095A095909528
:1036000081959F4FAF4FBF4F8D329140A105B105BE
:103610000CF0A9C283E00E943407092E000CAA0B0B
:10362000BB0BB7FF07C0B095A095909581959F4FB4
:10363000AF4FBF4F8D329140A105B1050CF093C241
:10364000111191C281E091E00E94AA118FC2809174
:103650005904882321F090913305981740F50EE026
:1036600013E0F801B490C8010196FC01C590D49014
:10367000C114D10409F47AC28B2D8F770E941A10DD
:103680007C010E947007F7FC0AC0E7FC0AC0F80141
:1036900033968491882329F00E94910602C0B7FED8
:1036A00003C0C701F60109950C5F1F4FDACF809167
:1036B0008C0381114FC21D821E821F821886409189
:1036C0002205A42EB12CF5E04F9FA0011124FA0190
:1036D000E252FC4F8591949190935D0380935C033B
:1036E000FA01E052FC4FF4900E941F07C12CD12C2C
:1036F000E12C1A861B86312C212C1986EF1409F433
:10370000BEC0552453945E0C00915C0310915D0380
:103710000C0D1D1DF80185909490652D81E00E948F
:103720005B06C4010E94D80D652D83E10E945B06F3
:1037300080910A01E81203C08EE30E949106F8010D
:103740003296E491EF77E33609F457C080F4E2341F
:10375000B9F120F4EE2309F48DC06FC0EA3509F405
:103760004AC0E23609F069C0442443942BC0E836CD
:10377000D9F088F4E63609F060C0F8013396A591D7
:10378000B4918D919D910D90BC91A02D8D839E83C0
:10379000AF83B88752C0E33709F445C0EA3709F070
:1037A0004CC020E1298729C080912803803419F07A
:1037B00088EF90E002C080E091E00E94D80D5AC0EE
:1037C0006AE0462EF8013396A591B4916C9170E0B1
:1037D00080E090E00E94812F3B014C01642D70E05D
:1037E00080E090E00E947F2F9B01AC01C401B301F7
:1037F0000E94E62E13C080E28987F8013396A591D6
:10380000B4916C91062E000C770B9985691B710998
:10381000072E000C880B990B0E94812F6D837E83ED
:103820008F8398870AC0F80133966591749144E0BC
:1038300050E0CE0105960E940C0D80910A01BD81D9
:10384000AE813F812885E81203C0BA87AB87190192
:10385000F8013596E491E295EF70F0E0EE0FFF1F6E
:10386000E85AFB4F859194914B2F5A2F632F722F5B
:103870000E94C109E6E0CE0ED11CE52C3FCF85E0C9
:103880008A9DF0018B9DF00D1124EF51FC4F859125
:103890009491009711F0FC0109958091940388237D
:1038A00009F464C11092940311E01093850381E040
:1038B0000E9434078739910514F081E004C08A36EC
:1038C0009F4F24F48FEF0E94440750C183E00E9471
:1038D0003407873991055CF010930A018091220525
:1038E000823019F41092220541C18F5F0CC08A36D4
:1038F0009F4F64F410930A0180912205811102C048
:1039000082E001C081508093220530C160910A019C
:103910006F5F84E10E945B0680910A0100915C0365
:1039200010915D03480196E0899F800C911C112441
:1039300080E00E9434075C0197FF06C0B194A19417
:10394000B108EE24E39401C0E12CF4013396C59054
:10395000D490F4013296249129878A859B85A32DE2
:10396000B22D8D839E83AF83B887122F1F771436B5
:1039700040F4123680F4123461F01A3509F049C06F
:103980000AC0133751F11A3731F0163609F041C029
:1039900024C00AE001C001E08DE2A81681E0B8066B
:1039A0003CF0412C512C40E2642E41E4742E06C0C0
:1039B000412C512C30E8632E3FE3732E602F70E0D2
:1039C00080E090E00E94812F9B01AC01C301B20115
:1039D0000E94E62EFF24F39421C0C50164E670E046
:1039E0000E94A831FB01EE0FFF1FE251FF4F6081E3
:1039F000718180E090E00E947F2F9B01AC0160E02C
:103A000070E080E89FE30E94E62E01E024E0F22EC1
:103A100005C060E070E080E89FE301E0E5E6AE16F7
:103A2000B1040CF445C0E1109058AB01BC01CE01CB
:103A3000059669D9F4013596E491EF70F4E0EF9FB3
:103A400030011124F301E25AFB4F65917491072E66
:103A5000000C880B990B0E94812F4B015C019B018C
:103A6000AC016D817E818F8198850E94DF2E87FF5A
:103A700004C08D829E82AF82B886F301E05AFB4F6C
:103A800065917491072E000C880B990B0E94812F71
:103A90004B015C019B01AC016D817E818F8198851A
:103AA0000E948F30181624F48D829E82AF82B886D1
:103AB0008D809E80AF80B8842A853B85432D522D12
:103AC000C501B4010E94DF2E882309F44FC0602F86
:103AD00070E080E090E00E94812FA50194010E9497
:103AE0009A300E944E2F1336C1F038F41A3589F0FF
:103AF0001236A9F0123401F512C0133799F01A37B3
:103B000051F01636C9F4F60180829182A282B38206
:103B100013C080E203C080E101C080E0680FF601BD
:103B200060830AC089829A82AB82BC8244E050E002
:103B3000B601CE01019606C04F2D50E0B60162518C
:103B40007240C6010E94950DF985F7FF0FC00E94D3
:103B5000F3050CC083E093E00E94700783E093E0DC
:103B60000E94DB1103C010929A036CCD2B96E2E108
:103B70000C942E321F920F920FB60F9211242F9396
:103B80003F934F935F936F937F938F939F93AF93E5
:103B9000BF93EF93FF9381E080932C0310928403F3
:103BA000809183038F5F809383030E94F726609345
:103BB0007F037093800380938103909382038091AD
:103BC000A803882321F00E94A6061092A803FF9163
:103BD000EF91BF91AF919F918F917F916F915F9185
:103BE0004F913F912F910F900FBE0F901F901895FE
:103BF000CF92DF92EF92FF920E9403276B017C012C
:103C000083E00E942328019749F4C0927603D09262
:103C10007703E0927803F09279031FC080917603D6
:103C200090917703A0917803B09179030097A10553
:103C3000B10599F0C81AD90AEA0AFB0AD0927B03A7
:103C4000C0927A0310927603109277031092780351
:103C50001092790381E080937C03FF90EF90DF90D6
:103C6000CF9008951F920F920FB60F9211242F93A9
:103C70003F934F935F936F937F938F939F93AF93F4
:103C8000BF93EF93FF93B4DFFF91EF91BF91AF919B
:103C90009F918F917F916F915F914F913F912F9164
:103CA0000F900FBE0F901F901895CF930FB6F894FA
:103CB000A8958091600088618093600010926000F8
:103CC0000FBE60E071EE80E090E00E94E0294EE4DB
:103CD00050E060E072E082E194E00E940C0D80917F
:103CE000120481FD03C08DEB96E002C08AEA96E0E3
:103CF00090937E0580937D0580912C048F3421F470
:103D000080912D048A3119F081E080939F0384B55E
:103D10008C7F84BD8091130484FF02C081E001C0C8
:103D200083E00E94D02880917A008B7F80937A0074
:103D300080917A00866080937A00809169008C7F00
:103D4000826080936900E89A80911704813059F469
:103D500062E083E00E94BA2780916900837F8460DB
:103D600080936900E99A67EE70E08EE293E00E942A
:103D7000762A5E9A0E94A606789480912E04893352
:103D800041F480912F04833321F4809130048633F1
:103D900089F089E380932E0483E380932F0486E3E4
:103DA0008093300443E050E06CE172E08EE294E0F6
:103DB0000E94950D80915F04882351F010925F045A
:103DC00041E050E06DE472E08FE594E00E94950DD3
:103DD00080915704882331F1E0915804EE2311F1CA
:103DE000F0E0EE51FF4FC4912C2F30E0F901E25D7D
:103DF000F84F9491F901E65EF84F249120937503F2
:103E0000E92FF0E0EE0FFF1FE45BF84F85919491EE
:103E1000909374038093730380E002D961E08C2F48
:103E20000E94BA270E94390650D90E948F13CF9161
:103E30000895E0910301EF5FE0930301E770F0E084
:103E4000EE0FFF1FE057FB4F9183808388E060E017
:103E500070E08150E82FF0E0EE0FFF1FE057FB4FBE
:103E600020813181620F731F8111F3CF80E090E0D8
:103E70000E947F2F20E030E040E05EE30C949A3017
:103E800097FD05C08F3F910509F01CF4089580E06F
:103E900008958FEF0895CF92DF92EF92FF92CF9324
:103EA000DF938091120484FD05C08091670388230D
:103EB00009F4A0C0C0910201CF5FC093020180E16C
:103EC0000E94D328C770EC2FF0E0EE0FFF1FE058E0
:103ED000FB4F9183808388E0C0E0D0E08150E82FE1
:103EE000F0E0EE0FFF1FE058FB4F20813181C20F41
:103EF000D31F8111F3CF20916B0330916C0347E006
:103F0000429FC001439F900D11248C0F9D1F23E001
:103F1000969587952A95E1F790936C0380936B03B0
:103F20008091120484FF66C029E53EEE49E050E42A
:103F30006091340470913504809136049091370477
:103F40000E949A306B017C01BE0180E090E00E94EB
:103F50007F2F9B01AC01C701B6010E949A300E94DD
:103F6000532F40917B0550917C054115510529F453
:103F700070937C0560937B0512C09A01220F331F5A
:103F8000240F351F2E5F3F4FA901460F571F56952F
:103F900047955695479550937C0540937B0581E066
:103FA00080938503E0911B048E2F61E20E9488318B
:103FB000482F80917B0590917C05C29664E670E065
:103FC0000E949431F0E09B012E1B3F0BAFEFB0E05D
:103FD0000E94F9315AE2459F900111242E1B3F0B9C
:103FE000032E000C440B550B0E94DD31C90148DF44
:103FF000809376058091120485FF04C08091A1030F
:10400000811105C080916803882309F49DC0C09187
:104010000101CF5FC09301018EE00E94D328C770D9
:10402000EC2FF0E0EE0FFF1FE059FB4F91838083F0
:1040300088E0C0E0D0E08150E82FF0E0EE0FFF1FF5
:10404000E059FB4F20813181C20FD31F8111F3CF83
:1040500020916D0330916E0347E0429FC001439F62
:10406000900D11248C0F9D1FA3E096958795AA951E
:10407000E1F790936E0380936D038091120485FFA6
:1040800063C029EA3CEC48E050E460913804709148
:10409000390480913A0490913B040E949A306B015C
:1040A0007C01BE0180E090E00E947F2F9B01AC016B
:1040B000C701B6010E949A300E94532F40917905A2
:1040C00050917A054115510529F470937A05609352
:1040D000790512C09A01220F331F240F351F2E5F5E
:1040E0003F4FA901460F571F56954795569547953F
:1040F00050937A0540937905E09154048E2F61E244
:104100000E948831482F8091790590917A05C29656
:1041100064E670E00E949431F0E09B012E1B3F0B9F
:10412000AFEFB0E00E94F9315AE2459F90011124AF
:104130002E1B3F0B032E000C440B550B0E94DD3150
:10414000C9019EDE809375058091120486FD05C02D
:1041500080916903882309F481C0809165038823D5
:1041600049F020E137E240E050E061E08FE093D792
:10417000CB0103C08FE00E94D328E0910001EF5FE4
:10418000E0930001E770F0E0EE0FFF1FE05AFB4FF5
:104190009183808388E0C0E0D0E08150E82FF0E098
:1041A000EE0FFF1FE05AFB4F20813181C20FD31F5A
:1041B0008111F3CF20916F033091700347E0429F4C
:1041C000C001439F900D11248C0F9D1F33E09695E5
:1041D00087953A95E1F79093700380936F038091F0
:1041E000120486FF3BC02DE032E348EC5CE36091B3
:1041F0003C0470913D0480913E0490913F040E94E4
:104200009A306B017C01BE0180E090E00E947F2F1C
:104210009B01AC01C701B6010E949A300E94532F46
:1042200040917705509178054115510529F4709317
:1042300078056093770512C09A01220F331F240F6F
:10424000351F2E5F3F4FA901460F571F56954795C3
:1042500056954795509378054093770580912004B3
:104260008695813041F038F1823041F0833039F564
:104270008091E80322C081E196D708C020E23EE4A5
:1042800040E050E061E081E106D7CB01D2DD209132
:1042900040043091410440914204509143040E94F3
:1042A0009A300E94532F7093E7036093E60381E0F6
:1042B0008093850335C08091E90390E002C080E0DF
:1042C00090E0B7DD0E94532F7093E7036093E603FD
:1042D00080916A03882321F180916603882341F04D
:1042E00020E137E240E050E061E081E1D4D603C054
:1042F00081E159D7BC01809171039091720347E02D
:10430000489F9001499F300D1124620F731F83E075
:10431000769567958A95E1F77093720360937103C0
:10432000DF91CF91FF90EF90DF90CF90089581E0E3
:104330000C941018E2E3F3E01382128289E291E018
:10434000918380838EE293E00E94D829E0EDF6E02D
:1043500088E992E0968B858B8CE992E0948F838F2D
:1043600080EB92E092A381A384EB92E090A787A3D5
:1043700088EC92E096A785A78CEC92E094AB83AB97
:1043800008951F93CF93DF931AE08EE293E00E948B
:104390002F2A882309F421C1C091CD04D091CE04E5
:1043A0008EE293E00E944C2A9091CA046091C80466
:1043B000462F50E02091CC0430E024503109C13028
:1043C000D105A1F01CF4209751F006C0C230D105F0
:1043D000B9F0C330D10581F19093CA04D6CF909340
:1043E000CA04843291F6C1E0D0E0CFCF843519F011
:1043F000C0E0D0E0E4CF9093CA04C2E0D0E0C5CFE3
:104400008E3461F028F4813449F0873449F0F0CFDC
:104410008F3431F0833561F79BE003C09AE001C02F
:1044200092E19093CC048093C9041092C804109236
:10443000CA04C3E0D0E0A9CF98274217530709F078
:10444000C2C09111D5CF1092CA040E94EE1780917C
:10445000C904873439F0833509F482C0813409F006
:10446000ACC047C04091BA045091BB046091BC04F9
:104470007091BD048EEF93E00E94DA174091F20430
:104480005091F3046091F4047091F50482E094E09B
:104490000E94DA178091380590913905A0913A056C
:1044A000B0913B058093060490930704A093080401
:1044B000B09309046091C20484E6689FB00111249E
:1044C000072E000C880B990B0E94812F60933C05EE
:1044D00070933D0580933E0590933F058091C704FE
:1044E000982F9695969590935605837080935505D1
:1044F00064C02091BC043091BD04129FC001139F81
:10450000900D11249093EF038093EE032091BA0451
:104510003091BB04129FC001139F900D1124909302
:10452000ED038093EC038091BE049091BF048C5402
:104530009F4F0E9476139093F1038093F003409174
:10454000FE035091FF036091000470910104452B1C
:10455000462B472B91F590934905809348052DC034
:104560008091120484FD0CC08091BA049091BB0428
:1045700090937C0580937B058091BC0480937605A5
:104580008091BE048093E9036091BF0470E080E0F5
:1045900090E00E947F2F60934005709341058093C7
:1045A0004205909343058091C004982F9170909399
:1045B0008C0386958695809370050E940618882343
:1045C00009F4E3CE0EC09093CA046F5F6093C804F1
:1045D000FA01E654FB4F8083D8CED093CE04C0932B
:1045E000CD04DF91CF911F910895A4E0B0E0EBEFEF
:1045F000F2E20C941432A8957894F9D36B017C0103
:1046000028EE33E040E050E00E94BB3130933B05A0
:1046100020933A052CEDC21625E0D206E104F10400
:1046200058F080919F03811107C00AEB14E030E439
:10463000632E772473945CC00E9465188AC38091AE
:10464000880381115AC080919103811156C0F801ED
:10465000262D11922A95E9F7F2D6C9D34B015C01B8
:1046600034E6830E911CA11CB11C2AEF422E552466
:104670005A94BDD386169706A806B90608F048C016
:104680004FEF54125BC0509008015AE0551508F0E6
:1046900058C082E1851508F057C09CE1951508F0D7
:1046A00056C0E7E2E51508F055C0FBE3F51508F044
:1046B00054C025E9251508F053C021E080E480931B
:1046C000A50530E0A0ECB2E10E94F9314B015C019C
:1046D0006093A4037093A5038093A6039093A7030C
:1046E0008EE293E05CD6C501B4016AD6709288036D
:1046F00080918703882309F4A2CF43DE809187034A
:104700008093880380918503882309F480C12BC09E
:1047100024EC39E040E050E060E080E0BCD46F3F42
:1047200071058105910509F02CF4662319F06515D2
:1047300008F4562E4A9441109CCFA2CF5092080103
:10474000A4CF28E182E0BBCF2CE084E0B8CF28E002
:1047500086E0B5CF26E088E0B2CF24E080E1AFCF9D
:1047600022E080E2ACCF00913305809117048330C2
:1047700008F442C1833029F4A0907A03B0907B03FF
:104780000FC09BEF980F943048F4E82FF0E0EE0F45
:10479000FF1FED5EFE4FA080B18002C0A12CB12CA6
:1047A0009501205233402939384008F025C1209125
:1047B000060130910701A216B30620F4B09207015A
:1047C000A092060120910401309105012A153B05B4
:1047D00020F4B0920501A0920401843049F5809143
:1047E00070059AEF980F923008F4D7C090915F054A
:1047F000981789F080935F0560E070E08BE595E0A5
:104800000E94361090915F0580910B01981303C0B0
:1048100081E0809389038BE595E00E948213813DBE
:10482000974008F4BAC08091700580930B01B5C021
:1048300080911C04811121C0209104013091050157
:104840008091060190910701609159048A159B059A
:1048500068F4A81AB90AF901E81BF90BCF0170E056
:104860000E949431C5010E94943101C060E0061796
:1048700009F493C06093330590C08091120482FFC5
:104880004EC08091200590912105A816B90609F423
:1048900056C09501281B390B293C310508F44FC03F
:1048A00080911E0590911F05A816B90631F0A5014B
:1048B000481B590B483C5105E0F480905B059090F3
:1048C0005C05A0905D05B0905E0558EE850E53E046
:1048D000951EA11CB11C8BD2681579058A059B0514
:1048E00018F481E08093890310921F0510921E0531
:1048F00026C07DD260935B0570935C0580935D0557
:1049000090935E05809120059091210590931F055D
:1049100080931E05B0922105A092200510C0209121
:104920000401309105018091060190910701280F43
:10493000391F3695279581E02A153B0508F080E060
:104940009091120490FF10C0882321F081E08093A1
:104950008A0323C080918A03882319F081E0809321
:10496000890310928A0319C08823B9F080905B05EF
:1049700090905C05A0905D05B0905E0538D28616DB
:104980009706A806B90648F481E08093890364EF8E
:1049900071E08BE595E00E943610809189038823B1
:1049A00069F010928903809133058F5F80933305FE
:1049B00090915904981710F4109233051091330513
:1049C0000117D1F00E948F1380919B03811112C0B7
:1049D000AFEAB3E0EAEDF0E084918D933196811176
:1049E000FBCF8091B603180F1093B60363E088E005
:1049F0000E94651310929B0380918603811105C06C
:104A000081E08093860380938403109285038091D4
:104A10008603882309F4C5C0809184038111C1C035
:104A20001092860390915505992319F081E08093A7
:104A3000970320918C0380918E03222309F466C191
:104A400080FD0DC010929303816080938E031092BD
:104A500060051092610510926205109263058091C5
:104A60009303882309F43AC180919303882309F4BE
:104A70008FC08090F2039090F303A090F403B09065
:104A8000F503C501B4019F7725E33AEF4EE85CE3F7
:104A90000E949A300E94E32E2B013C012091FE03DC
:104AA0003091FF034091000450910104C501B4010D
:104AB0000E94D70B4B015C0120910204309103044A
:104AC00040910404509105046091F6037091F7033E
:104AD0008091F8039091F9030E94D70BA3019201F2
:104AE0000E949A302B013C019B01AC010E949A303C
:104AF00069837A838B839C83A5019401C501B401EA
:104B00000E949A309B01AC0169817A818B819C81E2
:104B10000E94192E0E9401310E944E2F60934F0572
:104B2000709350058093510590935205C501B401CF
:104B30009F770E944E2F70934D0560934C05C301E3
:104B4000B2019F770E944E2F70934B0560934A05E8
:104B5000A30192015058C501B4010E948C2E2091EE
:104B600048053091490506EA1FEF021B130B20EEA2
:104B70003EE245E652E40E949A300E944E2FC80160
:104B8000860F971F0E9476130E94A01380934E05F4
:104B90000E949516C701B6010E944A1A81E08093CF
:104BA000A80380916C0590916D05A0916E05B09160
:104BB0006F058C159D05AE05BF05B0F464E170E08E
:104BC0008CE695E00E944D10B2DB8091A80388230B
:104BD00059F080918403882339F08FE793E00E9495
:104BE0008213C39708F09FC0809168059091690572
:104BF000A0916A05B0916B058C159D05AE05BF05AA
:104C000028F564E670E088E695E00E944D1043D9EF
:104C10009091950381E08927809395038823B1F0D3
:104C20008091A303882369F08F5F8093A30383306F
:104C300068F08091EA038F5F8093EA031092A303E8
:104C400005C08091EA038F5F8093EA038091640539
:104C500090916505A0916605B09167058C159D053D
:104C6000AE05BF0508F075C064EF71E084E695E01D
:104C70000E944D1081E0809385038093940390916E
:104C8000EB039F5F9093EB03909191039827909390
:104C90009103992309F45DC080938B038091A00355
:104CA000882399F08091500390915103A091520371
:104CB000B09153030196A11DB11D809350039093B1
:104CC0005103A0935203B093530380912C03882384
:104CD000E9F180918303853068F138C0933008F49E
:104CE000C3CE8CE0EEEFF3E0A2EFB3E001900D92C3
:104CF0008A95E1F781E08093930310924405109226
:104D000045051092460510924705AECE80FFA7CE0E
:104D10002091A203222309F4A2CE109293038E7F46
:104D200080938E039CCE109284030E94A60610925C
:104D3000A8035ACF8091A6058F5F8093A605843083
:104D400010F00E9419061092830303C01092A6056A
:104D5000FACF2496E0E10C9430321F920F920FB6F6
:104D60000F9211242F933F938F939F93AF93BF93F1
:104D70008091A7059091A805A091A905B091AA05D9
:104D80003091AF0523E0230F2D3720F40196A11DAC
:104D9000B11D05C026E8230F0296A11DB11D209369
:104DA000AF058093A7059093A805A093A905B0939C
:104DB000AA058091AB059091AC05A091AD05B0918D
:104DC000AE050196A11DB11D8093AB059093AC0576
:104DD000A093AD05B093AE05BF91AF919F918F9118
:104DE0003F912F910F900FBE0F901F9018952FB7E6
:104DF000F8946091A7057091A8058091A9059091FC
:104E0000AA052FBF08953FB7F8948091AB05909104
:104E1000AC05A091AD05B091AE0526B5A89B05C027
:104E20002F3F19F00196A11DB11D3FBFBA2FA92F29
:104E3000982F8827820F911DA11DB11DBC01CD01A6
:104E400042E0660F771F881F991F4A95D1F7089592
:104E5000CF92DF92EF92FF92CF93DF936B017C01B1
:104E6000D2DFEB01C114D104E104F10471F0CBDF16
:104E70006C1B7D0B683E7340A8F381E0C81AD10813
:104E8000E108F108C851DC4FEDCFDF91CF91FF90E1
:104E9000EF90DF90CF900895019739F0880F991F18
:104EA000880F991F02970197F1F70895789484B5B8
:104EB000826084BD84B5816084BD85B5826085BD16
:104EC00085B5816085BDEEE6F0E0808181608083FC
:104ED000E1E8F0E0108280818260808380818160DF
:104EE0008083E0E8F0E0808181608083E1EBF0E0A6
:104EF000808184608083E0EBF0E08081816080834A
:104F0000EAE7F0E080818460808380818260808332
:104F10008081816080838081806880831092C1005D
:104F20000895833081F028F4813099F08230A1F027
:104F300008958630A9F08730B9F08430D1F480919B
:104F400080008F7D03C0809180008F7780938000E8
:104F5000089584B58F7702C084B58F7D84BD089590
:104F60008091B0008F7703C08091B0008F7D8093D7
:104F7000B0000895CF93DF9390E0FC01E65EF84F18
:104F80002491FC01E25DF84F8491882361F190E067
:104F9000880F991FFC01EA5AF84FC591D491FC0182
:104FA000E45BF84FA591B491611109C09FB7F894E3
:104FB0008881209582238883EC912E230BC0623058
:104FC00061F49FB7F8943881822F8095832388837A
:104FD000EC912E2B2C939FBF06C08FB7F894E881DD
:104FE0002E2B28838FBFDF91CF9108951F93CF93EE
:104FF000DF93282F30E0F901EA5FF84F8491F9013F
:10500000E65EF84FD491F901E25DF84FC491CC23EC
:10501000B1F0162F811185DFEC2FF0E0EE0FFF1FAE
:10502000E45BF84FA591B4918FB7F894EC9111110E
:1050300003C0D095DE2301C0DE2BDC938FBFDF9150
:10504000CF911F910895CF93DF93282F30E0F9017E
:10505000EA5FF84F8491F901E65EF84FD491F901C7
:10506000E25DF84FC491CC2389F081115ADFEC2F17
:10507000F0E0EE0FFF1FEE5BF84FA591B491EC91BD
:10508000ED2381E090E021F480E002C080E090E038
:10509000DF91CF910895A0E0B0E0E1E5F8E20C9453
:1050A000183290E0FC01E65EF84FA491FC01E25D4D
:1050B000F84F8491662311F0BA2F01C0B0E0890146
:1050C0009A013F7090E0880F991F8E5B984F4801BE
:1050D00059014FEF841A940AA40AB40AC12CD12CA6
:1050E0007601FC01C591D49168816A236B131AC0C3
:1050F0005FEFC51AD50AE50AF50AC814D904EA040F
:10510000FB0479F745C0460157016FEF861A960AEE
:10511000A60AB60AC016D106E206F30609F438C09C
:1051200075016401FC01C591D49168816A236B13F8
:10513000EACFB901A8014C195D096E097F096A011E
:105140007B0120E030E0A901FC01C591D491688188
:105150006A236B130AC02C153D054E055F05C1F08F
:105160002F5F3F4F4F4F5F4FEFCFA5E1B0E00E9461
:105170000832DC01CB014096A11DB11DBC01CD015F
:1051800024E096958795779567952A95D1F703C082
:1051900060E070E0CB01CDB7DEB7ECE00C943432C8
:1051A0008093110108958E3008F08E508770209101
:1051B000110190E4299F90011124822B80937C009F
:1051C00080917A00806480937A0080917A0086FDD5
:1051D000FCCF809178002091790090E0922B089587
:1051E000A0E0B0E0E6EFF8E20C941C326C01EB01B9
:1051F0007B01E40EF51E00E010E0CE15DF0561F046
:105200006991D601ED91FC910190F081E02DC601EC
:105210000995080F191FF1CFC801CDB7DEB7E8E037
:105220000C943832FB0101900020E9F73197AF016F
:10523000461B570BDC01ED91FC910280F381E02DC0
:1052400009950895EFCF0895DC01ED91FC9101904F
:10525000F081E02D09950895A1E2B0E0E2E3F9E2E2
:105260000C9418326C01142FE52FCB01022F19A2D8
:10527000223008F40AE07E0121E2E20EF11C802EC9
:10528000912CA12CB12C612F7E2FA50194010E949D
:10529000BB31029F1019112481E0E81AF1081A307D
:1052A00014F4105D01C0195CF7011083122FE32F75
:1052B000CA01232B242B252B31F7B701C601B2DFFE
:1052C000A196ECE00C9434322115310549F4DC014F
:1052D000ED91FC910190F081E02D642F09950895E6
:1052E000BBCF9A01AB0160E070E0EECFA0E0B0E090
:1052F000ECE7F9E20C941C328C016A017B01211568
:10530000310549F4DC01ED91FC910190F081E02D33
:10531000642F09951AC02A30310599F477FF10C01F
:105320006DE292DFEC0144275527BA014C195D0963
:105330006E097F092AE0C8018FDF8C0F9D1F05C011
:105340002AE0B701A601C80187DFCDB7DEB7E8E0E4
:105350000C9438329A01AB01770F660B770BC6CFEE
:10536000A5DD0E94551ECDE6DAE23FD92097E9F38C
:10537000B4D0FBCF9091C100892F807194FF0EC0F3
:105380009091360680913706981302C080E0089508
:10539000E0913706F0E0EC54FA4F80810895E6E39F
:1053A000F6E081818083E4E3F6E0808181830895E3
:1053B000FC011382128229E331E0318320830895B6
:1053C0009B01AC018091C10084FD1092C10010923C
:1053D00035061092340610923706109236062115C3
:1053E000310541055105F9F0211581EE38074105D8
:1053F000510501F182E08093C00060E079E08DE327
:1054000090E0B9D7DA01C9010197A109B109AC014E
:10541000BD017695679557954795942F852F809375
:10542000C5009093C40088E98093C10086E0809312
:10543000C20008951092C00090E180E0F0CF109279
:10544000C10008959091C100892F807194FF06C01A
:105450008091360690913706891B8F770895F2CF99
:1054600008959091C100892F807194FF14C090918C
:10547000360680913706981302C080E00895E091C7
:105480003706F0E0EC54FA4F8081909137069F5F29
:105490009F77909337060895E4CF08959091C100C7
:1054A00094FF15C0909134069F5F9370209135064C
:1054B0009217E1F3E0913406F0E0E055FA4F808373
:1054C000909334068091C10080628093C10008955A
:1054D000862FE4DF81E090E008950895DC01ED91EE
:1054E000FC910190F081E02D099508950F931F9391
:1054F000CF93DF938C01FB016491EF01219666232A
:1055000021F0C801EBDFFE01F7CFDF91CF911F91B2
:105510000F910895A0E0B0E0EFE8FAE293C79E0192
:10552000275F3F4F4F81588560E08D819E8112D06B
:10553000E2E0A4C7A0E0B0E0EFE9FAE283C79E0191
:10554000275F3F4F4F81588561E08D819E8102D05A
:10555000E2E094C7A4E1B0E0EFEAFAE263C77C01BD
:105560006C871A016901CE0101964C01F1012C856D
:1055700020FD059120FF01911F01002309F43DC387
:10558000053241F420FD059120FF01911F010532F4
:1055900061F405C00A3019F46DE0C7019FDF602F88
:1055A000C7019CDF56016501E1CF10E0512C712C41
:1055B000FFE1F715D8F00B3279F038F4003279F0CA
:1055C0000332A1F4F72DF0612EC00D3261F00033EB
:1055D00069F4272D21602DC0872D8260782E972DAC
:1055E0009460792E2AC0E72DE86015C077FC2EC0A4
:1055F00080ED800F8A3088F476FE06C02AE0129F84
:10560000800D1124182F19C09AE0599E800D112485
:10561000582EE72DE0627E2E10C00E3231F476FC5B
:10562000ECC2F72DF0647F2E08C00C3621F4272D34
:105630002068722E02C0083649F4F1012C8520FD45
:10564000059120FF01911F010111B2CF8BEB800F5B
:10565000833020F4872D8061005E07C08BE9800FC6
:10566000833008F056C1872D8F7E86FF16E08F733A
:10567000782E053611F4806403C0063619F480686C
:10568000782E02C01111115077FE06C01C3350F461
:1056900044244394410E08C0183040F0412C27E0C8
:1056A00017E006C04CE3442E27E002C0212F412C16
:1056B000560194E0A90EB11CF601608171818281CE
:1056C0009381042DA4010E94BA046C01098100FF9A
:1056D00002C003FF07C071FC08C072FE09C030E2BF
:1056E000632E07C02DE2622E04C09BE2692E01C02A
:1056F000612C802F8C7019F0611046C277C277FE42
:105700000FC04C0C04FF04C08A81813309F44A9411
:10571000141474F5F8E0F41578F588E0482E2CC0E0
:1057200076FC2AC0812F90E08C159D059CF02CEF13
:10573000C2162FEFD20674F0872D8068782E0AC02B
:10574000E2E0F0E0EC0FFD1FE10FF11D80818033FE
:1057500019F411501111F4CF77FE0EC04424439474
:10576000410E812F90E0C816D9062CF41C1904C0F4
:105770004424439401C010E077FE06C01C141D04AD
:1057800034F4C601019605C085E090E002C081E0D6
:1057900090E061100196112331F0212F30E02F5F4E
:1057A0003F4F820F931F252D30E08217930714F48B
:1057B000581A01C0512C872D897039F4552029F0D1
:1057C00060E2C7018BDE5A94F9CF662019F0662D8E
:1057D000C70184DE73FC07C0552029F060E3C701D0
:1057E0007DDE5A94F9CF77FE54C09C2D8D2DD7FEC7
:1057F00002C090E080E0692E782E1E861D86F6019C
:10580000E419F109F88BEF87C601861997099A8B7D
:10581000898B612F70E0EE27FF27E61BF70BFC8BCF
:10582000EB8BFFEF6F167F0619F46EE2C70156DEB1
:10583000C614D7047CF08F8598898615970554F493
:10584000ED85FE8589899A89E80FF91FE80DF91D14
:10585000618101C060E391E0691A7108ED85FE8500
:105860003196FE87ED878B899C89681679061CF036
:10587000C70134DED6CF6C147D0409F047C08A819D
:10588000863328F4853309F041C004FD3FC061E34D
:105890003DC06A81613309F00F7EC7011FDE11111F
:1058A00004C074FC13C065E612C06EE2C70116DEC8
:1058B00082E066246394680EF401E80FF11D6081B4
:1058C000C7010CDE1150862DA1F7EBCF65E4C701AF
:1058D00005DED7FC05C0C114D10439F404FF05C0AE
:1058E000D194C194D1086DE201C06BE2C701F6DD2D
:1058F00060E3EAE0CE16D1042CF06F5F9AE0C91A9B
:10590000D108F7CFC701EADD60E36C0DC701E6DD22
:105910004FC1033631F0033779F0033509F050C039
:105920001FC05601F2E0AF0EB11CF60180818983E1
:1059300001E010E0640111C05601F2E0AF0EB11CAD
:10594000F601C080D18076FE03C0612F70E002C0F6
:105950006FEF7FEFC60161D18C01F72DFF7713C088
:10596000560122E0A20EB11CF601C080D18076FE65
:1059700003C0612F70E002C06FEF7FEFC60142D11C
:105980008C01F72DF0687F2EF3FD16C0852D90E079
:105990000817190788F460E2C701A0DD5A94F6CF12
:1059A000F60177FC659177FE61916F01C70196DD85
:1059B00051105A94015011090115110589F7F8C0C9
:1059C000043611F0093661F5560177FE09C0F4E09E
:1059D000AF0EB11CF60160817181828193810AC092
:1059E000F2E0AF0EB11CF60160817181072E000C50
:1059F000880B990BF72DFF767F2E97FF09C09095A6
:105A00008095709561957F4F8F4F9F4FF0687F2EE7
:105A10002AE030E0A4010E945C04C82EC81849C0E6
:105A2000053731F4272D2F7E622E2AE030E025C085
:105A3000872D897F682E0F36C1F018F4083579F06C
:105A4000DCC0003719F0083721F0D7C0982F9061DB
:105A5000692E64FE0DC0E62DE4606E2E09C074FE52
:105A60000AC0F82FF6606F2E06C028E030E005C0AF
:105A700020E130E002C020E132E0560167FE09C0BB
:105A800084E0A80EB11CF60160817181828193814E
:105A900008C0F2E0AF0EB11CF6016081718180E0B8
:105AA00090E0A4010E945C04C82EC818F62DFF7770
:105AB0007F2E76FE0DC0272D2E7FD22EC11658F4D4
:105AC00074FE0BC072FC09C0872D8E7ED82E05C0D7
:105AD0000C2DD72C03C00C2D01C0012FD4FE0EC0FD
