:1000000066C400000C9415210C948B2188C4000058
:1000100086C4000084C4000082C4000080C40000C4
:100020007EC400007CC400007AC4000078C40000D4
:1000300076C4000074C4000072C4000070C40000E4
:100040000C94D6286CC400000C94EF0C0C94150D85
:1000500066C4000064C4000062C4000060C4000004
:100060005EC400005CC400001F193519A71AA71A46
:10007000A71A5B196819B719D219F119171A411A79
:100080004B1AA71AA71AA71AA71AA71AA71A551A16
:10009000084AD73B3BCE016E84BCBFFDC12F3D6CEF
:1000A00074319ABD56833DDA3D00C77F11BED9E455
:1000B000BB4C3E916BAAAABE000000803F05A84C35
:1000C000CDB2D44EB93836A9020C50B99186880801
:1000D0003CA6AAAA2ABE000000803F0664EC1B3C96
:1000E00004BC163E3BE5B93CC93C37C29E5A3D664E
:1000F0000498083EEA69AAAA3E000000803F030275
:10010000010053637265656E203000100E0F1123DD
:10011000317A7A7A7A7A0A0001000A006400E803E8
:1001200020284E5453432900202850414C290025B3
:10013000372E32660025362E3166009125372E3255
:100140006600A125372E3266002F010B688205005C
:1001500035018F68170600350114737A05003501E3
:100160001D73720500350112687605003B0190761B
:100170006A05004201A0766605003501BD616E0585
:100180000035015777620500350101661306004E00
:100190006F20696E7075742064617461212025750B
:1001A000FF00B8B900253469050700253469050644
:1001B000006F7665726C6F61640066726F7A656E4F
:1001C0000053747265616D002534690500FF20CE0F
:1001D000CECECE60CECECECE00FF20202024CB7C53
:1001E00040CB2400828081808180848081808180D6
:1001F00083808180818085808180818020C8C8C87B
:10020000C87EC8C8C8C820FF0020202024CBB8B9A9
:10021000CB24202020FF0025322E306600252034FC
:100220002E3066002520342E3166002520342E32F3
:1002300066005225332E306605005025332E306679
:1002400005004825332E306605004225352E3166DF
:1002500005004525352E3166004525342E30666D66
:1002600000734525352E31660032026E6911060095
:100270003A026E690F060042026E690D06004A02DC
:1002800054690B060052024168070600590258697A
:10029000FD050061024173030600209091002535A1
:1002A0002E316600432564253569FF002569002E3F
:1002B000253464001F1C1F1E1F1E1F1F1E1F1E1F14
:1002C00025303269FF003A253032693A0020207823
:1002D00020207920207AFF0020B3FF20B3FF20C523
:1002E000FF20B3FF20B300B2FFB2FFC6FFB2FFB2E0
:1002F00000B0B1B4B5B6B77B7D42616420436F6E88
:100300006669673A202564206D79203739004D6988
:100310006E696D4F53442D4578747261204D535072
:1003200020322E34FF756E692072393336204D4DE0
:10033000FF0015E71B00014A080002430800039371
:1003400014BC845F1426055F080007F60E00347F96
:100350000C03357B0C041818090006D01300089E06
:100360000E0009D71B0025E911008BF4100B0AAB16
:10037000080019920C000DCF135C114E1311160BCF
:100380001112125A11141752111313790902145130
:10039000087F0FB814BD2EFE09571BEB141D9CFFE0
:1003A0000F151DE511000E2815091E8F150021D609
:1003B000090020D70C002214118F24F9121F2BF8EA
:1003C000091F2CC80F002DA10F002F840F00A7BA02
:1003D0000D00A8B70D00A9B40D00AAB10D001FFAB9
:1003E0000B00269D0B0030B7070031F10800338366
:1003F0000900237B0E0032120E009A1A1200000030
:10040000000034040C0000160405990B380709BDE0
:100410000D00000000002C05680000001205663485
:1004200004251F0566380425F604663C04250405EA
:1004300066400425DF0500000000CF05420B0400E4
:10044000C00542440400B205620A0410A005620916
:1004500004108F05621104108205621204107205E7
:10046000000000006405624904115B056208041283
:100470004B055A4604133D057A450414AC04A70401
:10048000A2040000FF000100040000000300E1FFDF
:100490001F00F1FF0F00FCFF0400C0E0401F9CFFA5
:1004A0006400252E336600252E30660025332E315C
:1004B0006676003420285253534929204B003320BC
:1004C0002843757272656E7429204B0032202856BD
:1004D0003229204B002020202020202041003120E4
:1004E00028563129204B0020202050696E2053656A
:1004F0006E736F727300526F6C6C2020696E204EA9
:1005000054534300506974636820696E204E5453FD
:100510004300526F6C6C2020696E2050414C00509B
:100520006974636820696E2050414C002020486F38
:1005300072697A6F6E20616E676C657300566572C2
:10054000746963616C206F66667300486F72697AC4
:100550006F6E74616C206F66667300436F6E7472A9
:100560006173740053637265656E7320436F756EBB
:100570007400202053637265656E20706172616D36
:10058000730052535349207761726E696E6700425F
:1005900061747420636861726765207761726E00B0
:1005A0004F7665727370656564207761726E696EEF
:1005B00067005374616C6C207761726E696E6700BE
:1005C000426174742032207761726E696E670042F6
:1005D000617474657279207761726E696E6700204C
:1005E00020204F5344207365747570002E253032DF
:1005F000640043256920001B060806030616061240
:10060000060D06686F726900616E676C00706F732B
:10061000680072746C00616C7468006163726F00D2
:100620002E0628063B06350625392E35660025316F
:10063000302E3666002530356C64002530366C640B
:1006400000BC06B306A8069B069006830677066CD8
:10065000066006550646656E636520466172210098
:1006600046656E63652048696768210046656E636C
:1006700065204C6F772100426174742042206C6FBA
:1006800077210048696768205653706565642100CA
:10069000204C6F7720527373692100426174746536
:1006A0007279204C6F7721004F76657253706565C3
:1006B00064210020205374616C6C21004E6F204730
:1006C000505320666978210025342E306600253489
:1006D0002E31660025342E32660025352E32660016
:1006E00025326900253369002534690025332E3011
:1006F000660000013F0501024305020347050304AC
:100700004B0505004F050A0653050B075705130057
:100710005B0552B80E4085EB51401966BB00128054
:100720000C1CA0141E666666400000803F100CBAC8
:10073000000A00001BE8031AE70400000000DE04C2
:1007400073800225D50473840227CC04730000252E
:10075000D50473000027BE0473000026D50473007F
:100760000027B30473000026D5047300002700009F
:100770000007000201000003040600000000000062
:10078000000001020408102040800102040810202B
:1007900001020408102004040404040404040202F6
:1007A000020202020303030303030000000023000C
:1007B0002600290000000000250028002B00000072
:1007C0000000240027002A006E616E00696E66003A
:1007D00000407A10F35A00A0724E18090010A5D4F8
:1007E000E80000E87648170000E40B54020000CA55
:1007F0009A3B000000E1F50500008096980000009B
:1008000040420F000000A0860100000010270000F9
:100810000000E803000000006400000000000A007F
:10082000000000000100000000002C76D888DC6782
:100830004F0823DFC1DFAE59E1B1B796E5E3E453DA
:10084000C63AE651997696E8E6C28426EB898C9BF7
:1008500062ED407C6FFCEFBC9C9F40F2BAA56FA597
:10086000F490055A2AF75C936B6CF9676DC11BFC19
:10087000E0E40D47FEF520E6B500D0ED902E030034
:10088000943577050080841E080000204E0A000081
:1008900000C80C333333330F986E12831141EF8D40
:1008A0002114893BE65516CFFEE6DB18D1844B3880
:1008B0001BF77C1D901DA4BBE424203284725E22B1
:1008C0008100C9F124ECA1E53D272807F524112476
:1008D0001FBECFEFD8E0DEBFCDBF11E0A0E0B1E09A
:1008E000EAE3F9E602C005900D92A633B107D9F705
:1008F00026E0A6E3B1E001C01D92A63BB207E1F7F6
:1009000014E0C7E6D4E004C02197FE010E942F3412
:10091000C536D107C9F70E94D92B0C94293070CB6A
:10092000FA01AA27283051F1203181F1E8946F9320
:100930006E7F6E5F7F4F8F4F9F4FAF4FB1E03ED0C6
:10094000B4E03CD0670F781F891F9A1FA11D680F64
:10095000791F8A1F911DA11D6A0F711D811D911D97
:10096000A11D20D009F468943F912AE0269F11240C
:100970003019305D3193DEF6CF010895462F477070
:10098000405D4193B3E00FD0C9F7F6CF462F4F70CB
:10099000405D4A3318F0495D31FD4052419302D029
:1009A000A9F7EACFB4E0A6959795879577956795CF
:1009B000BA95C9F700976105710508959B01AC01CF
:1009C0000A2E06945795479537952795BA95C9F7F6
:1009D000620F731F841F951FA01D0895283008F013
:1009E00027E03327DA01990F311D87FD91600096CA
:1009F0006105710539F432602E5F3D9330E32A952D
:100A0000E1F708959F3F30F080387105610509F0E6
:100A10003C5F3C5F3D93913008F08068911DDF930F
:100A2000CF931F930F93FF92EF92192F987F969574
:100A3000E92F96959695E90FFF27E65DF74F9927E1
:100A40003327EE24FF24A701E701059008940794BB
:100A500028F4360FE71EF81E491F511D660F771F39
:100A6000881F991F0694A1F70590079428F4E70EB4
:100A7000F81E491F561FC11D770F881F991F661F3B
:100A80000694A1F70590079428F4F80E491F561F05
:100A9000C71FD11D880F991F661F771F0694A1F7E6
:100AA0000590079420F4490F561FC71FD81F990FB0
:100AB000661F771F881F0694A9F7849110951770F9
:100AC00041F0D695C79557954795F794E7941A95B1
:100AD000C1F7E0EDF7E068941590159135916591B7
:100AE000959105907FE27395E118F10A430B560B3F
:100AF000C90BD009C0F7E10CF11E431F561FC91FD7
:100B0000D01D7EF4703311F48A95E6CFE89401503D
:100B100030F0080F0AF40027021708F4202F23955D
:100B2000022F7A3328F079E37D932A95E9F710C0F4
:100B30007D932A9589F6069497956795379517952D
:100B40001794E118F10A430B560BC90BD00998F022
:100B500023957E9173957A3308F070E37C9320138C
:100B6000B8F77E9170617D9330F0839571E37D934A
:100B700070E32A95E1F71124EF90FF900F911F91F8
:100B8000CF91DF91992787FD9095089580E0089592
:100B900080E0089580E0089508956FE070E080E0BF
:100BA00090E00C945129682F80E00C94530F882317
:100BB00011F080E401C080E090911803981741F093
:100BC000809318035E98809118038C61ECDF5E9A25
:100BD00008955E988091030481FD06C0809102040F
:100BE00083FF1AC081E019C080EA0E945E0F80FF77
:100BF00006C081E0DCDF80910204886007C081FFCD
:100C000008C080E0D4DF80910204877F80930204D3
:100C100005C082FDE3CF02C080E0C9DF5E9A08957F
:100C2000CF93DF93E0910804E43008F0E0E0F0E0D7
:100C3000E250FF4FC49180E1D1E0D80F6C2F0E94A9
:100C4000530F8D2FD032C1F7DF91CF9108955E9869
:100C5000E7DF6091460482E00E94530F60914504F3
:100C600083E00E94530F5E9A08955E988CEE0E9476
:100C70005E0F682F6F7E8CE60E94530F62E18CE05E
:100C80000E94530F809118038C638DDF0E94961889
:100C9000809118038C6187DFDACFCF93DF935E9862
:100CA000C0E1DFEFC15049F48091180382607BDF1F
:100CB00074DFDBDFDF91CF91089580EA0E945E0F41
:100CC000877091F784E0815031F0DEBD0DB407FEEE
:100CD000FDCF9EB5F8CF61DFE5CF61E086E00E94F1
:100CE000E32962E082E00E94E32961E08AE00E9459
:100CF000E32961E08AE00E941F2ACFDF6ADFB5CFD7
:100D00002091190380911A0390E03EE1239F800D0A
:100D1000911D1124909337018093360108958F71AE
:100D200080931A036F7060931903809118038034C5
:100D300011F0673008F4E4CF635060931903FBCFE0
:100D400090911903690F90911A03890F9EE1699F91
:100D5000B0011124680F711D709337016093360143
:100D600008952091360130913701203E91E03907F6
:100D700058F4A9014F5F5F4F5093370140933601FC
:100D8000F901E85CFE4F808308958F3F31F4809134
:100D900019038F5F80931903B3CFE3CF862FF5DF5D
:100DA00081E090E00895CF93C42FCADF8C2FEDDF50
:100DB000CF9108955E9860E085E00E94530F60E057
:100DC00086E00E94530F61E084E00E94530F5E9A18
:100DD000E8E3F1E080E25E9890819EBD0DB407FEED
:100DE000FDCF9EB581935E9A93E0E831F90798F3C1
:100DF0005E988FEF8EBD0DB407FEFDCF8EB55E9A67
:100E00000895A1E0B0E0E7E0F7E00C945E341CBC8C
:100E10008F7280658CBD8DB581608DBD8DB58983E8
:100E20008EB589832196E2E00C947A3461E08DE0FE
:100E30000E94E32961E08BE00E94E32960E08CE0FE
:100E40000E94E32961E08AE00E94E32980E0D9CF93
:100E50008BE193E0EBCFE82FF0E0EE0FFF1FE351C3
:100E6000FA4F20813181662329F040E253E088E97E
:100E700098E004C048EE53E080ED97E02417350772
:100E800080F0241B350B841B950B65E070E00E94FD
:100E9000CA33C9010E94CA33862F653018F084E036
:100EA000089580E00895ADEEB5E0EBE8F5E08081CF
:100EB0009181883E934028F48D919C911197918364
:100EC00080833296129685E0E339F80781F708951A
:100ED00090E0880F991FDC01A351BA4FFC01E55740
:100EE000FA4F8D919C9120813181821B930B089543
:100EF000E0918A0535E0E39FF0011124EC5FFB4FA0
:100F00009491915020910A0160914C0370914D038E
:100F100087FF03C0222339F004C0882311F029176A
:100F200021F0280F03C0292F01C020E0FB0136E08B
:100F3000239FE00DF11D1124339645915491452BCB
:100F400039F320930A010895692FE9CE7F936F93B7
:100F50009F938F9382E293E09F938F930E94C32C81
:100F60000F900F900F900F900F900F900895A0E0AA
:100F7000B0E0EDEBF7E00C945834D92F0091440326
:100F800010914503209146033091470380919003CF
:100F9000882309F473C082EBE82E87E0F82EE4E69C
:100FA000F0E090E9C92EDD24D394C701837099271E
:100FB000892B81F4C701BF010E94CA33892B31F408
:100FC000C701B6010E94CA33892B21F461E08EE685
:100FD00091E003C060E08DE691E0A0E0B0E008178A
:100FE00019072A073B0718F440E050E008C0081B27
:100FF000190B2A0B3B0B8FEFE81AF80AD6CFC42F38
:10100000FA01EC54FD4FE4914130510511F46111A6
:10101000EF5F8E2F90E0A0E0B0E0081719072A07D5
:101020003B0750F0081B190B2A0B3B0B4F5F5F4F20
:101030004C30510521F7CCE08D2F0F5F1F4FD0E0D2
:1010400086FF0EC0B8018DEE95E080DFBE016F5FB8
:101050007F4F8CEE95E07ADFB7018FEA92E00DC00A
:10106000B70188EE96E072DFBE016F5F7F4F8CEEB6
:1010700095E06CDFB8018CEE95E068DFCDB7DEB7A8
:10108000E8E00C9474346091DE037091DF038BEA26
:1010900091E05CCF6091DC037091DD0385EA91E023
:1010A00055CFE7EFF5E08591949160E070E04EDF79
:1010B00080917C03882311F086E867CE08951F9302
:1010C000CF93DF93C82F192F8091C005823019F07C
:1010D00020F0DFE003C0DFE101C0DAE2C095CC1F01
:1010E000CC27CC1F11F016FF0DC06091C10570E038
:1010F00080EE96E02BDFCC2341F016FF06C08D2F4B
:1011000044DE03C08D2F41DEF0CFDF91CF911F91E0
:101110000895CF93DF9388E838DECCE0D1E0888172
:1011200034DE898132DE8EE830DEDF91CF910895A2
:10113000CF93813110F08051FCCF811101C080E14B
:10114000880FCEEFC80F80E98C0F1FDE81E98C0F6E
:101150001CDECF910895CF9380918303882361F0A3
:10116000C92F8091B705E4DFC6FF06C06091B705BF
:1011700070E084EE96E0EADECF910895EF92FF9260
:101180000F931F93CF93DF938C01D62FC42F6CE363
:1011900070E00E94CA337C0184EE96E0D7DECC2357
:1011A00041F0B70186EC92E0D1DECF776C2F70E092
:1011B00010C0DD2331F080918103882311F080E29B
:1011C00001C08AE3E2DDC8016CE370E00E94CA332B
:1011D000BC0180EC92E0BADECDB7DEB7E6E00C945D
:1011E0007634CF93809190038823D9F0C92F6091F2
:1011F00040037091410380914203909143032CE39B
:1012000030E040E050E00E94F133DA01C901C5FF4F
:1012100004C0462F406860E003C06C2F607440E05B
:10122000ADDFCF91089540E060E0A8CF85E2ADCD7D
:101230001F93CF93DF93382F192F2091E2052F555D
:10124000C091E405263008F046C0D0E080E09C2F35
:1012500064E670E00E94CA33CB016138710540F04A
:1012600029E820930C0180589109EDE0F1E012C0CB
:101270002DE820930D016231710550F42091810316
:10128000222331F020E220930C0120930D0109C0AC
:10129000ECE0F1E06AE170E00E94CA332DE8261B21
:1012A000208337FF36DF16FF06C0BE0180EE96E0D2
:1012B0004DDEBCDF1AC06091130670911406809158
:1012C0001506909116060E94773188EE96E03EDE74
:1012D00081E05BDD0AC024E6C29FC00111246FEFEC
:1012E00070E00E94DE33EB01B1CFDF91CF911F910F
:1012F000089560E070E084EE96E028DE97CF80E20B
:1013000044CD8FEF42CDEF92FF920F931F93CF9377
:1013100006E213E0C0E096FD1CC089E0E82EF12C47
:10132000F801819191918F018C549440B7010E94F2
:10133000CA338DEE95E00ADEC13011F4E2DF01C060
:10134000DEDFCF5FC43061F70FC0D9DFCF5FC430BD
:1013500059F0F801619171918F0188EE96E0F6DD08
:10136000C13099F7CEDFF2CFCF911F910F91FF904F
:10137000EF900895CF93C22F7F936F935F934F9316
:101380009F938F9382E293E09F938F930E94C32C4D
:101390008DB79EB708960FB6F8949EBF0FBE8DBF4F
:1013A000CC2311F08C2FF1DCCF910895CF93809155
:1013B000EB059091EC05FC013A96C4913296E491CC
:1013C000FC013D966591749180E090E00E94A83107
:1013D0002AE037ED43E25CE30E94C332AB01BC017B
:1013E0002C2F8EE992E0C6DFCF91089520E0C2CF86
:1013F00040E050E0BA0184ED96E0F8CF4091FE0362
:101400005091FF0360910004709101048CEE96E00E
:10141000EDCFABE0B0E0EFE0FAE00C944E34809119
:101420001803803489F48090380490903904A09097
:101430003A04B0903B04C0903404D0903504E0905E
:101440003604F090370410C080904004909041041E
:10145000A0904204B0904304C0903C04D0903D045E
:10146000E0903E04F0903F048091DE039091DF0312
:10147000BC01990F880B990B0E94AA319B01AC010A
:10148000C701B6010E94C3326B017C0180916D03DC
:1014900080FF04C0F7FAF094F7F8F094C701B601A2
:1014A0000E947731AB016A35710540F09B012D54E4
:1014B0003F4F2935310580F477FDA90147345105A7
:1014C0002CF54A31510534F54A30510540F128E0F8
:1014D0002A8713EF30ED27C06B3571051CF0AB0187
:1014E000435B5109CA0157FF03C09195819591094A
:1014F00087349105D0F48A319105E0F40A9700F120
:1015000048E04A8715EF82EE8B871FC01A861DECD4
:1015100091EC14C0E7E0EA8718EFF9ED15C029E077
:101520002A871DEC36EC3B8710C01A861DEC41EC77
:101530004B870BC087E08A871BEF9BEE9B8705C01C
:10154000E9E0EA871DECF6ECFB8727EA32E94BE29B
:101550005CEBC501B4010E94C3324B015C0125E381
:101560003AEF4EE85CE3C701B6010E94C3326C83D8
:101570007D838E839F839CE0292E312C19822A85BE
:10158000022E000C330B398728878981C82E880FDB
:10159000DD086091DC037091DD036C0D7D1D072E6D
:1015A000000C880B990B0E94AA31A50194010E949E
:1015B000C3320E946B3320E030E044EB52E40E94DF
:1015C000C3322B013C0120E030E0A9010E94B83277
:1015D00020E030E040E05FE387FD0BC0C301B201D3
:1015E0000E9442300E9477317B01EDE2EE0EF11C49
:1015F0000AC0C301B2010E9441300E9477317B01D1
:10160000FDE2EF0EF11C0DE00219222733272C1901
:101610003D093B832A83802F90E0281639060CF47D
:101620006FC06C817D818E819F810E946B332B0105
:101630003C013CE0039F602D11246E54062E000CEB
:10164000770B880B990B0E94AA319B01AC01C30157
:10165000B2010E94C3320E947731F701E60FF71FF3
:10166000CF0101978A35910508F048C062E170E02A
:101670000E94DE333B014A85442379F031962EEEF9
:101680002603C001279F900D1124E80FF91FF7FDD5
:101690003196F595E7955E2E01C0512C64E06619F0
:1016A0008FEF800F4DDB3981332379F0053069F4FA
:1016B000B601D7FE02C06A817B814AE050E082E237
:1016C00093E00E94D32B06E003C08B85850D5DDB84
:1016D0005520A1F0252D30E08885998528173907F8
:1016E0006CF094E06916710449F0E52DE10F4AEFC2
:1016F0004E0F63E066198FEF800F55DB0F5F8BCFC6
:10170000F7FE0BC0E981E25EE98334E0231A310879
:1017100044E02416310449F038CFFBE5EF16F1041C
:1017200024F029812E512983F0CF2B96E2E10C94ED
:101730006A3466E089E0F3DA6CCE0F931F93CF939F
:10174000DF9320919F03222309F44DC040919D0314
:1017500050919E032091A3053091A4054217530791
:1017600009F441C0692F90919C032AE1291B27FDB0
:101770000AC02695820FD3DA6FE973E082E293E024
:101780000E944B2B32C066FD1CC0219530E0809139
:10179000DA0390919A03891B90E0B901660F771FD5
:1017A0000E94DE334091930341110DC0009729F050
:1017B000215031098217930731F421E020939303DC
:1017C00002C080E090E0EC01C156DC4F8E01065E65
:1017D0001F4F8991811102C092DD07C0D6DAC01770
:1017E000D107B9F7F9CF10929F03DF91CF911F91E5
:1017F0000F910895292F8091A3059091A4058F73CF
:101800009927029710F026FF06C063E174E082E298
:1018100093E00C944B2B08950E94413020EC3BE662
:1018200049ED57E40C94C332CF92DF92EF92FF92CE
:10183000CF93C42F6B017C01E894F7F8C701B60180
:101840000E947731072E000C880B990B0E94AA3159
:101850009B01AC01C701B6010E9441309B01AC0164
:10186000C11105C060E074E284E799E404C060E05F
:1018700070E583EC97E40E94C3320E947731CF91E8
:10188000FF90EF90DF90CF900895CF93DF93282FB4
:1018900086FB442740F9E42FF0E0DB016D917D9158
:1018A0008D919C91EE0FFF1F25FF1AC0EC5DF94F43
:1018B000C591D491B9DF9F938F937F936F93DF93FB
:1018C000CF9382E293E09F938F930E94C32CADB796
:1018D000BEB718960FB6F894BEBF0FBEADBF08C016
:1018E000E05EF94F25913491AB01BC01C9017EDD69
:1018F000DF91CF91089562EF73E0892FC6CF6EEE2E
:1019000073E0892FC2CFCF93C42F28EE33E040E09D
:1019100050E00E94F133DA01C90140E06C2F2EDC67
:10192000CF910895492F40746091CF057091D005F3
:101930008091D1059091D205E6CFCF93C82F6091C9
:10194000A6047091A7048091A8049091A9040E9414
:101950007731615071096F30774280F4C7FD02C062
:1019600086E113DA4091A6045091A7046091A8047F
:101970007091A90421E088EC96E0FCDCCF910895F9
:101980007F936F939F938F9384EA92E09F938F93BB
:1019900082E293E09F938F930E94C32C8DB79EB7F2
:1019A00008960FB6F8949EBF0FBE8DBF08950F9393
:1019B0001F93CF93DF930DEE15E080E090E0F801E8
:1019C000619171918F01EC012196CE01D9DFCE0199
:1019D0002897A9F7DF91CF911F910F9108951F923A
:1019E0000F920FB60F9211242F938F939F93EF9323
:1019F000FF939091C6008091B4068F5F8F772091FE
:101A0000B506821741F0E091B406F0E0EE5CF94FC4
:101A100090838093B406FF91EF919F918F912F91C6
:101A20000F900FBE0F901F9018951F920F920FB638
:101A30000F9211248F939F93EF93FF939091B3068E
:101A40008091B206981779F0E091B306F0E0E25D7C
:101A5000F94F80818093C6008091B3068F5F8370B9
:101A60008093B30605C08091C1008F7D8093C10033
:101A7000FF91EF919F918F910F900FBE0F901F904C
:101A80001895EF92FF920F931F93CF93DF938C01E2
:101A9000040F151FEC017B01E81AF90AC017D107E2
:101AA00039F0C7018C0F9D1F0E9485348993F6CFB2
:101AB000CDB7DEB7E6E00C947634A8E1B0E0E3E61B
:101AC000FDE00C945D34182F88E1189FB0011124BB
:101AD00060587D4F48E150E0CE010196D2DFE12F02
:101AE000F0E0EE0FFF1FE55AFC4F6081718180E04E
:101AF00090E00E94A83129813A814B815C810E944B
:101B0000C3322D813E814F8158850E9442309F9380
:101B10008F937F936F93CE0109969F938F9382E269
:101B200093E09F938F930E94B32C0FB6F894DEBF7F
:101B30000FBECDBF6896E3E00C947934982F262F22
:101B400030E0F901E95AFC4F87FD09C0862F41E0DA
:101B50004083F901ED5AFC4F90749083AECF108210
:101B6000089563E0892FEACF62E0892FE7CF61E033
:101B7000892FE4CF60E0892FE1CFCF936AE086E040
:101B8000CED8C0E08C2F99DFBCDBCF5FC430D1F75B
:101B9000CF910895A0E0B0E0E0EDFDE00C94593461
:101BA000EB017C018B01040F151FC017D10771F0E9
:101BB000F701D1907F01CE010E9485348D1521F06F
:101BC0006D2DCE010E948D342196EFCFCDB7DEB7BB
:101BD000E7E00C947534EF92FF921F93CF93DF935D
:101BE000182F7B01C0E0D3E0CE010E9485348F3FE7
:101BF00071F0811103C0112351F01150111102C075
:101C0000F70109952196C038F3E0DF0769F7DF9106
:101C1000CF911F91FF90EF900895BC0182E293E075
:101C20000C949F2C1F93CF93DF93182FD92F87FDF0
:101C30000EC096FF04C0C0E088ED92E003C0C1E092
:101C400087EE92E0EADF812F9D2F7ED901C0C0E0B0
:101C500080911B0690911C06A0911D06B0911E0656
:101C6000BC01CD0190589B01AC010E9442300E9402
:101C7000773180916D0382FF05C0CB016CE370E08A
:101C80000E94DE33D5FF05C0CB016AE070E00E9400
:101C9000DE33D4FF06C077FF02C06F5F7F4F7595BC
:101CA000679516FF08C077FF02C06D5F7F4F75957F
:101CB0006795759567959B01235D3F4F37FF02C080
:101CC0002F5F3F4FC9019595879569E070E00E94AD
:101CD000DE3365302CF467FD06C04FEC481B05C0B1
:101CE0004EE764E002C040E660E08C2F5CD8DF91F4
:101CF000CF911F910895CF93DF9387FD03C08DECA3
:101D000092E08BDFC4E3D3E04991599169917991D5
:101D10008CEE96E06BDB83E0C034D807A9F7F1DAEC
:101D2000CEE2D3E06991799184EE96E00FD983E019
:101D3000C433D807B9F7DF91CF910895FF920F937D
:101D40001F93CF93DF93F92E8095D82FDD1FDD27CA
:101D5000DD1F092F0072DD2339F096FD05C0002339
:101D6000A9F189E092E059DF83EC0FD82091B10509
:101D70003091B20548E1429FC001439F900D11246C
:101D80000C9668E671E00E94DE3364507109C62F3C
:101D900077FF02C0C8E1C60F011102C019E001C0FF
:101DA0001AE0EC2FF0E0EC51FE4F84910E94C50642
:101DB000CF5FC83108F0C0E0115099F787E80E9462
:101DC000C506DD2371F0F6FC04C00BC08CEF91E07A
:101DD000CACF011103C08DEC91E002C089ED91E002
:101DE0001CDFCDB7DEB7E5E00C9477341F93CF93BB
:101DF000DF934091F2035091F3036091F4037091EB
:101E0000F503452B462B472B69F44091EE03509187
:101E1000EF036091F0037091F103452B462B472BA4
:101E200009F43DC094FD02C01FEF01C010E2EC01B7
:101E3000809181038823D9F080918D038A3048F006
:101E400081EC91E0EADE812F0E94C5068AEB91E0E9
:101E50000CC080918E038A3050F081EC91E0DDDE81
:101E6000812F0E94C50681EB91E0D7DE18C0C09596
:101E7000CC1FCC27CC1F19F083E00E94C5066EEE64
:101E800073E08D2F02DD812F0E94C506CC2319F04F
:101E900084E00E94C50662EF73E08D2FF6DCDF91CF
:101EA000CF911F9108958EBD0DB407FEFDCF8EB565
:101EB0006EBD0DB407FEFDCF8EB508958EBD0DB479
:101EC00007FEFDCF8EB58FEF8EBD0DB407FEFDCFA3
:101ED0008EB508958AEA90E00C9475290E944B2CE7
:101EE000811101C0F7CF089595FB222720F994FDB9
:101EF00002C090E001C092E0922B86FD02C080E01B
:101F000001C084E0892B08951F93CF93DF93182F8E
:101F1000EBDF8C5FC82FD0E017FD06C0BE016F5FFE
:101F20007F4F82EF95E012D8CC0FDD1FC351DA4FFF
:101F30006881798188EE96E009D8DF91CF911F9171
:101F400008951F93CF93DF93182FC92FCDDFD4E0CF
:101F5000D80F17FD08C06D2F70E06F5F7F4F8CEAC0
:101F600092E00E94A6076C2F60748D2F0E942B07B1
:101F7000D82FC0E0CD1302C081E801C080E80E94E4
:101F8000C506CF5FC530B1F7DF91CF911F9108959E
:101F90001F93CF93DF93182FC92FA6DFD4E0D80F5C
:101FA00017FD08C06D2F70E06F5F7F4F82EF95E0E7
:101FB0000E94A6076C2F60748D2F0E942B0765EC82
:101FC00076E009DEDF91CF911F91089596FB2227DD
:101FD00020F930E095FD03C080E090E002C082E08F
:101FE00090E0282B392B215031092330310528F47A
:101FF000F901EE5EFE4F8081089580E00895CF9252
:10200000DF92EF92FF92CF93DF93D82FC92FDEDFBD
:1020100080930901C7FD46C0C4FF2AC081E08093B8
:10202000880329E838E848E85CE360911B06709172
:102030001C0680911D0690911E060E94C3326B0102
:102040007C010E9477319B0177FF04C02227332750
:10205000261B370B2A303105FCF4D6FD03C08BE27A
:1020600092E002C084E292E028E1B701A60112C02A
:1020700010928803E091EB05F091EC0572962491A3
:1020800040911B0650911C0660911D0670911E0622
:102090008DE192E06FD906C0243631051CF38DE145
:1020A00092E0E2CFDF91CF91FF90EF90DF90CF9061
:1020B0000895A2E0B0E0EFE5F0E10C945E34909179
:1020C0009B05682F70E0660F771F80E8989F600D72
:1020D000711D112442E050E0CE010196D2DC8981CD
:1020E0009A812296E2E00C947A340F931F93CF9357
:1020F000DF93EC018B010E942029DC01CB01800FD2
:10210000911FA11DB11D88839983AA83BB83DF9191
:10211000CF911F910F9108959B01FC014081518146
:1021200062817381420F531F611D711D4083518372
:10213000628373830895E091EB05F091EC0534968A
:1021400065917591859194910895CF92DF92EF9268
:10215000FF92CF93DF936B017C01EDDFA701960126
:102160000E94C3326B017C0120E03CE34CE156E469
:102170000E940831C091EB05D091EC05FE011816C4
:102180003CF039962491B701A60188EC96E024C072
:1021900070966591749180E090E00E94A8319B0157
:1021A000AC01C701B6010E940F316B017C010E9496
:1021B00077316A30710534F06436710534F088EC9B
:1021C00096E005C084ED96E002C08EEC96E0FE013C
:1021D0003F962491B701A601CDD8DF91CF91FF9012
:1021E000EF90DF90CF90089596FB882780F9809339
:1021F000920380918303882369F097FD0BC060915F
:10220000B8057091B9058091BA059091BB050E94FF
:10221000AA319BCF08956091AD057091AE05809174
:10222000AF059091B00591CF609117067091180697
:102230008091190690911A0688CFE091EB05F091F4
:10224000EC0565917591859194910895CF92DF92F7
:10225000EF92FF921F93CF93DF93EC016A017B0112
:10226000122FEBDFA70196010E94C332112341F028
:1022700024EE38E34EE85EE30E94C33228E106C054
:10228000E091EB05F091EC0538962491AB01BC018F
:10229000CE0170D8DF91CF911F91FF90EF90DF902A
:1022A000CF900895292F207440E050E0BA018CEEC1
:1022B00096E0CCCF292F20744091A5055091A6051A
:1022C0006091A7057091A8058CEE96E0BFCFA0E0C5
:1022D000B0E0EDE6F1E10C945834EC01D62EFE01AD
:1022E000059114910115110509F46AC0FE01329699
:1022F000849181110E94C506FE0133968491319626
:10230000E590F490893691F030F4813609F43CC0C0
:102310008836C1F004C08337E9F0863719F150E2FE
:10232000C52E60E070E080E89FE337C0F701608170
:102330007181072E000C880B990B0E94AA3140E294
:10234000C42E32C0E091EB05F091EC053996C490B3
:10235000F2DE23C0E091EB05F091EC053896C490D5
:102360006CDF1BC0E8DE20918803211114C0E091CE
:10237000EB05F091EC057296C49020E030E040E768
:1023800052E40E94C33209C031E4C32E6AE077ED03
:1023900083E29CE302C028E1C22EF7012081318153
:1023A000428153810E94C3322C2DAB01BC01C80174
:1023B0000E94BA090E9481092796DA94D1108FCF22
:1023C000CDB7DEB7E8E00C94743467E089E692E0BC
:1023D0007ECFCF93DF93D82FC92F0E94A40788E028
:1023E0000E94C5066091CF057091D0058091D105FE
:1023F0009091D20540E087DA6AE089E491E067DFF6
:10240000C6FF05C06C2F8AE08D0F0E948F0683E007
:102410000E94C5066EEE73E080E037DA0E94810903
:1024200084E00E94C50662EF73E080E02EDADF915F
:10243000CF9108951F93CF93DF9380917B038823DF
:1024400009F4C1C010927B03F8DE6091E905709138
:10245000EA0580918703882351F021E090E0809184
:10246000C005823008F020E0C22FD92F02C0C0E0A2
:10247000D0E0E0910604E11108C080910A048823AD
:1024800021F08091800380FDC2603091E4052091AD
:10249000E20540910B04442369F0CB0164E670E04F
:1024A0000E94CA336115710529F0842F90E06817E6
:1024B0007907E4F0409111044423C9F054E6359FB4
:1024C000C0011124322F27FF02C031E0320F3595B1
:1024D000830F911D37FD9A95622F220F770B0E9473
:1024E000DE33842F90E0681779070CF4C860809180
:1024F000100480FD0BC08091120490E02091D40361
:102500003091D5032817390708F4C06180911B0664
:1025100090911C06A0911D06B0911E06E130A1F419
:1025200010910A04112381F0BC01CD019F770E9414
:102530007731CB016AE070E00E94DE33812F90E0BA
:10254000861797070CF4C0628091E7059091E80523
:1025500020914404222371F064E670E00E94CA33A3
:102560006115710539F0822F90E06817790714F42E
:10257000C06405C0209719F410921D0324C09091E7
:102580001D0381E09111890F80931D0380911D032C
:102590004FEF480F21E030E002C0220F331F4A9571
:1025A000E2F78B3018F081E021E030E0A9014C2304
:1025B0005D23452B21F48F5F220F331FF2CF8093D1
:1025C0001D038917C9F2E0911D03EE2341F0F0E0ED
:1025D000EE0FFF1FE15CF94F859194911EDBDF91B7
:1025E000CF911F9108952FE632E143E85AE30C940E
:1025F000C332CF92DF92EF92FF92CF93DF93C091DD
:10260000AA04D091AB0497DD6B017C012AEF2C9FCB
:10261000C0012D9F900D1124BC01990F880B990BBF
:102620000E94AA319B01AC01C701B6010E94C332CE
:10263000E091EB05F091EC05A8974CF03F96C49122
:10264000D2DFAB01BC012C2F84ED96E006C0399699
:102650002491AB01BC0188EC96E00E94BA09DF919D
:10266000CF91FF90EF90DF90CF900895CF93DF93BD
:10267000611103C0CAEDD6E002C0CEECD6E0BC01C9
:1026800080E090E00E94A831AEDFAB01BC012DE0FC
:10269000CE010E94BA09DF91CF9108950F931F9345
:1026A000292F207495FF15C06091AD057091AE057E
:1026B0008091AF059091B005222321F12091A905C9
:1026C0003091AA054091AB055091AC050E94413074
:1026D00019C06091F6037091F7038091F80390910F
:1026E000F903222361F00091EA031091EB0320919A
:1026F000EC033091ED03601B710B820B930B0E9476
:10270000AA3171DF22DD1F910F9108952091A30559
:102710003091A405260F311D30939E0320939D0315
:1027200080939C038091DA0380939A03089597FF26
:1027300003C088599E4F0895893621E0920714F00E
:10274000885691400895CF93DF93EC010E94202991
:1027500028813981CB01821B930BDF91CF910895A2
:1027600081E08093750388E0EBE8F5E0DF011D92DE
:102770008A95E9F780E09DDC90936E0380936D036A
:10278000089524E0880F991F2A95E1F78C549F4FF4
:1027900068E671E00E94DE33CB010196089508954A
:1027A0008091BE059091BF05C29664E670E00E94DC
:1027B000CA332091B1053091B205CB01821B930B36
:1027C000B6DF845B91099093BD058093BC05D9DF8A
:1027D000885F0E9498086091BC057091BD0588ECE7
:1027E00091E00C94A607CF92DF92EF92FF92CF93E5
:1027F000DF93EC016A017B019A01AB016881798169
:102800008A819B810E94083187FF04C0C882D982D7
:10281000EA82FB82DF91CF91FF90EF90DF90CF9023
:1028200008958F929F92AF92BF92CF92DF92EF92D4
:10283000FF920F931F93CF938C014A015B01C22F2C
:10284000FC01C080D180E280F38020E030E0A9016B
:10285000C701B6010E940831882311F0C23030F45C
:10286000F80180829182A282B3821DC0A7019601E5
:10287000C501B4010E9441304B015C016C2F70E036
:1028800080E090E00E94AA319B01AC01C501B40137
:102890000E940F31A70196010E944230F801608327
:1028A000718382839383CF911F910F91FF90EF905B
:1028B000DF90CF90BF90AF909F908F900895CF936F
:1028C000DF9397FD25C0C92F91E0909391039C2F32
:1028D0007DDBD82F6091E7057091E80580E090E0FE
:1028E0000E94A831AB01BC012D2F84E994E099DF4F
:1028F000C0716091940470919504809196049091B8
:1029000097040E947C31DC01CB016C2FAFDE08C044
:1029100081E090914404911101C080E08093910383
:10292000DF91CF910895CF93DF93C92F4FDBD82F3D
:102930006091E9057091EA0580E090E00E94A8317D
:10294000AB01BC012D2F80E994E06BDFC071609179
:1029500090047091910480919204909193040E944C
:102960007C31DC01CB016C2F81DEDF91CF910895AA
:10297000CF93DF93C92F2ADBD82F6091E5057091A3
:10298000E605072E000C880B990B0E94AA31AB01BB
:10299000BC012D2F88E994E044DFC4FD03C0CAEDDB
:1029A000D6E002C0CEECD6E02AE037ED43E25CE3AD
:1029B000609198047091990480919A0490919B047D
:1029C0000E94C332AB01BC012EE0CE010E94BA09C5
:1029D000DF91CF9108950F931F93CF93DF93D92F5A
:1029E00080E090E0A4DE8C0124E640E050E0BA01F3
:1029F0008FE196E016DFD6FBCC27C0F92C2F40E004
:102A000050E0BA018CEE96E021DC0E948109209111
:102A1000B1053091B205C801821B930BB2DED5FD22
:102A200002C090E001C098E0890F0E949808409190
:102A30001F065091200660912106709122062C2FCE
:102A400087E192E003DCDF91CF911F910F91089510
:102A5000CF93DF93C92FBADAD82F6091D403709146
:102A6000D50380E090E00E94A831AB01BC012D2F7E
:102A70008CE994E0D6DE60919C0470919D04809175
:102A80009E0490919F040E94773184EE96E00E940C
:102A9000A6078091100480FD03C0C4FD0E941609A2
:102AA000DF91CF9108958F929F92AF92BF92CF9274
:102AB000DF92EF92FF926091E5057091E605072E97
:102AC000000C880B990B0E94AA316B017C0180904D
:102AD000A5059090A605A090A705B090A805ADDB30
:102AE000A50194010E94C3329B01AC01C701B6014C
:102AF0000E940F3120E030E040E251E40E94C332F6
:102B0000AB01BC0124E686EA94E08BDEFF90EF90F7
:102B1000DF90CF90BF90AF909F908F900895A0E0EE
:102B2000B0E0E5E9F5E10C94583420917C032223D0
:102B300009F4FFC0C82F96FF15C020E030E0A901BE
:102B40006091A5057091A6058091A7059091A805B3
:102B50000E940831882309F4ECC0A5DF8C2F0E9465
:102B60009D0CE7C080910604811196C020E030E002
:102B7000A9016091A5057091A6058091A705909186
:102B8000A8050E940831882309F4D3C08CDF809106
:102B90007F038823D1F01092C6051092C7051092CA
:102BA000C8051092C9058091170690911806A0914A
:102BB0001906B0911A068093A0049093A104A093E3
:102BC000A204B093A30410927F032DEC3CEC4CE4E0
:102BD0005DEB6091C2057091C3058091C405909131
:102BE000C5050E94083187FF45C02091A00430919F
:102BF000A1044091A2045091A30460911706709122
:102C000018068091190690911A060E94413020E022
:102C100030E0A9010E94C3326B017C018CDA9B0178
:102C2000AC01C701B6010E94C3326B017C010E9456
:102C30007731CB016031774224F41816190644F03D
:102C400078C0C12C8CE3D82E8CE1E82E86E4F82ED7
:102C5000C7FD03C08EEE0E94C506E091EB05F09122
:102C6000EC0539962491B701A60188EC96E00E9404
:102C7000BA095FC08091DC039091DD0397FF59C0D2
:102C800080918103882319F08BE992E002C08AE9E0
:102C900092E00E940D0E4DC0D091E4050D2F10E082
:102CA0008091E105082E000C990B08171907B1F166
:102CB0006091CF057091D0058091D1059091D2059A
:102CC0000E94A8316B017C016D2F70E080E090E0E4
:102CD0000E94A8319B01AC01C701B6010E94C3321A
:102CE0006B017C014091E205042E000C550B401B4A
:102CF000510BBA01550F880B990B0E94AA319B0109
:102D0000AC01C701B6010E940F316DDC0E947C311D
:102D10007093E0056093DF05D093E105C7FD03C024
:102D200087E10E94C5068091DF059091E0050E9431
:102D30001309CDB7DEB7E8E00C9474342AE071CD06
:102D4000CF93DF93EC019A01AB01688179818A818D
:102D50009B810E944230688379838A839B83DF91C1
:102D6000CF910895A7E0B0E0E8EBF6E10C944E3483
:102D70008AEF93E0E8DC1C0160E070E08AEF93E00A
:102D8000B4D9B10180E090E00E94A8312CDC6A83C4
:102D90007B838C839D836091E5057091E605072E0A
:102DA000000C880B990B0E94AA316B017C01609189
:102DB000E9057091EA0580E090E00E94A831A70142
:102DC00096010E94C3322CEA35EC47E257E30E9499
:102DD000C332AB01BC018EEF93E0B0DF109109016B
:102DE0008090C2059090C305A090C405B090C50521
:102DF000A2D92B013C0120E030E040E752E4C501BC
:102E0000B4010E94C332A30192010E94C332AB01FC
:102E1000BC01212F8BE196E004DD2091E405809137
:102E2000E205082E000C990B422F50E084179507FD
:102E300014F42093E20521E63BE046E35BE3C7019F
:102E4000B6010E94C3322A813B814C815D810E9480
:102E5000C332AB01BC0183E196E072DF8091D603FF
:102E60009091D7032091100420FD5FC020914A0467
:102E700030914B043F832E8300914C0410914D04FC
:102E8000021713074CF43E812F811F830E83032FFB
:102E9000122F31E0398301C019823E812F814E818A
:102EA0005F814817590714F4382F292F632F722F89
:102EB000061717070CF4B8018E819F81681B790BE8
:102EC00080E090E00E94A8312B013C01B801EE8126
:102ED000FF816E1B7F0B80E090E00E94A8319B0178
:102EE000AC01C301B2010E940F3120E030E048EC98
:102EF00052E40E94C3320E947731653671052CF48A
:102F000077FF05C060E070E002C064E670E0F98120
:102F1000FF2331F084E690E09C01261B370BB901BA
:102F20007093D5036093D40304C09093D50380932A
:102F3000D40380910604811104C08091800380FD38
:102F400005C080917C03882309F467C0B1018FEC30
:102F500095E0E2D880918303882399F02091A5051C
:102F60003091A6054091A7055091A8056A817B8103
:102F70008C819D810E94C332AB01BC0187E196E048
:102F8000DFDE6091B8057091B9058091BA05909126
:102F9000BB050E94AA31AB01BC0182E895E023DCAD
:102FA00040E050E0BA018EE795E01DDC4091A505B8
:102FB0005091A6056091A7057091A8058AE795E054
:102FC00012DC4091AD055091AE056091AF05709156
:102FD000B00586E795E007DC40E050E0BA0182E703
:102FE00095E001DC4091FE035091FF0360910004E5
:102FF0007091010482E695E0F6DBB701A6018EE64A
:1030000095E0F1DBB501A4018AE695E0ECDBB501C2
:10301000A401705886E695E0E6DB2796E2E10C9481
:103020006A34CF93DF93EC01CB01BA010E94AA313D
:1030300025E93FEB46ED53E30E94C3326883798371
:103040008A839B83DF91CF9108950E94202960930A
:103050009D0570939E0580939F059093A005809198
:10306000A3059091A4059093A2058093A105E5E79F
:10307000F3E081E080838283089580917603882342
:1030800029F09091740381E0911180E00895CF932D
:1030900090916503992309F447C0E0914704F0E05B
:1030A000EE0FFF1FEB50FA4F20813181CFB78823FD
:1030B00009F0F89480914E048130D9F018F08230F4
:1030C00011F131C0E0916303F0916403908180912C
:1030D0006503892B8083C9010E947529E0916303F0
:1030E000F0916403908180916503809589238083AA
:1030F0001AC090916503E0916303F09164032D3D44
:1031000035406CF009C090916503E0916303F09144
:1031100064032C3D35401CF48081982B03C08081D2
:10312000909598239083CFBFCF91089566E970E082
:1031300080E090E00C94512965E082E00E948F06C7
:103140008EE093E00E940D0E0E9420294AE050E09C
:1031500082E293E00E949A2B80918F03882359F09A
:1031600061E081E00E948F0660911C0470E089EFAD
:1031700092E00E94A6070E94DA06D8CFA0E0B0E055
:10318000E4ECF8E10C945434CFE3D5E010E200E134
:103190000E944B2C882309F4F0C10E945A2C909174
:1031A0002F059230A1F028F4992351F0913051F07D
:1031B00005C09430D1F080F0953011F19F5FD8C1F7
:1031C00091E0C9C18D3409F0D2C192E0D1C18E33F2
:1031D00009F0CDC193E0CCC1813808F0C8C180931B
:1031E0002E0580932D0594E0C3C180933005909106
:1031F0002D05892780932D0510922C0595E0B8C1E7
:1032000020912D05282720932D05E0912C05309144
:103210002E05E313A3C121119EC11092310515DFC4
:10322000E09130058E2F90E0FC01E456F109E43185
:10323000F10508F08CC1EC5CFF4F0C942F34E09149
:10324000310581E08E0F80933105F0E0E455FB4FAE
:10325000808180939C058091330590913405A091E5
:103260003505B09136058E7F6AC1E0913105F0E0F9
:10327000EE54FB4F408151816281738140933B0545
:1032800050933C0560933D0570933E0580913F054A
:1032900090914005A0914105B0914205842395236A
:1032A000A623B72321E0892B8A2B8B2B09F420E05E
:1032B00020937C034CC1E0913105F0E0E455FB4FD5
:1032C000ADEEB5E0802F01900D928A95E1F73FC1F8
:1032D0008091310590E0FC01E455FB4F2081209363
:1032E000C00521812093C105FC01E255FB4F4081BF
:1032F0005181628173818EEE93E093DEE09131051E
:10330000F0E0EE54FB4F408151816281738182EF86
:1033100093E087DEE0903105F12CF701EA54FB4F92
:1033200080819181A0E0B0E08093F6039093F70351
:10333000A093F803B093F903F701E854FB4F6081C1
:10334000718180E090E00E94A8316093A5057093A0
:10335000A6058093A7059093A805F701E654FB4FB7
:10336000808191819093BF058093BE05F0C08091CC
:10337000310590E0FC01E455FB4F4081518160E054
:1033800070E04093B8055093B9056093BA05709307
:10339000BB05FC01E255FB4F80819181F2D98093FE
:1033A000B705D5C08091310590E0FC01E055FB4F99
:1033B000208131813093B2052093B105FC01E455A1
:1033C000FB4F208131813093DF032093DE03FC012A
:1033D000E255FB4F808191819093DD038093DC0364
:1033E000B6C0E0903105F12CF701E455FB4F608148
:1033F0007181828193810E94A8316093AD057093A1
:10340000AE058093AF059093B005F701E055FB4FF3
:103410006081718180E090E00E94A8316093C205D4
:103420007093C3058093C4059093C50590C0209107
:103430000204E091310524FD11C08E2F90E0DC01E3
:10344000A455BB4F4D915C915093EA054093E9051B
:10345000DC01A355BB4F8C918093E40526FD0AC087
:10346000AE2FB0E0AF54BB4F8D919C919093E60589
:103470008093E505F0E0E155FB4F80818093D9030F
:1034800066C08091330590913405A0913505B091C7
:1034900036059D7F54C08091330590913405A091ED
:1034A0003505B09136059B7F4AC040912E05FE013F
:1034B000812F11928A95E9F7C12CD12C7601C39402
:1034C0004423A1F1E091310581E08E0F8093310515
:1034D000F0E0E455FB4F608122EF36E0062E000C51
:1034E000770BF901849190E06817790799F4C90185
:1034F0000296FC01A591B4918D909D90AD90BC90E9
:1035000013978C289D28AE28BF288D929D92AD924E
:10351000BC9213972C5F3F4FF7E022313F0709F72A
:10352000CC0CDD1CEE1CFF1C4150CACF8091330532
:1035300090913405A0913505B0913605977F809321
:10354000330590933405A0933505B093360595DD8A
:10355000882369F012C0843251F40AC021E02E0F92
:1035600020932C05F0E0E455FB4F808301C090E0F0
:1035700090932F050E946E0F0BCECDB7DEB7ECE017
:103580000C947034CF93C82F84E20E94772C8DE482
:103590000E94772C8CE30E94772C80E00E94772C8D
:1035A0008C2F0E94772C8C2F0E94772CCF9108951E
:1035B0008FEF91E0A0E0B0E0809333059093340565
:1035C000A0933505B0933605E7E3F5E0808191815E
:1035D000A281B3819170AA27BB2780839183A283A4
:1035E000B38308950F931F938091A50481110BC09D
:1035F0000E94482C60E072EC81E090E00E94092C6F
:1036000081E08093A5049091A40481E089278093B0
:10361000A4048111A5C0CCDF8091370590913805B5
:10362000A0913905B0913A05892B8A2B8B2B81F417
:103630008091330590913405A0913505B091360500
:103640008093370590933805A0933905B0933A05D8
:1036500040913705509138056091390570913A05D0
:1036600088279927DC01841B950BA60BB70B8423B5
:103670009523A623B7238C019D01009510952095D5
:103680003095402351236223732340933705509391
:1036900038056093390570933A0580349105A1058A
:1036A000B10509F44FC020F584309105A105B1059D
:1036B00009F454C068F481309105A105B10509F4FD
:1036C0004BC00297A105B10509F04AC085E647C085
:1036D00080319105A105B10589F180329105A105DF
:1036E000B10571F10897A105B105D1F589E637C09B
:1036F000811522E09207A105B10541F160F48038FF
:103700009105A105B10501F181159140A105B10512
:1037100039F58EE624C0811528E09207A105B10590
:10372000B9F0811520E19207A105B10599F0811545
:103730009440A105B105A1F480E711C08AE60FC04D
:103740008BE60DC08CE60BC08DE609C08FE607C086
:1037500087E705C08CED03C084E601C086E612DF72
:103760001F910F91089584E20E94591096FF08C09E
:103770008091B70590E08C549F4F0E94971304C02E
:103780008091B1059091B205880F991F8D966AE5D9
:1037900070E00E94DE3377FF03C0685F7F4FFBCF8E
:1037A00067707727FB01EF50FD4F8491089587FDE7
:1037B00003C0D9DF0E94C5066091B1057091B205C2
:1037C00084EE96E00E94A60785E00C94C5064F9211
:1037D0005F926F927F928F929F92AF92BF92DF9291
:1037E000EF92FF920F931F93CF93DF937C01F6FC30
:1037F0000CC06F2D81E08E0D0E948F0680916D03AD
:1038000081FD1CC00E94090A19C0C5E082EB0E941C
:10381000C506DDE0D15019F00E947F09FBCFC3300F
:1038200011F083EB01C085EC0E94C5060E9481095E
:10383000C150F9F2C33051F786ECE9CFF4FEB1C0C4
:10384000C091B505D091B6050091B3051091B405AE
:10385000C80117FF04C088279927801B910B6AEFC6
:1038600070E00E94DE33E62F472FCE01D7FF04C061
:10387000882799278C1B9D0B6AEF70E00E94DE332E
:103880002E2F342F261737070CF49B01B9016F5FD9
:103890007F4F7093AB046093AA04072E000C880B33
:1038A000990B0E94AA314B015C01B801110F880BE2
:1038B000990B0E94AA312B013C0124EE38E34EE51E
:1038C00052E4C501B4010E94C3329B01AC01C301A3
:1038D000B2010E940F310E947731162FBE01DD0F19
:1038E000880B990B0E94AA312B013C012DE63BED80
:1038F0004EE052E4C501B4010E94C3329B01AC0109
:10390000C301B2010E940F3120E030E040E05FE3EC
:103910000E9442300E947731062FE6FC09C023DF67
:1039200062E0611B482F85E0800F0E94D30639C0FA
:1039300090919305961304C0809194058117E1F04E
:10394000809197059091980590939A058093990599
:103950008091950590919605909398058093970591
:103960008091930590919405909396058093950589
:103970000093930510939405C0E0D0E032E0B32E9D
:10398000FE01ED56FA4F87816B2D681B868144E25C
:103990008B5F0E94D3062297CA3F4FEFD40781F76F
:1039A000BECFE7FC08C062E085E00E94A00682EA84
:1039B00091E00E940D0EF5FEB6C080917C03882335
:1039C00009F4B1C08091060481117BC06091B805F3
:1039D0007091B9058091BA059091BB050E94AA31FA
:1039E0009B01AC0160E070E0CB010E94B53021EE9C
:1039F0003EE245EE52E40E94C3320E9477316A50A3
:103A000071092DE2269FC001279F900D11246AE0C5
:103A100070E00E94DE33CB018D9697FD019695955F
:103A2000879569E070E00E94DE33D62F653058F448
:103A3000CFECC81B4C2F8CE00E94D3064C2F6D2F6F
:103A400081E00E94D3068091B70590E020910E019D
:103A500030910F01821B930B0E949713853B9105B8
:103A600034F028E631E0A901481B590BCA019C013A
:103A7000245B310948E4429FC001439F900D11240B
:103A80006AE070E00E94DE33CB01849666E070E06D
:103A90000E94DE3367FD07C06D3044F4DFEBD80FC2
:103AA000C1E0C60F05C0C1E0DCE302C0CCE0DEE34C
:103AB0004D2F64E08C2F0E94D3064D2F60E08C2F99
:103AC00030C08090AD059090AE05A090AF05B0904D
:103AD000B0050E949B10A50194010E94C33220E012
:103AE00030E040EA50E40E9442302DEC3CEC4CE8DF
:103AF00050E40E94C3320E947731862F9FEF960FC9
:103B00009B3238F469E00E94BD334FEC491B682FAB
:103B100007C06C321CF064E04EE202C060E04FEC83
:103B200086E00E94D306DF91CF911F910F91FF9005
:103B3000EF90DF90BF90AF909F908F907F906F90AD
:103B40005F904F900895ABE0B0E0E9EAFDE10C949E
:103B50004E346B017C010E94E905809106041091AE
:103B60007C0381111CC0112301F18091800380FF2F
:103B70001CC06091A5057091A6058091A705909144
:103B8000A8050E947731623071057CF0C092FF0574
:103B9000D0920006E0920106F092020606C01111D2
:103BA00004C080917D038111F1CF10937D0380913A
:103BB0004904853018F084E0809349048DE995E04C
:103BC0000E94A313853C994080F11092A5051092A4
:103BD000A6051092A7051092A80562E085E00E9454
:103BE0008F066091A3057091A4058091A105909125
:103BF000A205681B790B8FE891E00E94A60740910F
:103C00009403509195036091960370919703411529
:103C100051056105710531F02AE030E082E293E060
:103C20000E948D2B83E094E469C08091030480FF9F
:103C300068C010917C03111123C08091FF05909101
:103C40000006A0910106B0910206892B8A2B8B2BCE
:103C5000B9F060911706709118068091190690913D
:103C60001A060E9477316630710554F081E0809326
:103C70008A030E94530780919B05809352033CC0A6
:103C800080918A038823E9F18091520390919B05EA
:103C9000891721F080939B0510928A0382E00E948D
:103CA0006807092E000CAA0BBB0BB7FF07C0B09525
:103CB000A095909581959F4FAF4FBF4F8D3291400A
:103CC000A105B1050CF0AAC283E00E946807092E85
:103CD000000CAA0BBB0BB7FF07C0B095A095909541
:103CE00081959F4FAF4FBF4F8D329140A105B105D8
:103CF0000CF094C2111192C281E091E00E94E9118E
:103D000090C280914904882321F090919B059817D7
:103D100040F502E313E0F801B490C8010196FC01FC
:103D2000C590D490C114D10409F47BC28B2D8F7738
:103D30000E9459107C010E94A407F7FC0AC0E7FC0E
:103D40000AC0F80133968491882329F00E94C506A1
:103D500002C0B7FE03C0C701F60109950C5F1F4FF3
:103D6000DACF80917C03811150C21D821E821F8296
:103D7000188640918A05A42EB12CF5E04F9FA00132
:103D80001124FA01EE5FFB4F8591949190934D03BE
:103D900080934C03FA01EC5FFB4FF4900E945307B1
:103DA000C12CD12CE12C1A861B86312C212C198692
:103DB000EF1409F4BEC0552453945E0C00914C03DB
:103DC00010914D030C0D1D1DF80185909490652DEB
:103DD00081E00E948F06C4010E940D0E652D83E1D3
:103DE0000E948F0680910A01E81203C08EE30E94B0
:103DF000C506F8013296E491EF77E33609F457C02F
:103E000080F4E234B9F120F4EE2309F48DC06FC0E0
:103E1000EA3509F44AC0E23609F069C04424439403
:103E20002BC0E836D9F088F4E63609F060C0F80116
:103E30003396A591B4918D919D910D90BC91A02D3B
:103E40008D839E83AF83B88752C0E33709F445C0A2
:103E5000EA3709F04CC020E1298729C08091180376
:103E6000803419F080E291E002C088E291E00E9483
:103E70000D0E5AC06AE0462EF8013396A591B49112
:103E80006C9170E080E090E00E94AA313B014C010F
:103E9000642D70E080E090E00E94A8319B01AC01AD
:103EA000C401B3010E940F3113C080E28987F80179
:103EB0003396A591B4916C91062E000C770B9985E1
:103EC000691B7109072E000C880B990B0E94AA31FF
:103ED0006D837E838F8398870AC0F801339665913E
:103EE000749144E050E0CE0105960E94410D80910E
:103EF0000A01BD81AE813F812885E81203C0BA87DF
:103F0000AB871901F8013596E491E295EF70F0E086
:103F1000EE0FFF1FE458FB4F859194914B2F5A2FC2
:103F2000632F722F0E94F609E6E0CE0ED11CE52C1D
:103F30003FCF85E08A9DF0018B9DF00D1124EB5F52
:103F4000FB4F85919491009711F0FC0109958091A8
:103F50008403882309F465C11092840311E010934F
:103F6000750381E00E9468078739910514F081E0AC
:103F700004C08A369F4F24F48FEF0E94780751C106
:103F800083E00E946807873991055CF010930A016D
:103F900080918A05823019F410928A0542C18F5FA0
:103FA0000CC08A369F4F64F410930A0180918A05F1
:103FB000811102C082E001C0815080938A0531C125
:103FC00060910A016F5F84E10E948F0680910A016F
:103FD00000914C0310914D03480196E0899F800C9D
:103FE000911C112480E00E9468075C0197FF06C0C5
:103FF000B194A194B108EE24E39401C0E12CF40142
:104000003396C590D490F4013296249129878A85FD
:104010009B85A32DB22D8D839E83AF83B887122FEE
:104020001F77143640F4123680F4123461F01A35DA
:1040300009F049C00AC0133751F11A3731F016366A
:1040400009F041C024C00AE001C001E08DE2A816D9
:1040500081E0B8063CF0412C512C40E2642E41E452
:10406000742E06C0412C512C30E8632E3FE3732E92
:10407000602F70E080E090E00E94AA319B01AC01CB
:10408000C301B2010E940F31FF24F39421C0C50186
:1040900064E670E00E94DE33FB01EE0FFF1FEA5E74
:1040A000FE4F6081718180E090E00E94A8319B0109
:1040B000AC0160E070E080E89FE30E940F3101E016
:1040C00024E0F22E05C060E070E080E89FE301E0AC
:1040D000E5E6AE16B1040CF446C0E1109058AB0111
:1040E000BC01CE0105960E94A016F4013596E4911C
:1040F000EF70F4E0EF9F30011124F301EE57FB4F16
:1041000065917491072E000C880B990B0E94AA31BF
:104110004B015C019B01AC016D817E818F81988593
:104120000E94083187FF04C08D829E82AF82B886CC
:10413000F301EC57FB4F65917491072E000C880B2F
:10414000990B0E94AA314B015C019B01AC016D816E
:104150007E818F8198850E94B832181624F48D8252
:104160009E82AF82B8868D809E80AF80B8842A857B
:104170003B85432D522DC501B4010E94083188238F
:1041800009F44FC0602F70E080E090E00E94AA31F7
:10419000A50194010E94C3320E9477311336C1F009
:1041A00038F41A3589F01236A9F0123401F512C02C
:1041B000133799F01A3751F01636C9F4F601808298
:1041C0009182A282B38213C080E203C080E101C069
:1041D00080E0680FF60160830AC089829A82AB8210
:1041E000BC8244E050E0B601CE01019606C04F2DDE
:1041F00050E0B60162507240C6010E94CA0DF985B6
:10420000F7FF0FC00E9427060CC083E093E00E94D6
:10421000A40783E093E00E941A1203C010928A035D
:104220006BCD2B96E2E10C946A341F920F920FB67D
:104230000F9211242F933F934F935F936F937F932C
:104240008F939F93AF93BF93EF93FF9381E08093FE
:104250001C0310927403809173038F5F8093730328
:10426000EFD760936F037093700380937103909303
:10427000720380919803882321F00E94DA0610923D
:104280009803FF91EF91BF91AF919F918F917F9193
:104290006F915F914F913F912F910F900FBE0F90B3
:1042A0001F901895CF92DF92EF92FF92D5D76B01B6
:1042B0007C0183E00E944C2A019749F4C092660376
:1042C000D0926703E0926803F09269031FC0809167
:1042D000660390916703A0916803B091690300970A
:1042E000A105B10599F0C81AD90AEA0AFB0AD092C9
:1042F0006B03C0926A0310926603109267031092D8
:1043000068031092690381E080936C03FF90EF9043
:10431000DF90CF9008951F920F920FB60F92112445
:104320002F933F934F935F936F937F938F939F93BD
:10433000AF93BF93EF93FF93B5DFFF91EF91BF91E1
:10434000AF919F918F917F916F915F914F913F912D
:104350002F910F900FBE0F901F901895CF930FB60F
:10436000F894A89580916000886180936000109215
:1043700060000FBE60E071EE80E090E00E94092CCA
:104380004EE450E060E072E082E094E00E94410D73
:104390008091020481FD03C085E297E002C082E1C2
:1043A00097E09093EC058093EB0580911C048F348B
:1043B00021F480911D048A3119F081E080938F03EC
:1043C00084B58C7F84BD8091030484FF02C081E0AA
:1043D00001C083E00E94F92A80917A008B7F80934C
:1043E0007A0080917A00866080937A0080916900DB
:1043F0008C7F826080936900E89A80910704813005
:1044000051F462E083E0DFD780916900837F8460AC
:1044100080936900E99A6FE071E08EE193E00E9479
:104420009F2C5E9A0E94DA06789480911E0489334C
:1044300041F480911F04833321F48091200486335A
:1044400089F089E380931E0483E380931F0486E34D
:104450008093200443E050E06CE172E08EE194E050
:104460000E94CA0D80914F04882351F010924F048E
:1044700041E050E06DE472E08FE494E00E94CA0DE8
:1044800080914704882331F1E0914804EE2311F133
:10449000F0E0E65FFE4FC4912C2F30E0F901EA56C0
:1044A000F84F9491F901EE57F84F2491209365034A
:1044B000E92FF0E0EE0FFF1FEC54F84F8591949137
:1044C000909364038093630380E00E94471861E047
:1044D0008C2F79D70E946D060E949C180E94B01301
:1044E000CF910895E0910301EF5FE0930301E7703E
:1044F000F0E0EE0FFF1FE058FB4F9183808388E0D0
:1045000060E070E08150E82FF0E0EE0FFF1FE05810
:10451000FB4F20813181620F731F8111F3CF80E047
:1045200090E00E94A83120E030E040E05EE30C948F
:10453000C33297FD05C08F3F910509F01CF4089523
:1045400080E008958FEF0895CF92DF92EF92FF926F
:10455000CF93DF938091020484FD05C080915703BF
:10456000882309F4A0C0C0910201CF5FC09302016B
:1045700080E10E94FC2AC770EC2FF0E0EE0FFF1FD5
:10458000E059FB4F9183808388E0C0E0D0E0815008
:10459000E82FF0E0EE0FFF1FE059FB4F2081318143
:1045A000C20FD31F8111F3CF20915B0330915C03C5
:1045B00047E0429FC001439F900D11248C0F9D1F27
:1045C00023E0969587952A95E1F790935C03809375
:1045D0005B038091020484FF66C029E53EEE49E05A
:1045E00050E46091240470912504809126049091F8
:1045F00027040E94C3326B017C01BE0180E090E081
:104600000E94A8319B01AC01C701B6010E94C332D0
:104610000E947C314091E9055091EA054115510510
:1046200029F47093EA056093E90512C09A01220FFC
:10463000331F240F351F2E5F3F4FA901460F571F11
:1046400056954795569547955093EA054093E90549
:1046500081E080937503E0910B048E2F61E20E944C
:10466000B133482F8091E9059091EA05C29664E63E
:1046700070E00E94CA33F0E09B012E1B3F0BAFEFAE
:10468000B0E00E9435345AE2459F900111242E1B60
:104690003F0B032E000C440B550B0E941334C90131
:1046A00048DF8093E4058091020485FF04C0809177
:1046B0009103811105C080915803882309F49CC09F
:1046C000C0910101CF5FC09301018EE095D7C77003
:1046D000EC2FF0E0EE0FFF1FE05AFB4F9183808339
:1046E00088E0C0E0D0E08150E82FF0E0EE0FFF1F3F
:1046F000E05AFB4F20813181C20FD31F8111F3CFCC
:1047000020915D0330915E0347E0429FC001439FCB
:10471000900D11248C0F9D1FA3E096958795AA9567
:10472000E1F790935E0380935D038091020485FF1F
:1047300063C029EA3CEC48E050E4609128047091A1
:10474000290480912A0490912B040E94C3326B01AA
:104750007C01BE0180E090E00E94A8319B01AC0189
:10476000C701B6010E94C3320E947C314091E70527
:104770005091E8054115510529F47093E8056093BF
:10478000E70512C09A01220F331F240F351F2E5F39
:104790003F4FA901460F571F569547955695479588
:1047A0005093E8054093E705E09144048E2F61E2C1
:1047B0000E94B133482F8091E7059091E805C29699
:1047C00064E670E00E94CA33F0E09B012E1B3F0BB1
:1047D000AFEFB0E00E9435345AE2459F90011124BA
:1047E0002E1B3F0B032E000C440B550B0E94133461
:1047F000C9019FDE8093E3058091020486FD05C018
:1048000080915903882309F480C08091550388233F
:1048100049F020E137E240E050E061E08FE064D60B
:10482000CB0102C08FE0E8D6E0910001EF5FE0939A
:104830000001E770F0E0EE0FFF1FE05BFB4F91839C
:10484000808388E0C0E0D0E08150E82FF0E0EE0FF8
:10485000FF1FE05BFB4F20813181C20FD31F81110D
:10486000F3CF20915F033091600347E0429FC00186
:10487000439F900D11248C0F9D1F33E096958795D3
:104880003A95E1F79093600380935F03809102046F
:1048900086FF3BC02DE032E348EC5CE360912C04E2
:1048A00070912D0480912E0490912F040E94C332A8
:1048B0006B017C01BE0180E090E00E94A8319B0169
:1048C000AC01C701B6010E94C3320E947C31409105
:1048D000E5055091E6054115510529F47093E6056B
:1048E0006093E50512C09A01220F331F240F351F74
:1048F0002E5F3F4FA901460F571F56954795569576
:1049000047955093E6054093E50580911004869500
:10491000813041F038F1823041F0833039F58091B7
:10492000D80322C081E168D608C020E23EE440E01E
:1049300050E061E081E1D8D5CB01D4DD2091300495
:104940003091310440913204509133040E94C332BB
:104950000E947C317093D7036093D60381E08093EB
:10496000750337C08091D90390E004C08091FB05A6
:104970009091FC05B7DD0E947C317093D703609362
:10498000D60380915A03882321F18091560388230E
:1049900041F020E137E240E050E061E081E1A4D560
:1049A00003C081E129D6BC0180916103909162032B
:1049B00047E0489F9001499F300D1124620F731FFB
:1049C00083E0769567958A95E1F77093620360932B
:1049D0006103DF91CF91FF90EF90DF90CF9008952A
:1049E00081E00E9447180C94F21AE2E2F3E013828D
:1049F000128289E191E0918380838EE193E001D777
:104A0000E8E3F7E088E992E0968B858B8CE992E009
:104A1000948F838F80EB92E092A381A384EB92E04A
:104A200090A787A388EC92E096A785A78CEC92E0EC
:104A300094AB83AB0895A4E0B0E0E1E2F5E20C941E
:104A40005034A8957894FCD36B017C0128EE33E0B8
:104A500040E050E00E94F1333093A4052093A30579
:104A60002CEDC21625E0D206E104F10458F0809145
:104A70008F03811107C00CEA14E030E4632E772421
:104A800073945CC00E949C188DC38091780381113F
:104A90005AC080918103811156C0F801262D1192D0
:104AA0002A95E9F7F5D6CCD34B015C0134E6830EA9
:104AB000911CA11CB11C2AEF422E55245A94C0D33C
:104AC00086169706A806B90608F049C04FEF54129B
:104AD0005CC0509008015AE0551508F059C082E1B9
:104AE000851508F058C09CE1951508F057C0E7E21D
:104AF000E51508F056C0FBE3F51508F055C025E9AB
:104B0000251508F054C021E080E48093230630E0AE
:104B1000A0ECB2E10E9435344B015C016093940338
:104B20007093950380939603909397038EE193E09F
:104B30005FD6C501B4016DD670927803809177037A
:104B4000882309F4A2CF0E94BE1880917703809336
:104B5000780380917503882309F479C12BC024EC74
:104B600039E040E050E060E080E0BED46F3F710586
:104B70008105910509F02CF4662319F0651508F4F8
:104B8000562E4A9441109BCFA1CF50920801A3CF3B
:104B900028E182E0BACF2CE084E0B7CF28E086E0BD
:104BA000B4CF26E088E0B1CF24E080E1AECF22E0B0
:104BB00080E2ABCF00919B0580910704833008F41D
:104BC0003BC1833029F4A0906A03B0906B0311C0FD
:104BD0009BEF980F943048F4E82FF0E0EE0FFF1FA2
:104BE000E551FA4FA080B18004C0A090FB05B090C1
:104BF000FC059501205233402939384008F01CC18A
:104C00002091060130910701A216B30620F4B0925C
:104C10000701A092060120910401309105012A1597
:104C20003B0520F4B0920501A0920401843001F507
:104C30008091CE05882389F01092CE0560E070E067
:104C40008AEC95E00E9475109091CE0580910B0141
:104C5000981303C081E0809379038AEC95E00E9469
:104C6000A313813D974008F4B8C010920B01B5C062
:104C700080910C04811121C0209104013091050123
:104C80008091060190910701609149048A159B0566
:104C900068F4A81AB90AF901E81BF90BCF0170E012
:104CA0000E94CA33C5010E94CA3301C060E00617E2
:104CB00009F493C060939B0590C08091020482FF29
:104CC0004EC08091880590918905A816B90609F40F
:104CD00056C09501281B390B293C310508F44FC0FB
:104CE0008091860590918705A816B90631F0A50137
:104CF000481B590B483C5105E0F48090CA05909040
:104D0000CB05A090CC05B090CD0558EE850E53E0B4
:104D1000951EA11CB11C94D2681579058A059B05C6
:104D200018F481E08093790310928705109286052C
:104D300026C086D26093CA057093CB058093CC05BC
:104D40009093CD0580918805909189059093870572
:104D500080938605B0928905A092880510C02091A5
:104D60000401309105018091060190910701280FFF
:104D7000391F3695279581E02A153B0508F080E01C
:104D80009091020490FF10C0882321F081E080936D
:104D90007A0323C080917A03882319F081E08093FD
:104DA000790310927A0319C08823B9F08090CA055C
:104DB0009090CB05A090CC05B090CD0541D2861641
:104DC0009706A806B90648F481E08093790364EF5A
:104DD00071E08AEC95E00E94751080917903882338
:104DE00069F01092790380919B058F5F80939B05FA
:104DF00090914904981710F410929B0510919B050F
:104E00000117D1F00E94B01380918B03811112C061
:104E1000AFE9B3E0E2E0F1E084918D933196811146
:104E2000FBCF8091A603180F1093A60363E088E0E0
:104E30000E94861310928B0380917603811105C026
:104E400081E08093760380937403109275038091C0
:104E50007603882309F4C5C0809174038111C1C011
:104E6000109276039091C005992319F081E0809308
:104E7000870320917C0380917E03222309F46FC174
:104E800080FD0DC010928303816080937E03109299
:104E9000CF051092D0051092D1051092D2058091C5
:104EA0008303882309F43BC180918303882309F499
:104EB0008FC08090E2039090E303A090E403B09051
:104EC000E503C501B4019F7725E33AEF4EE85CE3C3
:104ED0000E94C3320E940C312B013C012091EE0351
:104EE0003091EF034091F0035091F103C501B401FB
:104EF0000E940C0C4B015C012091F2033091F303F2
:104F00004091F4035091F5036091E6037091E7033B
:104F10008091E8039091E9030E940C0CA301920197
:104F20000E94C3322B013C019B01AC010E94C332A1
:104F300069837A838B839C83A5019401C501B401A5
:104F40000E94C3329B01AC0169817A818B819C8173
:104F50000E9442300E942A330E9477316093B80544
:104F60007093B9058093BA059093BB05C501B40150
:104F70009F770E9477317093B6056093B505C301A2
:104F8000B2019F770E9477317093B4056093B305A7
:104F9000A30192015058C501B4010E94B53020917F
:104FA000B1053091B20506EA1FEF021B130B20EE8C
:104FB0003EE245E652E40E94C3320E947731C801C6
:104FC000860F971F0E9497130E94C1138093B70505
:104FD0000E94B216C701B6010E94A31D81E0809312
:104FE00098038091DB059091DC05A091DD05B091DF
:104FF000DE058C159D05AE05BF05B0F464E170E0DB
:105000008BED95E00E948C10EBDC80919803882357
:1050100059F080917403882339F08FE693E00E9461
:10502000A313C39708F0A8C08091D7059091D80525
:10503000A091D905B091DA058C159D05AE05BF0587
:1050400028F564E670E087ED95E00E948C107CDA2C
:105050009091850381E08927809385038823B1F0AF
:1050600080919303882369F08F5F8093930383304B
:1050700068F08091DA038F5F8093DA0310929303D4
:1050800005C08091DA038F5F8093DA038091D305A6
:105090009091D405A091D505B091D6058C159D05AC
:1050A000AE05BF0508F07EC064EF71E083ED95E0CA
:1050B0000E948C1081E0809375038093840390910B
:1050C000DB039F5F9093DB0390918103982790937C
:1050D0008103992309F466C080937B038091900338
:1050E000882399F08091400390914103A09142035D
:1050F000B09143030196A11DB11D8093400390938D
:105100004103A0934203B093430380911C0388237F
:1051100009F445C0809173038530A8F140C09330F5
:1051200008F4C2CE8CE0EEEEF3E0A2EEB3E0019024
:105130000D928A95E1F781E0809383038091AD051C
:105140009091AE05A091AF05B091B0058093A905EF
:105150009093AA05A093AB05B093AC05A5CE80FFB4
:105160009ECE20919203222309F499CE10928303BC
:105170008E7F80937E0393CE109274030E94DA0692
:105180001092980351CF809124068F5F809324065C
:10519000843010F00E944D061092730303C01092E9
:1051A0002406FACF2496E0E10C946C341F920F92FF
:1051B0000FB60F9211242F933F938F939F93AF932A
:1051C000BF938091250690912606A0912706B09165
:1051D000280630912D0623E0230F2D3720F4019669
:1051E000A11DB11D05C026E8230F0296A11DB11D0A
:1051F00020932D068093250690932606A0932706DC
:10520000B09328068091290690912A06A0912B063A
:10521000B0912C060196A11DB11D80932906909393
:105220002A06A0932B06B0932C06BF91AF919F91B5
:105230008F913F912F910F900FBE0F901F90189557
:105240002FB7F89460912506709126068091270665
:10525000909128062FBF08953FB7F89480912906B2
:1052600090912A06A0912B06B0912C0626B5A89BFA
:1052700005C02F3F19F00196A11DB11D3FBFBA2FE8
:10528000A92F982F8827820F911DA11DB11DBC0148
:10529000CD0142E0660F771F881F991F4A95D1F70D
:1052A0000895CF92DF92EF92FF92CF93DF936B013D
:1052B0007C01D2DFEB01C114D104E104F10471F0EF
:1052C000CBDF6C1B7D0B683E7340A8F381E0C81AEE
:1052D000D108E108F108C851DC4FEDCFDF91CF9143
:1052E000FF90EF90DF90CF900895019739F0880FED
:1052F000991F880F991F02970197F1F708957894E5
:1053000084B5826084BD84B5816084BD85B58260CA
:1053100085BD85B5816085BDEEE6F0E08081816068
:105320008083E1E8F0E01082808182608083808168
:1053300081608083E0E8F0E0808181608083E1EB40
:10534000F0E0808184608083E0EBF0E08081816028
:105350008083EAE7F0E080818460808380818260DE
:1053600080838081816080838081806880831092C7
:10537000C1000895833081F028F4813099F08230A3
:10538000A1F008958630A9F08730B9F08430D1F4C7
:10539000809180008F7D03C0809180008F77809303
:1053A0008000089584B58F7702C084B58F7D84BD59
:1053B00008958091B0008F7703C08091B0008F7DF9
:1053C0008093B0000895CF93DF9390E0FC01EE57F7
:1053D000F84F2491FC01EA56F84F8491882361F13B
:1053E00090E0880F991FFC01E254F84FC591D491C9
:1053F000FC01EC54F84FA591B491611109C09FB71D
:10540000F8948881209582238883EC912E230BC009
:10541000623061F49FB7F8943881822F809583239E
:105420008883EC912E2B2C939FBF06C08FB7F894E6
:10543000E8812E2B28838FBFDF91CF9108951F9392
:10544000CF93DF93282F30E0F901E259F84F849190
:10545000F901EE57F84FD491F901EA56F84FC4918B
:10546000CC23B1F0162F811185DFEC2FF0E0EE0F89
:10547000FF1FEC54F84FA591B4918FB7F894EC91BD
:10548000111103C0D095DE2301C0DE2BDC938FBF4A
:10549000DF91CF911F910895CF93DF93282F30E0B4
:1054A000F901E259F84F8491F901EE57F84FD49180
:1054B000F901EA56F84FC491CC2389F081115ADFE3
:1054C000EC2FF0E0EE0FFF1FE655F84FA591B491D9
:1054D000EC91ED2381E090E021F480E002C080E0D7
:1054E00090E0DF91CF910895A0E0B0E0EAE7FAE222
:1054F0000C94543490E0FC01EE57F84FA491FC0159
:10550000EA56F84F8491662311F0BA2F01C0B0E03B
:1055100089019A013F7090E0880F991F8655984F36
:10552000480159014FEF841A940AA40AB40AC12C05
:10553000D12C7601FC01C591D49168816A236B134B
:105540001AC05FEFC51AD50AE50AF50AC814D904CE
:10555000EA04FB0479F745C0460157016FEF861A4C
:10556000960AA60AB60AC016D106E206F30609F4A0
:1055700038C075016401FC01C591D49168816A232A
:105580006B13EACFB901A8014C195D096E097F09B7
:105590006A017B0120E030E0A901FC01C591D491B2
:1055A00068816A236B130AC02C153D054E055F0503
:1055B000C1F02F5F3F4F4F4F5F4FEFCFA5E1B0E0FE
:1055C0000E944434DC01CB014096A11DB11DBC01F9
:1055D000CD0124E096958795779567952A95D1F723
:1055E00003C060E070E0CB01CDB7DEB7ECE00C9417
:1055F00070348093110108958E3008F08E508770BA
:105600002091110190E4299F90011124822B809315
:105610007C0080917A00806480937A0080917A0087
:1056200086FDFCCF809178002091790090E0922B4C
:105630000895A0E0B0E0EFE1FBE20C9458346C0177
:10564000EB017B01E40EF51E00E010E0CE15DF0556
:1056500061F06991D601ED91FC910190F081E02D0E
:10566000C6010995080F191FF1CFC801CDB7DEB7E4
:10567000E8E00C947434FB0101900020E9F73197C5
:10568000AF01461B570BDC01ED91FC910280F381C9
:10569000E02D09950895EFCF0895DC01ED91FC917F
:1056A0000190F081E02D09950895A1E2B0E0EBE5CD
:1056B000FBE20C9454346C01142FE52FCB01022F24
:1056C00019A2223008F40AE07E0121E2E20EF11C68
:1056D000802E912CA12CB12C612F7E2FA50194013D
:1056E0000E94F133029F1019112481E0E81AF10899
:1056F0001A3014F4105D01C0195CF7011083122FE9
:10570000E32FCA01232B242B252B31F7B701C60128
:10571000B2DFA196ECE00C9470342115310549F408
:10572000DC01ED91FC910190F081E02D642F099551
:105730000895BBCF9A01AB0160E070E0EECFA0E02E
:10574000B0E0E5EAFBE20C9458348C016A017B017D
:105750002115310549F4DC01ED91FC910190F081B6
:10576000E02D642F09951AC02A30310599F477FF8E
:1057700010C06DE292DFEC0144275527BA014C19A5
:105780005D096E097F092AE0C8018FDF8C0F9D1F1C
:1057900005C02AE0B701A601C80187DFCDB7DEB793
:1057A000E8E00C9474349A01AB01770F660B770B29
:1057B000C6CFA5DD0E94AE21C6E9DCE23CD9209728
:1057C000E9F3B4D0FBCF9091C100892F807194FF91
:1057D0000EC09091B4068091B506981302C080E087
:1057E0000895E091B506F0E0EE5CF94F80810895F0
:1057F000E4EBF6E081818083E2EBF6E08081818357
:105800000895FC011382128229E231E03183208362
:1058100008959B01AC018091C10084FD1092C100EC
:105820001092B3061092B2061092B5061092B4060A
:105830002115310541055105F9F0211581EE380793
:105840004105510501F182E08093C00060E079E0FC
:105850008DE390E0C6D7DA01C9010197A109B1092A
:10586000AC01BD017695679557954795942F852F87
:105870008093C5009093C40088E98093C10086E0BE
:105880008093C20008951092C00090E180E0F0CFB4
:105890001092C10008959091C100892F807194FFEA
:1058A00006C08091B4069091B506891B8F77089544
:1058B000F2CF08959091C100892F807194FF14C098
:1058C0009091B4068091B506981302C080E00895C7
:1058D000E091B506F0E0EE5CF94F80819091B5065D
:1058E0009F5F9F779093B5060895E4CF08959091B8
:1058F000C10094FF15C09091B2069F5F93702091F4
:10590000B3069217E1F3E091B206F0E0E25DF94FE1
:1059100080839093B2068091C10080628093C10021
:105920000895862FE4DF81E090E008950895DC017A
:10593000ED91FC910190F081E02D099508950F9370
:105940001F93CF93DF938C01FB016491EF012196AC
:10595000662321F0C801EBDFFE01F7CFDF91CF9185
:105960001F910F910895A0E0B0E0E8EBFCE2A6C71C
:105970009E01275F3F4F4F81588560E08D819E815A
:1059800012D0E2E0B7C7A0E0B0E0E8ECFCE296C7D6
:105990009E01275F3F4F4F81588561E08D819E8139
:1059A00002D0E2E0A7C7A4E1B0E0E8EDFCE276C7F0
:1059B0007C016C871A016901CE0101964C01F1014D
:1059C0002C8520FD059120FF01911F01002309F482
:1059D0003DC3053241F420FD059120FF01911F01D7
:1059E000053261F405C00A3019F46DE0C7019FDF8C
:1059F000602FC7019CDF56016501E1CF10E0512CFB
:105A0000712CFFE1F715D8F00B3279F038F4003241
:105A100079F00332A1F4F72DF0612EC00D3261F060
:105A2000003369F4272D21602DC0872D8260782EE8
:105A3000972D9460792E2AC0E72DE86015C077FC79
:105A40002EC080ED800F8A3088F476FE06C02AE0F2
:105A5000129F800D1124182F19C09AE0599E800DB5
:105A60001124582EE72DE0627E2E10C00E3231F444
:105A700076FCECC2F72DF0647F2E08C00C3621F4C2
:105A8000272D2068722E02C0083649F4F1012C85BA
:105A900020FD059120FF01911F010111B2CF8BEB79
:105AA000800F833020F4872D8061005E07C08BE972
:105AB000800F833008F056C1872D8F7E86FF16E059
:105AC0008F73782E053611F4806403C0063619F4FE
:105AD0008068782E02C01111115077FE06C01C3369
