:1000000071C400000C949B200C94112193C4000037
:1000100091C400008FC400008DC400008BC4000098
:1000200089C4000087C4000085C4000083C40000A8
:1000300081C400007FC400007DC400007BC40000B8
:100040000C94402877C400000C94E50C0C940B0D24
:1000500071C400006FC400006DC400006BC40000D8
:1000600069C4000067C400005D197F198F199F19CA
:10007000A719D519DD19051A251A3B1A084AD73BC5
:100080003BCE016E84BCBFFDC12F3D6C74319ABD67
:1000900056833DDA3D00C77F11BED9E4BB4C3E918B
:1000A0006BAAAABE000000803F05A84CCDB2D44E7A
:1000B000B93836A9020C50B9918688083CA6AAAA7C
:1000C0002ABE000000803F0664EC1B3C04BC163EC8
:1000D0003BE5B93CC93C37C29E5A3D660498083E90
:1000E000EA69AAAA3E000000803F030201005363B0
:1000F0007265656E203000100E0F1123317A7A7A06
:100100007A7A0A0001000A006400E80320284E54AD
:1001100053432900202850414C290025372E3266B0
:100120000025362E3166009125372E326600A12536
:10013000372E3266001B010B681D050021018F68F8
:100140009D05002101147315050021011D730D0586
:100150000021011268110500270190760505002E87
:1001600001A0760105002101BD61090500210157AB
:1001700077FD0400210101669905004E6F20696E2C
:10018000707574206461746121202575FF00B8B911
:10019000002534690507002534690506006F76657A
:1001A000726C6F61640066726F7A656E0053747270
:1001B00065616D002534690500FF20CECECECE608E
:1001C000CECECECE00FF20202024CB7C40CB2400FE
:1001D0008280818081808480818081808380818011
:1001E000818085808180818020C8C8C8C87EC8C8B9
:1001F000C8C820FF0020202024CBB8B9CB24202061
:1002000020FF0025322E3066002520342E30660077
:100210002520342E3166002520342E3266005225EA
:10022000332E306605005025332E306605004825F4
:10023000332E306605004225352E316605004525F2
:10024000352E3166004525342E30666D0073452508
:10025000352E3166001E026E6997050026026E6912
:100260009505002E026E69930500360254699105CA
:10027000003E0241688D0500450258698305004D26
:100280000241738905002090910025352E316600CA
:10029000432564253569FF002569002E2534640057
:1002A00025303269FF003A253032693A0020207843
:1002B00020207920207AFF0020B3FF20B3FF20C543
:1002C000FF20B3FF20B300B2FFB2FFC6FFB2FFB200
:1002D00000B0B1B4B5B6B77B7D24504E4D52583105
:1002E00030302C302C35373630302C302A37300A2D
:1002F0000024504D544B3232302C3230302A3243AD
:100300000A0024504D544B3235312C3537363030BD
:100310002A32430A0024505542582C34312C312CB7
:10032000303030332C303030322C35373630302CC2
:10033000302A32450A0024505352463130302C3195
:100340002C35373630302C382C312C302A33360AC5
:100350000042616420436F6E6669673A202564201D
:100360006D79203739004D696E696D4F53442D45C5
:1003700078747261204E4D454120322E34FF756EE7
:10038000692072393337204D4DFF0015711B000174
:100390002A080002230800037414BC8440142605B4
:1003A0003D080007EB0E0034750C0335710C041882
:1003B00001090006BA130008940E0009611B00250C
:1003C000D311008BDE100B0A94080019880C000D65
:1003D000B9135C1138131116F510121244111417C9
:1003E0003C1113136209021431087F0F9914BD2EBA
:1003F000F409571BCC141D9CE90F151DCF11000EDD
:100400000915091E70150021BF090020CD0C00221E
:10041000FE108F24E3121F2BE1091F2CB20F002DB9
:100420008C0F002F6F0F00A7B00D00A8AD0D00A915
:10043000AA0D00AAA70D001FF00B0026930B003099
:10044000C2070031DA0800336C090023710E003254
:10045000080E009A041200000000008D040C000039
:100460006F04058F0B4D0709B30D000000000085D8
:1004700005680000006B05664204257805664604A1
:10048000254F05664A04255D05664E04253806009D
:100490000000002806421904001906425204000B0D
:1004A0000662180410F90562170410E805621F04BB
:1004B00010DB0562200410CB0500000000BD0562C2
:1004C000570411B40562160412A4055A5404139675
:1004D000057A53041405050005FB040000FF000124
:1004E00000040000000300E1FF1F00F1FF0F00FC0B
:1004F000FF0400C0E0401F9CFF6400252E3366000F
:10050000252E30660025332E3166760034202852A1
:1005100053534929204B0033202843757272656E6E
:100520007429204B00322028563229204B002020ED
:1005300020202020204100312028563129204B0046
:1005400020202050696E2053656E736F72730052C5
:100550006F6C6C2020696E204E54534300506974B8
:10056000636820696E204E54534300526F6C6C20B8
:1005700020696E2050414C00506974636820696E98
:100580002050414C002020486F72697A6F6E2061C4
:100590006E676C657300566572746963616C206F79
:1005A00066667300486F72697A6F6E74616C206F53
:1005B00066667300436F6E74726173740053637286
:1005C00065656E7320436F756E74002020536372EF
:1005D00065656E20706172616D73005253534920DE
:1005E0007761726E696E670042617474206368613E
:1005F000726765207761726E004F76657273706501
:100600006564207761726E696E67005374616C6C0B
:10061000207761726E696E670042617474203220C7
:100620007761726E696E67004261747465727920D9
:100630007761726E696E67002020204F53442073EB
:1006400065747570002E25303264004325692000E2
:100650006D5F25640063065D0670066A0625392E07
:100660003566002531302E3666002530356C640045
:100670002530366C6400F106E806DD06D006C506B6
:10068000B806AC06A10695068A0646656E63652027
:10069000466172210046656E63652048696768217E
:1006A0000046656E6365204C6F772100426174746B
:1006B0002042206C6F77210048696768205653708C
:1006C0006565642100204C6F7720527373692100A7
:1006D00042617474657279204C6F7721004F7665A2
:1006E000725370656564210020205374616C6C2125
:1006F000004E6F2047505320666978210025342E24
:1007000030660025342E31660025342E32660025F1
:10071000352E32660025326900253369002534699B
:100720000025332E30660052B80E4085EB5140193B
:1007300066BB0012800C1CA0141E6666664000009A
:10074000803F100CBA000A00001BE8031A400500A5
:100750000000003705738002252E057384022725CB
:1007600005730000252E0573000027170573000090
:10077000262E05730000270C05730000262E057336
:10078000000027000000070002010000030406002B
:100790000000000000000001020408102040800159
:1007A00002040810200102040810200404040404B8
:1007B000040404020202020202030303030303000F
:1007C000000000230026002900000000002500286A
:1007D000002B0000000000240027002A006E616E3C
:1007E00000696E660000407A10F35A00A0724E183D
:1007F000090010A5D4E80000E87648170000E40BD3
:1008000054020000CA9A3B000000E1F50500008098
:10081000969800000040420F000000A086010000F2
:1008200000102700000000E8030000000064000042
:100830000000000A00000000000100000000002C81
:1008400076D888DC674F0823DFC1DFAE59E1B1B746
:1008500096E5E3E453C63AE651997696E8E6C28413
:1008600026EB898C9B62ED407C6FFCEFBC9C9F402B
:10087000F2BAA56FA5F490055A2AF75C936B6CF950
:10088000676DC11BFCE0E40D47FEF520E6B500D026
:10089000ED902E0300943577050080841E0800003B
:1008A000204E0A000000C80C333333330F986E1209
:1008B000831141EF8D2114893BE65516CFFEE6DB0F
:1008C00018D1844B381BF77C1D901DA4BBE4242059
:1008D0003284725E228100C9F124ECA1E53D27003B
:1008E0003307772411241FBECFEFD8E0DEBFCDBF82
:1008F00011E0A0E0B1E0E6E8F8E602C005900D9254
:10090000A434B107D9F726E0A4E4B1E001C01D92F8
:10091000AC33B207E1F714E0C2E7D4E004C021979A
:10092000FE010E94D533C037D107C9F70E94432B7F
:100930000C94BA2F65CBFA01AA27283051F1203147
:1009400081F1E8946F936E7F6E5F7F4F8F4F9F4F63
:10095000AF4FB1E03ED0B4E03CD0670F781F891FA5
:100960009A1FA11D680F791F8A1F911DA11D6A0F73
:10097000711D811D911DA11D20D009F468943F9126
:100980002AE0269F11243019305D3193DEF6CF0125
:100990000895462F4770405D4193B3E00FD0C9F7EB
:1009A000F6CF462F4F70405D4A3318F0495D31FD58
:1009B0004052419302D0A9F7EACFB4E0A6959795AB
:1009C000879577956795BA95C9F700976105710581
:1009D00008959B01AC010A2E0694579547953795CB
:1009E0002795BA95C9F7620F731F841F951FA01D25
:1009F0000895283008F027E03327DA01990F311DD8
:100A000087FD916000966105710539F432602E5FB3
:100A10003D9330E32A95E1F708959F3F30F0803809
:100A20007105610509F03C5F3C5F3D93913008F032
:100A30008068911DDF93CF931F930F93FF92EF92E6
:100A4000192F987F9695E92F96959695E90FFF2790
:100A5000E15CF74F99273327EE24FF24A701E70134
:100A600005900894079428F4360FE71EF81E491FD6
:100A7000511D660F771F881F991F0694A1F70590D7
:100A8000079428F4E70EF81E491F561FC11D770F63
:100A9000881F991F661F0694A1F70590079428F4F4
:100AA000F80E491F561FC71FD11D880F991F661FBB
:100AB000771F0694A1F70590079420F4490F561F5D
:100AC000C71FD81F990F661F771F881F0694A9F7A5
:100AD00084911095177041F0D695C7955795479515
:100AE000F794E7941A95C1F7E5EEF7E0689415904E
:100AF000159135916591959105907FE27395E11877
:100B0000F10A430B560BC90BD009C0F7E10CF11EDB
:100B1000431F561FC91FD01D7EF4703311F48A95F0
:100B2000E6CFE894015030F0080F0AF400270217CE
:100B300008F4202F2395022F7A3328F079E37D9350
:100B40002A95E9F710C07D932A9589F60694979522
:100B50006795379517951794E118F10A430B560BD3
:100B6000C90BD00998F023957E9173957A3308F0DC
:100B700070E37C932013B8F77E9170617D9330F021
:100B8000839571E37D9370E32A95E1F71124EF904B
:100B9000FF900F911F91CF91DF91992787FD90953D
:100BA000089580E0089580E0089580E00895089514
:100BB0006FE070E080E090E00C94BB28682F80E04C
:100BC0000C94480F882311F080E401C080E09091DC
:100BD0002603981741F0809326035E9880912603A0
:100BE0008C61ECDF5E9A08955E988091110481FD1E
:100BF00006C08091100483FF1AC081E019C080EA0A
:100C00000E94530F80FF06C081E0DCDF809110045A
:100C1000886007C081FF08C080E0D4DF80911004A5
:100C2000877F8093100405C082FDE3CF02C080E07F
:100C3000C9DF5E9A0895CF93DF93E0911604E43004
:100C400008F0E0E0F0E0E651FF4FC49180E1D1E030
:100C5000D80F6C2F0E94480F8D2FD032C1F7DF9133
:100C6000CF9108955E98E7DF6091540482E00E947E
:100C7000480F6091530483E00E94480F5E9A0895E4
:100C80005E988CEE0E94530F682F6F7E8CE60E9458
:100C9000480F62E18CE00E94480F809126038C632C
:100CA0008DDF0E94E917809126038C6187DFDACF00
:100CB000CF93DF935E98C0E1DFEFC15049F480919C
:100CC000260382607BDF74DFDBDFDF91CF91089545
:100CD00080EA0E94530F877091F784E0815031F0D1
:100CE000DEBD0DB407FEFDCF9EB5F8CF61DFE5CFC9
:100CF00061E086E00E944D2962E082E00E944D2979
:100D000061E08AE00E944D2961E08AE00E94892921
:100D1000CFDF6ADFB5CF209127038091280390E0D1
:100D20003EE1239F800D911D1124909345018093F6
:100D3000440108958F71809328036F706093270397
:100D400080912603803411F0673008F4E4CF6350BB
:100D500060932703FBCF90912703690F909128039D
:100D6000890F9EE1699FB0011124680F711D709376
:100D7000450160934401089520914401309145015B
:100D8000203E91E0390758F4A9014F5F5F4F50931F
:100D9000450140934401F901EA5BFE4F80830895C9
:100DA0008F3F31F4809127038F5F80932703B3CF68
:100DB000E3CF862FF5DF81E090E00895CF93C42F35
:100DC000CADF8C2FEDDFCF9108955E9860E085E05B
:100DD0000E94480F60E086E00E94480F61E084E0D6
:100DE0000E94480F5E9AE6E4F1E080E25E9890810E
:100DF0009EBD0DB407FEFDCF9EB581935E9A93E034
:100E0000E632F90798F35E988FEF8EBD0DB407FEBA
:100E1000FDCF8EB55E9A0895A1E0B0E0E2E1F7E083
:100E20000C9404341CBC8F7280658CBD8DB58160C0
:100E30008DBD8DB589838EB589832196E2E00C94B2
:100E4000203461E08DE00E944D2961E08BE00E943A
:100E50004D2960E08CE00E944D2961E08AE00E940B
:100E60004D2980E0D9CF89E293E0EBCFE82FF0E085
:100E7000EE0FFF1FED5EFE4F20813181662329F0CA
:100E800040E253E088E998E004C048EE53E080ED8A
:100E900097E02417350780F0241B350B841B950B36
:100EA00065E070E00E947033C9010E947033862FA4
:100EB000653018F084E0089580E00895A3E1B1E082
:100EC000E6E2F5E080819181883E934028F48D919F
:100ED0009C911197918380833296129685E0EE3231
:100EE000F80781F7089590E0880F991FDC01AD5E47
:100EF000BE4FFC01EA5DFA4F8D919C9120813181BA
:100F0000821B930B0895E091250535E0E39FF001E6
:100F10001124E35AFB4F9491915020910A01609162
:100F20005A0370915B0387FF03C0222339F004C08A
:100F3000882311F0291721F0280F03C0292F01C0A1
:100F400020E0FB0136E0239FE00DF11D11243396D4
:100F500045915491452B39F320930A010895692F47
:100F6000E9CE7F936F939F938F9380E393E09F935A
:100F70008F930E942E2C0F900F900F900F900F9038
:100F80000F900895A0E0B0E0E8ECF7E00C94FD339A
:100F9000B92EC090D304D090D404E090D504F09042
:100FA000D604C701B60120E137E240E050E00E94DC
:100FB0009733C22FD0E020E137E2C29FC001C39F28
:100FC000900DD29F900D1124092E000CAA0BBB0B83
:100FD000C81AD90AEA0AFB0AC701B60124E630E0BA
:100FE00040E050E00E949733022F10E034E6239F48
:100FF000C00111248053984F092E000CAA0BBB0B83
:10100000C81AD90AEA0AFB0AB6FE0CC0BE0186E479
:1010100096E0A7DFB80185E496E0A3DFB6018BE98F
:1010200092E00BC0B6018DE197E09BDFB80185E44B
:1010300096E097DFBE0185E496E093DFCDB7DEB79B
:10104000E9E00C9419346091EC037091ED0387E9A9
:1010500091E087CF6091EA037091EB0381E991E021
:1010600080CF60E070E080E596E07BDF80918A03CE
:10107000882311F086E894CE08951F93CF93DF93D1
:10108000C82F192F80915805823019F020F0DFE029
:1010900003C0DFE101C0DAE2809181059091820511
:1010A000883C910520F080918F038111D0E2C0959A
:1010B000CC1FCC27CC1F11F016FF0DC06091590535
:1010C00070E085E197E04DDFCC2341F016FF06C0CC
:1010D0008D2F66DE03C08D2F63DEF0CFDF91CF91C1
:1010E0001F910895CF93DF9388E85ADECCE0D1E0DA
:1010F000888156DE898154DE8EE852DEDF91CF9101
:101100000895CF93813110F08051FCCF811101C03F
:1011100080E1880FCEEFC80F80E98C0F41DE81E9B6
:101120008C0F3EDECF910895CF9380919103882359
:1011300061F0C92F80915105E4DFC6FF06C06091C0
:10114000510570E089E197E00CDFCF910895EF92AF
:10115000FF920F931F93CF93DF938C01D62FC42F51
:101160006CE370E00E9470337C0189E197E0F9DE66
:10117000CC2341F0B70186EA92E0F3DECF776C2F03
:1011800070E010C0DD2331F080918F03882311F0CF
:1011900080E201C08AE304DEC8016CE370E00E94D3
:1011A0007033BC0180EA92E0DCDECDB7DEB7E6E06A
:1011B0000C941C34CF9380919E038823D9F0C92FBF
:1011C00060914E0370914F038091500390915103B1
:1011D0002CE330E040E050E00E949733DA01C9018F
:1011E000C5FF04C0462F406860E003C06C2F6074E8
:1011F00040E0ADDFCF91089540E060E0A8CF85E208
:10120000CFCD1F93CF93DF93382F192F20917605E1
:101210002F55C0917805263008F046C0D0E080E018
:101220009C2F64E670E00E947033CB016138710539
:1012300040F029E820930C0180589109EDE0F1E09D
:1012400012C02DE820930D016231710550F42091F8
:101250008F03222331F020E220930C0120930D0113
:1012600009C0ECE0F1E06AE170E00E9470332DE823
:10127000261B208337FF36DF16FF06C0BE0185E13F
:1012800097E06FDEBCDF1AC06091990570919A05F6
:1012900080919B0590919C050E941D318DE197E006
:1012A00060DE81E07DDD0AC024E6C29FC00111241A
:1012B0006FEF70E00E948433EB01B1CFDF91CF91EB
:1012C0001F91089560E070E089E197E04ADE97CFD2
:1012D00080E266CD8FEF64CDEF92FF920F931F9364
:1012E000CF9304E313E0C0E096FD1CC089E0E82E34
:1012F000F12CF801819191918F018C549440B701A8
:101300000E94703386E496E02CDEC13011F4E2DFF7
:1013100001C0DEDFCF5FC43061F70FC0D9DFCF5F20
:10132000C43059F0F801619171918F018DE197E01E
:1013300018DEC13099F7CEDFF2CFCF911F910F9118
:10134000FF90EF900895CF93C22F7F936F935F9399
:101350004F939F938F9380E393E09F938F930E948B
:101360002E2C8DB79EB708960FB6F8949EBF0FBE71
:101370008DBFCC2311F08C2F13DDCF910895CF9327
:1013800080917F0590918005FC013A96C491329638
:10139000E491FC013D966591749180E090E00E949B
:1013A0004E312AE037ED43E25CE30E946932AB0143
:1013B000BC012C2F8AE892E0C6DFCF91089520E08F
:1013C000C2CF609181057091820580E090E00E941B
:1013D0004E312AE037ED43E25CE30E946932AB0113
:1013E000BC0189E097E0EBCF40910C0450910D04D3
:1013F00060910E0470910F0481E297E0E0CFABE0C2
:10140000B0E0E5E0FAE00C94F433809126038034F8
:1014100089F48090460490904704A0904804B090CE
:101420004904C0904204D0904304E0904404F090FA
:10143000450410C080904E0490904F04A09050043A
:10144000B0905104C0904A04D0904B04E0904C04FA
:10145000F0904D048091EC039091ED03BC01990F45
:10146000880B990B0E9450319B01AC01C701B6015A
:101470000E9469326B017C0180917B0380FF04C074
:10148000F7FAF094F7F8F094C701B6010E941D3105
:10149000AB016A35710540F09B012D543F4F293552
:1014A000310580F477FDA901473451052CF54A3107
:1014B000510534F54A30510540F128E02A8713EFF1
:1014C00030ED27C06B3571051CF0AB01435B510952
:1014D000CA0157FF03C09195819591098734910501
:1014E000D0F48A319105E0F40A9700F148E04A8788
:1014F00015EF82EE8B871FC01A861DEC91EC14C08D
:10150000E7E0EA8718EFF9ED15C029E02A871DEC1E
:1015100036EC3B8710C01A861DEC41EC4B870BC0A4
:1015200087E08A871BEF9BEE9B8705C0E9E0EA878F
:101530001DECF6ECFB8727EA32E94BE25CEBC501D8
:10154000B4010E9469324B015C0125E33AEF4EE899
:101550005CE3C701B6010E9469326C837D838E8390
:101560009F839CE0292E312C19822A85022E000CA3
:10157000330B398728878981C82E880FDD08609151
:10158000EA037091EB036C0D7D1D072E000C880B98
:10159000990B0E945031A50194010E9469320E946A
:1015A000113320E030E044EB52E40E9469322B0119
:1015B0003C0120E030E0A9010E945E3220E030E0F2
:1015C00040E05FE387FD0BC0C301B2010E94E82F3A
:1015D0000E941D317B01EDE2EE0EF11C0AC0C30139
:1015E000B2010E94E72F0E941D317B01FDE2EF0E48
:1015F000F11C0DE00219222733272C193D093B83EA
:101600002A83802F90E0281639060CF46FC06C8175
:101610007D818E819F810E9411332B013C013CE032
:10162000039F602D11246E54062E000C770B880B3F
:10163000990B0E9450319B01AC01C301B2010E9481
:1016400069320E941D31F701E60FF71FCF010197A4
:101650008A35910508F048C062E170E00E94843349
:101660003B014A85442379F031962EEE2603C001D2
:10167000279F900D1124E80FF91FF7FD3196F5957E
:10168000E7955E2E01C0512C64E066198FEF800F44
:1016900062DB3981332379F0053069F4B601D7FE76
:1016A00002C06A817B814AE050E080E393E00E94BF
:1016B0003D2B06E003C08B85850D72DB5520A1F024
:1016C000252D30E088859985281739076CF094E03E
:1016D0006916710449F0E52DE10F4AEF4E0F63E002
:1016E00066198FEF800F6ADB0F5F8BCFF7FE0BC0A1
:1016F000E981E25EE98334E0231A310844E02416EC
:10170000310449F038CFFBE5EF16F10424F02981CC
:101710002E512983F0CF2B96E2E10C94103466E031
:1017200089E008DB6CCE0F931F93CF93DF9320915A
:10173000AD03222309F44DC04091AB035091AC039B
:1017400020913D0530913E054217530709F441C0F1
:10175000692F9091AA032AE1291B27FD0AC026952B
:10176000820FE8DA6DEA73E080E393E00E94B52A25
:1017700032C066FD1CC0219530E08091E803909155
:10178000A803891B90E0B901660F771F0E9484337C
:101790004091A10341110DC0009729F0215031095A
:1017A0008217930731F421E02093A10302C080E067
:1017B00090E0EC01C355DC4F8E01065E1F4F89910E
:1017C000811102C085DD07C0EBDAC017D107B9F778
:1017D000F9CF1092AD03DF91CF911F910F91089532
:1017E000292F80913D0590913E058F73992702978F
:1017F00010F026FF06C061E274E080E393E00C94F1
:10180000B52A08950E94E72F20EC3BE649ED57E406
:101810000C946932CF92DF92EF92FF92CF93C42F54
:101820006B017C01E894F7F8C701B6010E941D31F5
:10183000072E000C880B990B0E9450319B01AC01C4
:10184000C701B6010E94E72F9B01AC01C11105C081
:1018500060E074E284E799E404C060E070E583EC42
:1018600097E40E9469320E941D31CF91FF90EF9062
:10187000DF90CF900895CF93DF93282F86FB4427E6
:1018800040F9E42FF0E0DB016D917D918D919C9109
:10189000EE0FFF1F25FF1AC0E75AF94FC591D491EB
:1018A000B9DF9F938F937F936F93DF93CF9380E301
:1018B00093E09F938F930E942E2CADB7BEB71896DE
:1018C0000FB6F894BEBF0FBEADBF08C0EB5AF94FBC
:1018D00025913491AB01BC01C90171DDDF91CF913C
:1018E000089560E074E0892FC6CF6CEF73E0892F14
:1018F000C2CFCF93C42F28EE33E040E050E00E94E7
:101900009733DA01C90140E06C2F21DCCF910895B3
:10191000492F40746091630570916405809165055D
:1019200090916605E6CFCF93C82F6091B704709170
:10193000B8048091B9049091BA040E941D3161509D
:1019400071096F30774280F4C7FD02C086E128DA62
:101950004091B7045091B8046091B9047091BA04F1
:1019600021E08DEF96E0EFDCCF9108957F936F93A8
:101970009F938F9380E992E09F938F9380E393E00E
:101980009F938F930E942E2C8DB79EB708960FB60B
:10199000F8949EBF0FBE8DBF08950F931F93CF93F2
:1019A000DF9303E111E080E090E0F8016191719133
:1019B0008F01EC012196CE01D9DFCE012897A9F73E
:1019C000DF91CF911F910F9108951F920F920FB643
:1019D0000F9211242F938F939F93EF93FF939091E6
:1019E000C60080913A068F5F8F7720913B06821761
:1019F00041F0E0913A06F0E0E854FA4F908380938A
:101A00003A06FF91EF919F918F912F910F900FBE0A
:101A10000F901F9018951F920F920FB60F921124DE
:101A20008F939F93EF93FF9390913906809138069F
:101A3000981779F0E0913906F0E0EC54FA4F808184
:101A40008093C600809139068F5F8370809339063A
:101A500005C08091C1008F7D8093C100FF91EF91FF
:101A60009F918F910F900FBE0F901F901895EF923E
:101A7000FF920F931F93CF93DF938C01040F151FD9
:101A8000EC017B01E81AF90AC017D10739F0C70148
:101A90008C0F9D1F0E942B348993F6CFCDB7DEB7F4
:101AA000E6E00C941C34A8E1B0E0E9E5FDE00C941C
:101AB0000334182F88E1189FB001112460587D4F1E
:101AC00048E150E0CE010196D2DFE12FF0E0EE0FC9
:101AD000FF1FE759FC4F6081718180E090E00E9418
:101AE0004E3129813A814B815C810E9469322D817E
:101AF0003E814F8158850E94E82F9F938F937F935B
:101B00006F93CE0109969F938F9380E393E09F9309
:101B10008F930E941E2C0FB6F894DEBF0FBECDBF70
:101B20006896E3E00C941F34982F262F30E0F901DB
:101B3000EB59FC4F87FD09C0862F41E04083F90136
:101B4000EF59FC4F90749083AECF1082089563E0FC
:101B5000892FEACF62E0892FE7CF61E0892FE4CFB8
:101B600060E0892FE1CFCF936AE086E0E3D8C0E060
:101B70008C2F99DFAFDBCF5FC430D1F7CF910895C1
:101B8000A0E0B0E0E6ECFDE00C94FF33EB017C015B
:101B90008B01040F151FC017D10771F0F701D19009
:101BA0007F01CE010E942B348D1521F06D2DCE01C9
:101BB0000E9433342196EFCFCDB7DEB7E7E00C9427
:101BC0001B34EF92FF921F93CF93DF93182F7B016B
:101BD000C0E0D3E0CE010E942B348F3F71F0811121
:101BE00003C0112351F01150111102C0F7010995E2
:101BF0002196C038F3E0DF0769F7DF91CF911F919D
:101C0000FF90EF900895BC0180E393E00C940A2CC0
:101C10001F93CF93DF93182FD92F87FD0EC096FF08
:101C200004C0C0E088EB92E003C0C1E087EC92E022
:101C3000EADF812F9D2F93D901C0C0E08091A105DB
:101C40009091A205A091A305B091A405BC01CD017E
:101C500090589B01AC010E94E82F0E941D31809199
:101C60007B0382FF05C0CB016CE370E00E948433EC
:101C7000D5FF05C0CB016AE070E00E948433D4FF39
:101C800006C077FF02C06F5F7F4F7595679516FF9F
:101C900008C077FF02C06D5F7F4F7595679575959A
:101CA00067959B01235D3F4F37FF02C02F5F3F4F7A
:101CB000C9019595879569E070E00E94843365308D
:101CC0002CF467FD06C04FEC481B05C04EE764E0EE
:101CD00002C040E660E08C2F71D8DF91CF911F9158
:101CE0000895CF93DF9387FD03C08DEA92E08BDFE9
:101CF000C2E4D3E0499159916991799181E297E0E9
:101D00005EDB83E0CE34D807A9F7E4DACCE3D3E096
:101D10006991799189E197E024D983E0C234D807A9
:101D2000B9F7DF91CF910895FF920F931F93CF934F
:101D3000DF93F92E8095D82FDD1FDD27DD1F092FBA
:101D40000072DD2339F096FD05C00023A1F185EF77
:101D500091E059DF83EC24D820914B0530914C055C
:101D600048E1429FC001439F900D11240C9668E604
:101D700071E00E94843364507109C62F77FF02C05E
:101D8000C8E1C60F011102C019E001C01AE0EC2F32
:101D9000F0E0E053FE4F849103D8CF5FC83108F0E4
:101DA000C0E01150A1F787E80E94D006DD2371F052
:101DB000F6FC04C00BC088EE91E0CBCF011103C04C
:101DC00089EB91E002C085EC91E01DDFCDB7DEB775
:101DD000E5E00C941D341F93CF93DF9340910004F2
:101DE000509101046091020470910304452B462B2D
:101DF000472B69F44091FC035091FD036091FE0371
:101E00007091FF03452B462B472B09F43DC094FDF1
:101E100002C01FEF01C010E2EC0180918F03882304
:101E2000D9F080919B038A3048F08DEA91E0EBDE97
:101E3000812F0E94D00686EA91E00CC080919C031D
:101E40008A3050F08DEA91E0DEDE812F0E94D006CC
:101E50008DE991E0D8DE18C0C095CC1FCC27CC1FEF
:101E600019F083E00E94D0066CEF73E08D2F03DD44
:101E7000812F0E94D006CC2319F084E00E94D00666
:101E800060E074E08D2FF7DCDF91CF911F91089512
:101E90008EBD0DB407FEFDCF8EB56EBD0DB407FE31
:101EA000FDCF8EB508958EBD0DB407FEFDCF8EB566
:101EB0008FEF8EBD0DB407FEFDCF8EB5089595FB57
:101EC000222720F994FD02C090E001C092E0922BFD
:101ED00086FD02C080E001C084E0892B08951F9335
:101EE000CF93DF93182FEBDF8C5FC82FD0E017FD67
:101EF00006C0BE016F5F7F4F8BE496E032D8CC0FF7
:101F0000DD1FCD5EDE4F688179818DE197E029D8B4
:101F1000DF91CF911F9108951F93CF93DF93182FD7
:101F2000C92FCDDFD4E0D80F17FD07C06D2F70E0AB
:101F30006F5F7F4F88E992E014D86C2F60748D2F0B
:101F40000E943607D82FC0E0CD1302C081E801C03F
:101F500080E80E94D006CF5FC530B1F7DF91CF9106
:101F60001F9108951F93CF93DF93182FC92FA7DFD9
:101F7000D4E0D80F17FD08C06D2F70E06F5F7F4F62
:101F80008BE496E00E94B1076C2F60748D2F0E9445
:101F9000360760ED76E015DEDF91CF911F91089551
:101FA00096FB222720F930E095FD03C080E090E009
:101FB00002C082E090E0282B392B215031092330D8
:101FC000310528F4F901E05FFE4F8081089580E03B
:101FD0000895CF92DF92EF92FF92CF93DF93D82FA5
:101FE000C92FDEDF80930901C7FD46C0C4FF2AC0A8
:101FF00081E08093960329E838E848E85CE3609143
:10200000A1057091A2058091A3059091A4050E945D
:1020100069326B017C010E941D319B0177FF04C076
:1020200022273327261B370B2A303105FCF4D6FD37
:1020300003C087E192E002C080E192E028E1B701AD
:10204000A60112C010929603E0917F05F0918005E1
:10205000729624914091A1055091A2056091A3052B
:102060007091A40589E092E06ED906C0243631054E
:102070001CF389E092E0E2CFDF91CF91FF90EF90E7
:10208000DF90CF900895A2E0B0E0E9E4F0E10C9495
:10209000043490913605682F70E0660F771F80E852
:1020A000989F600D711D112442E050E0CE01019611
:1020B000DEDC89819A812296E2E00C9420340F9331
:1020C0001F93CF93DF93EC018B010E948A28DC01E0
:1020D000CB01800F911FA11DB11D88839983AA8315
:1020E000BB83DF91CF911F910F9108959B01FC015C
:1020F0004081518162817381420F531F611D711DA7
:1021000040835183628373830895E0917F05F0914A
:102110008005349665917591859194910895CF923B
:10212000DF92EF92FF92CF93DF936B017C01EDDFA3
:10213000A70196010E9469326B017C0120E03CE31B
:102140004CE156E40E94AE30C0917F05D0918005ED
:10215000FE0118163CF039962491B701A6018DEFC7
:1021600096E024C070966591749180E090E00E94A2
:102170004E319B01AC01C701B6010E94B5306B0125
:102180007C010E941D316A30710534F0643671059E
:1021900034F08DEF96E005C089E097E002C083E05F
:1021A00097E0FE013F962491B701A601CCD8DF91BC
:1021B000CF91FF90EF90DF90CF90089596FB882706
:1021C00080F98093A00380919103882369F097FDA3
:1021D0000BC0609152057091530580915405909108
:1021E00055050E9450319BCF08956091470570912D
:1021F00048058091490590914A0591CF60919D05D0
:1022000070919E0580919F059091A00588CFE091E7
:102210007F05F09180056591759185919491089560
:10222000CF92DF92EF92FF921F93CF93DF93EC0157
:102230006A017B01122FEBDFA70196010E94693230
:10224000112341F024EE38E34EE85EE30E94693248
:1022500028E106C0E0917F05F09180053896249131
:10226000AB01BC01CE016FD8DF91CF911F91FF90E0
:10227000EF90DF90CF900895292F207440E050E038
:10228000BA0181E297E0CCCF292F207440913F051D
:1022900050914005609141057091420581E297E0BF
:1022A000BFCFA0E0B0E0E7E5F1E10C94FE33EC0134
:1022B000D62EFE01059114910115110509F46AC08D
:1022C000FE013296849181110E94D006FE01339660
:1022D00084913196E590F490893691F030F481360E
:1022E00009F43CC08836C1F004C08337E9F0863772
:1022F00019F150E2C52E60E070E080E89FE337C03E
:10230000F70160817181072E000C880B990B0E94E8
:10231000503140E2C42E32C0E0917F05F09180053B
:102320003996C490F2DE23C0E0917F05F0918005DC
:102330003896C4906CDF1BC0E8DE20919603211113
:1023400014C0E0917F05F09180057296C49020E062
:1023500030E040E752E40E94693209C031E4C32E04
:102360006AE077ED83E29CE302C028E1C22EF70128
:1023700020813181428153810E9469322C2DAB0131
:10238000BC01C8010E94A3090E946A092796DA9439
:10239000D1108FCFCDB7DEB7E8E00C941A3467E0E8
:1023A00085E592E07ECFCF93DF93D82FC92F0E948F
:1023B000AF0788E00E94D0066091630570916405C4
:1023C000809165059091660540E093DA6AE085E3C7
:1023D00091E067DFC6FF05C06C2F8AE08D0F0E9479
:1023E0009A0683E00E94D0066CEF73E080E043DA47
:1023F0000E946A0984E00E94D00660E074E080E0F8
:102400003ADADF91CF9108951F93CF93DF938091B4
:102410008903882309F4C1C010928903F8DE609112
:102420007D0570917E0580919503882351F021E010
:1024300090E080915805823008F020E0C22FD92F1B
:1024400002C0C0E0D0E0E0911404E11108C0809126
:102450001804882321F080918E0380FDC2603091A2
:1024600078052091760540911904442369F0CB0149
:1024700064E670E00E9470336115710529F0842FC5
:1024800090E068177907E4F040911F044423C9F0F5
:1024900054E6359FC0011124322F27FF02C031E0DE
:1024A000320F3595830F911D37FD9A95622F220FBC
:1024B000770B0E948433842F90E0681779070CF41F
:1024C000C86080911E0480FD0BC08091200490E0C4
:1024D0002091E2033091E3032817390708F4C06123
:1024E0008091A1059091A205A091A305B091A405AA
:1024F000E130A1F410911804112381F0BC01CD0149
:102500009F770E941D31CB016AE070E00E94843306
:10251000812F90E0861797070CF4C06280917B05AD
:1025200090917C0520915204222371F064E670E0C2
:102530000E9470336115710539F0822F90E06817A1
:10254000790714F4C06405C0209719F410922B0386
:1025500024C090912B0381E09111890F80932B036C
:1025600080912B034FEF480F21E030E002C0220F93
:10257000331F4A95E2F78B3018F081E021E030E01C
:10258000A9014C235D23452B21F48F5F220F331FBC
:10259000F2CF80932B038917C9F2E0912B03EE232E
:1025A00041F0F0E0EE0FFF1FEC58F94F8591949148
:1025B0002ADBDF91CF911F9108952FE632E143E8A6
:1025C0005AE30C946932CF92DF92EF92FF92CF934D
:1025D000DF93C091BB04D091BC0497DD6B017C01FB
:1025E0002AEF2C9FC0012D9F900D1124BC01990F43
:1025F000880B990B0E9450319B01AC01C701B601B9
:102600000E946932E0917F05F0918005A8974CF017
:102610003F96C491D2DFAB01BC012C2F89E097E03B
:1026200006C039962491AB01BC018DEF96E00E9463
:10263000A309DF91CF91FF90EF90DF90CF900895A5
:10264000CF93DF93611103C0CFE0D7E002C0C3E0B6
:10265000D7E0BC0180E090E00E944E31AEDFAB01DC
:10266000BC012DE0CE010E94A309DF91CF91089516
:102670000F931F93292F207495FF15C06091470574
:10268000709148058091490590914A05222321F1D6
:1026900020914305309144054091450550914605F0
:1026A0000E94E72F19C06091040470910504809185
:1026B000060490910704222361F00091F803109121
:1026C000F9032091FA033091FB03601B710B820B1D
:1026D000930B0E94503171DF22DD1F910F910895FD
:1026E00020913D0530913E05260F311D3093AC03FE
:1026F0002093AB038093AA038091E8038093A803FF
:10270000089597FF03C088599E4F0895893621E0A8
:10271000920714F0885691400895CF93DF93EC010F
:102720000E948A2828813981CB01821B930BDF917B
:10273000CF91089581E08093830388E0E6E2F5E09D
:10274000DF011D928A95E9F780E09DDC90937C0380
:1027500080937B03089524E0880F991F2A95E1F761
:102760008C549F4F68E671E00E948433CB01019640
:102770000895089580914B0590914C059195819510
:102780009109BFDF845B91099093570580935605AB
:10279000E2DF885F0E9481086091560570915705BD
:1027A00084EB91E00C94B107CF92DF92EF92FF920D
:1027B000CF93DF93EC016A017B019A01AB01688141
:1027C00079818A819B810E94AE3087FF04C0C882D4
:1027D000D982EA82FB82DF91CF91FF90EF90DF9068
:1027E000CF9008958F929F92AF92BF92CF92DF9237
:1027F000EF92FF920F931F93CF938C014A015B01DD
:10280000C22FFC01C080D180E280F38020E030E064
:10281000A901C701B6010E94AE30882311F0C23071
:1028200030F4F80180829182A282B3821DC0A70198
:102830009601C501B4010E94E72F4B015C016C2F8A
:1028400070E080E090E00E9450319B01AC01C50136
:10285000B4010E94B530A70196010E94E82FF8014B
:102860006083718382839383CF911F910F91FF9037
:10287000EF90DF90CF90BF90AF909F908F90089592
:10288000CF93DF9397FD25C0C92F91E090939F03CD
:102890009C2F86DBD82F60917B0570917C0580E0B2
:1028A00090E00E944E31AB01BC012D2F82EA94E0F2
:1028B00099DFC0716091A2047091A3048091A40477
:1028C0009091A5040E942231DC01CB016C2FB8DE6F
:1028D00008C081E090915204911101C080E0809382
:1028E0009F03DF91CF910895CF93DF93C92F58DBDA
:1028F000D82F60917D0570917E0580E090E00E9468
:102900004E31AB01BC012D2F8EE994E06BDFC0711D
:1029100060919E0470919F048091A0049091A10405
:102920000E942231DC01CB016C2F8ADEDF91CF9136
:102930000895CF93DF93C92F33DBD82F60917905AA
:1029400070917A05072E000C880B990B0E9450316C
:10295000AB01BC012D2F86EA94E044DFC4FD03C027
:10296000CFE0D7E002C0C3E0D7E02AE037ED43E292
:102970005CE36091A6047091A7048091A8049091F3
:10298000A9040E946932AB01BC012EE0CE010E9475
:10299000A309DF91CF9108950F931F93CF93DF93F6
:1029A000D92F80E090E0ADDE8C0124E640E050E0DD
:1029B000BA0185EA95E016DFD6FBCC27C0F92C2FAB
:1029C00040E050E0BA0181E297E02ADC0E946A0907
:1029D00020914B0530914C05C801821B930BBBDE47
:1029E000D5FD02C090E001C098E0890F0E948108E7
:1029F0004091A5055091A6056091A7057091A80585
:102A00002C2F83E092E00CDCDF91CF911F910F918E
:102A10000895CF93DF93C92FC3DAD82F6091E203D3
:102A20007091E30380E090E00E944E31AB01BC0165
:102A30002D2F8AEA94E0D6DE6091AA047091AB044F
:102A40008091AC049091AD040E941D3189E197E022
:102A50000E94B10780911E0480FD03C0C4FD0E9446
:102A6000FF08DF91CF9108958F929F92AF92BF920E
:102A7000CF92DF92EF92FF926091790570917A0583
:102A8000072E000C880B990B0E9450316B017C01C2
:102A900080903F0590904005A0904105B090420580
:102AA000B6DBA50194010E9469329B01AC01C7010C
:102AB000B6010E94B53020E030E040E251E40E94CF
:102AC0006932AB01BC0124E687EB94E08BDEFF901A
:102AD000EF90DF90CF90BF90AF909F908F90089530
:102AE000A0E0B0E0E6E7F5E10C94FE3320918A0324
:102AF000222309F4A9C0C82F96FF15C020E030E0BA
:102B0000A90160913F057091400580914105909128
:102B100042050E94AE30882309F496C0A5DF8C2FB1
:102B20000E94930C91C080911404811140C020E058
:102B300030E0A90160913F05709140058091410509
:102B4000909142050E94AE30882309F47DC08CDF4D
:102B500080918D038823D1F010925A0510925B0565
:102B600010925C0510925D0580919D0590919E05E7
:102B7000A0919F05B091A0058093AE049093AF04FF
:102B8000A093B004B093B10410928D038091EA0336
:102B90009091EB0397FF58C080918F03882319F021
:102BA00087E892E002C086E892E02DD84DC0D0912F
:102BB00078050D2F10E080917505082E000C990BFB
:102BC00008171907B1F16091630570916405809150
:102BD0006505909166050E944E316B017C016D2F59
:102BE00070E080E090E00E944E319B01AC01C70193
:102BF000B6010E9469326B017C0140917605042E7A
:102C0000000C550B401B510BBA01550F880B990B4B
:102C10000E9450319B01AC01C701B6010E94B53042
:102C2000CCDC0E9422317093740560937305D093BD
:102C30007505C7FD03C087E10E94D006809173052A
:102C4000909174050E94FC08CDB7DEB7E8E00C94C3
:102C50001A342AE0C7CDCF93DF93EC019A01AB0180
:102C6000688179818A819B810E94E82F68837983BA
:102C70008A839B83DF91CF910895A3E0B0E0E3E4E2
:102C8000F6E10C94F43388E094E047DD1C0160E049
:102C900070E088E094E013DAB10180E090E00E94F7
:102CA0004E318BDC4B015C016091790570917A05A6
:102CB000072E000C880B990B0E9450316B017C0190
:102CC00060917D0570917E0580E090E00E944E311C
:102CD000A70196010E9469322CEA35EC47E257E3DE
:102CE0000E946932AB01BC018CE094E0B2DF10912C
:102CF00009010BDA212F40E050E0BA0181EA95E0AA
:102D000071DD2091780580917605082E000C990BD5
:102D1000422F50E08417950714F42093760521E69E
:102D20003BE046E35BE3C701B6010E946932A501BF
:102D300094010E946932AB01BC0189E995E08BDF07
:102D40008091E4039091E50320911E0420FD5FC073
:102D500020915804309159043B832A8300915A04EE
:102D600010915B04021713074CF43A812B811B83EB
:102D70000A83032F122F31E0398301C019823A816F
:102D80002B814A815B814817590714F4382F292F6A
:102D9000632F722F061717070CF4B8018A819B81E5
:102DA000681B790B80E090E00E944E312B013C01C2
:102DB000B801EA81FB816E1B7F0B80E090E00E94EE
:102DC0004E319B01AC01C301B2010E94B53020E03D
:102DD00030E048EC52E40E9469320E941D316536B1
:102DE00071052CF477FF05C060E070E002C064E676
:102DF00070E0F981FF2331F084E690E09C01261B0E
:102E0000370BB9017093E3036093E20304C090931E
:102E1000E3038093E20380911404811104C0809144
:102E20008E0380FD05C080918A03882309F466C063
:102E3000B10183E695E05AD980919103882389F006
:102E400020913F0530914005409141055091420548
:102E5000C501B4010E946932AB01BC018DE995E066
:102E6000FADE60915205709153058091540590915E
:102E700055050E945031AB01BC018DE195E094DC19
:102E800040E050E0BA0189E195E08EDC40913F05D9
:102E900050914005609141057091420585E195E0B2
:102EA00083DC409147055091480560914905709138
:102EB0004A0581E195E078DC40E050E0BA018DE020
:102EC00095E072DC40910C0450910D0460910E0469
:102ED00070910F048DEF94E067DCB701A60189E0E3
:102EE00095E062DC40E050E0BA0185E095E05CDC12
:102EF00040E050E0BA0181E095E056DC2396E2E143
:102F00000C9410340E948A2860933705709338051A
:102F10008093390590933A0580913D0590913E0547
:102F200090933C0580933B05E3E8F3E081E08083E8
:102F300082830895CF9390917303992309F447C036
:102F4000E0915504F0E0EE0FFF1FE55EFE4F20819B
:102F50003181CFB7882309F0F89480915C048130E7
:102F6000D9F018F0823011F131C0E0917103F09185
:102F70007203908180917303892B8083C9010E9421
:102F8000DF28E0917103F0917203908180917303C7
:102F90008095892380831AC090917303E091710317
:102FA000F09172032D3D35406CF009C09091730390
:102FB000E0917103F09172032C3D35401CF4808147
:102FC000982B03C08081909598239083CFBFCF9199
:102FD000089566E970E080E090E00C94BB28BC01A5
:102FE0008CE293E00E940A2CF4CF65E082E00E941C
:102FF0009A0686E693E00E94030E0E948A284AE021
:1030000050E080E393E00E94042B80919D0388238D
:1030100059F061E081E00E949A0660912A0470E014
:1030200081E593E00E94B1070E94E506D2CFCF92DE
:10303000DF92EF92FF92CF93BC01FB0150816F5F53
:103040007F4F252F052E000C330B205331092A30DA
:10305000310598F3C0E0DC019F01281B390B2330B8
:10306000310564F0CC2329F0CC0F2C2F220F220F36
:10307000C20F01962C91C20FC053EDCF40E0DC018E
:103080008E179F0760F4442329F0440F242F220F4A
:10309000220F420F01962C91420F4053F0CF5E3227
:1030A000C9F4319654E020E030E06AE0C901689F3D
:1030B0009001699F300D11248081082E000C990B1E
:1030C000C0978A30910518F43196280F391F515056
:1030D00069F702C020E030E0A4E6B0E00E94DB33F4
:1030E0006B017C01A42FB0E020E432E44FE050E01B
:1030F0000E94EA336C0D7D1D8E1D9F1D26E030E081
:1031000040E050E00E94973369017A01AC2FB0E0B3
:1031100020E836E948E950E00E94EA336C0D7D1D55
:103120008E1D9F1DCF91FF90EF90DF90CF9008955F
:10313000CF93DF93DC0180E090E020E0C62FD0E069
:103140004AE0FD01E20FF11D3081332301F13E32EF
:1031500049F42F5F6623D9F0FD01E20FF11DEC0F5A
:10316000FD1F1082FC014E9FC0014F9F900D112446
:10317000FD01E20FF11D308150ED530F5A3028F45C
:10318000C097830F911D37FD9A952F5FDACFDF919E
:10319000CF91089590ED980F9A3010F099EC980F18
:1031A000892F8F700895CF92DF92EF92FF920F9345
:1031B0001F930E94942F6B017C0120E137E240E0D5
:1031C00050E00E94B933022F10E020E137E2029F65
:1031D000C001039F900D129F900D1124092E000C29
:1031E000AA0BBB0BC81AD90AEA0AFB0AC701B60127
:1031F00024E630E040E050E00E94B93380E19EE0F8
:10320000089FB001099F700D189F700D11243CE3B9
:10321000239F600D711D1124CB01770FAA0BBB0BEF
:1032200034E6239F80011124012E000C220B330B66
:10323000801B910BA20BB30BBC01CD016C0D7D1D4E
:103240008E1D9F1D1F910F91FF90EF90DF90CF90EB
:103250000895A0E0B0E0EFE2F9E10C94FE3384328F
:1032600081F0EB01182F85323CF48A3009F42AC131
:103270008D3009F427C1C1C18A3261F08C3251F01E
:10328000BCC11092B6041092B5041092B40410920E
:10329000B304C7C18091B504FE01E80FF11D10828F
:1032A0000091B604802F90E08A30910508F0FEC0AE
:1032B000FC01EC5CFF4F0C94D5331092B304888171
:1032C000873409F0F3C08A81873451F48B818734C5
:1032D00009F0ECC08C81813409F0E8C081E00CC0B9
:1032E000823509F0E3C08B818D3409F0DFC08C8119
:1032F000833409F0DBC082E08093B304D7C08091AF
:10330000B304882309F4D2C0CE014DDF6093CF040B
:103310007093D0048093D1049093D204C7C080915D
:10332000B304813009F0C2C0CE0181DE6093BD04D8
:103330007093BE048093BF049093C004B7C0809183
:10334000B3048130B1F0823009F0B0C0EDCF80918C
:10335000B304813059F4CE016ADE6093C1047093E6
:10336000C2048093C3049093C404A0C0823009F0C7
:103370009DC08881833509F099C08091BD049091EA
:10338000BE04A091BF04B091C004B095A0959095E3
:1033900081959F4FAF4FBF4F8093BD049093BE0464
:1033A000A093BF04B093C00481C08091B304813066
:1033B00081F0823009F07AC0CECF8091B3048130A1
:1033C00029F4888180538093CD0470C0823009F045
:1033D0006DC08881873509F069C08091C1049091E2
:1033E000C204A091C304B091C404B095A095909577
:1033F00081959F4FAF4FBF4F8093C1049093C204FC
:10340000A093C304B093C40451C08091B30481302D
:1034100031F460E0CE018CDE8093CE0447C0823070
:1034200009F044C061E0CE0183DE9C01A8E1B4E173
:103430000E94DB3328EE33E040E050E00E949733F7
:103440003093CC042093CB0431C08091B3048130FD
:1034500041F461E0CE016CDE9093C8048093C70410
:1034600025C0823019F560E0CE0162DE9093CA0477
:103470008093C9041BC08091B304813041F461E0A2
:10348000CE0156DE9093C6048093C5040FC08230EF
:1034900069F460E0CE014CDEA0E0B0E08093D3049C
:1034A0009093D404A093D504B093D6040F5F0093F7
:1034B000B6041092B5041A3209F0AEC081E08093D0
:1034C000B204AFC08091B204882309F492C088810D
:1034D00061DE182F89815EDE90E1199F800D112435
:1034E0009091B404891385C06091BD047091BE04AD
:1034F0008091BF049091C0040E9450316093FC03FE
:103500007093FD038093FE039093FF036091C104C9
:103510007091C2048091C3049091C4040E94503100
:103520006093000470930104809302049093030459
:103530008091C5049091C604CAE0C89F6001C99FEC
:10354000D00C11240D2C000CEE08FF08C701B601A9
:103550000E94503160934705709348058093490558
:1035600090934A05C0920404D0920504E0920604A8
:10357000F09207042091C7043091C804C29FC00193
:10358000C39F900D112490938205809381058091B3
:10359000C9049091CA0490934C0580934B056091A7
:1035A000CB047091CC0480E090E00E944E31609397
:1035B0003F057093400580934105909342058091AB
:1035C000CD04809358058091CE0480935905809155
:1035D000CF049091D004A091D104B091D2048093F3
:1035E0004E0390934F03A0935003B093510381E097
:1035F00001C080E01092B20415C08091B504803201
:1036000038F491E0980F9093B504C80FD11D18833A
:103610008091B204811105C08091B40418271093E1
:10362000B40480E08170CDB7DEB7E8E00C941A34C2
:103630000E94B62B882349F00E94C52B6DEB74E0E5
:1036400008DE8823A9F35EDCF3CF0895809185031B
:10365000811113C086E393E0C2DC85E193E0BFDC17
:1036600082E093E0BCDC81EF92E0B9DC89ED92E08E
:10367000B6DC1092860310928503089584E20E94BE
:10368000431096FF07C08091510590E08C549F4FE6
:1036900038D804C080914B0590914C05880F991F34
:1036A0008D966AE570E00E94843377FF03C0685FFF
:1036B0007F4FFBCF67707727FB01EF52FD4F84915F
:1036C000089587FD03C0DADF0E94D00660914B05A4
:1036D00070914C0589E197E00E94B10785E00C9458
:1036E000D0064F925F926F927F928F929F92AF928D
:1036F000BF92DF92EF92FF920F931F93CF93DF93CE
:103700007C01F6FC0CC06F2D81E08E0D0E949A06A4
:1037100080917B0381FD1CC00E94FF0919C0C5E098
:1037200082EB0E94D006DDE0D15019F00E946809BA
:10373000FBCFC33011F083EB01C085EC0E94D006B3
:103740000E946A09C150F9F2C33051F786ECE9CF03
:10375000F4FEB1C0C0914F05D091500500914D05C8
:1037600010914E05C80117FF04C088279927801BB8
:10377000910B6AEF70E00E948433E62F472FCE0151
:10378000D7FF04C0882799278C1B9D0B6AEF70E038
:103790000E9484332E2F342F261737070CF49B01F9
:1037A000B9016F5F7F4F7093BC046093BB04072E19
:1037B000000C880B990B0E9450314B015C01B80141
:1037C000110F880B990B0E9450312B013C0124EE04
:1037D00038E34EE552E4C501B4010E9469329B0111
:1037E000AC01C301B2010E94B5300E941D31162FF9
:1037F000BE01DD0F880B990B0E9450312B013C015B
:103800002DE63BED4EE052E4C501B4010E94693261
:103810009B01AC01C301B2010E94B53020E030E051
:1038200040E05FE30E94E82F0E941D31062FE6FC76
:1038300009C024DF62E0611B482F85E0800F0E94F1
:10384000DE0639C090912E05961304C080912F0595
:103850008117E1F080913205909133059093350501
:103860008093340580913005909131059093330514
:103870008093320580912E0590912F05909331050C
:103880008093300500932E0510932F05C0E0D0E003
:1038900032E0B32EFE01E25DFA4F87816B2D681B8B
:1038A000868144E28B5F0E94DE062297CA3F4FEF7B
:1038B000D40781F7BECFE7FC08C062E085E00E9434
:1038C000AB068EE891E00E94030EF5FEB2C0809137
:1038D0008A03882309F4ADC080911404811177C054
:1038E0006091520570915305809154059091550552
:1038F0000E9450319B01AC0160E070E0CB010E945E
:103900005B3021EE3EE245EE52E40E9469320E94B5
:103910001D316A5071092DE2269FC001279F900D2D
:1039200011246AE070E00E948433CB018D9697FDEC
:1039300001969595879569E070E00E948433D62FB3
:10394000653058F4CFECC81B4C2F8CE00E94DE068B
:103950004C2F6D2F81E00E94DE068091510590E092
:1039600080579E4F0E948113853B910534F028E6D5
:1039700031E0A901481B590BCA019C01245B3109A4
:1039800048E4429FC001439F900D11246AE070E01B
:103990000E948433CB01849666E070E00E948433F9
:1039A00067FD07C06D3044F4DFEBD80FC1E0C60FF0
:1039B00005C0C1E0DCE302C0CCE0DEE34D2F64E0F3
:1039C0008C2F0E94DE064D2F60E08C2F30C080903F
:1039D000470590904805A0904905B0904A050E947F
:1039E0008510A50194010E94693220E030E040EA90
:1039F00050E40E94E82F2DEC3CEC4CE850E40E948F
:103A000069320E941D31862F9FEF960F9B3238F44A
:103A100069E00E9463334FEC491B682F07C06C328A
:103A20001CF064E04EE202C060E04FEC86E00E94D1
:103A3000DE06DF91CF911F910F91FF90EF90DF9005
:103A4000BF90AF909F908F907F906F905F904F90BE
:103A50000895ABE0B0E0EFE2FDE10C94F4336B01CC
:103A60007C010E94F4058091140410918A03811155
:103A70001CC0112301F180918E0380FF1CC0609156
:103A80003F057091400580914105909142050E944B
:103A90001D31623071057CF0C0928505D09286059B
:103AA000E0928705F092880506C0111104C080914C
:103AB0008B038111F1CF10938B03809157048530D4
:103AC00018F084E08093570487E395E00E948D13FB
:103AD000853C994080F110923F051092400510926C
:103AE00041051092420562E085E00E949A066091CD
:103AF0003D0570913E0580913B0590913C05681B0A
:103B0000790B8BE791E00E94B1074091A20350919D
:103B1000A3036091A4037091A503411551056105AC
:103B2000710531F02AE030E080E393E00E94F72A4B
:103B300083E094E469C08091110480FF68C0109113
:103B40008A03111123C08091850590918605A0916B
:103B50008705B0918805892B8A2B8B2BB9F0609152
:103B60009D0570919E0580919F059091A0050E94F2
:103B70001D316630710554F081E0809398030E94F6
:103B80005E0780913605809360033CC08091980366
:103B90008823E9F18091600390913605891721F01F
:103BA000809336051092980382E00E947307092ED5
:103BB000000CAA0BBB0BB7FF07C0B095A095909562
:103BC00081959F4FAF4FBF4F8D329140A105B105F9
:103BD0000CF0AAC283E00E947307092E000CAA0B06
:103BE000BB0BB7FF07C0B095A095909581959F4FEF
:103BF000AF4FBF4F8D329140A105B1050CF094C27B
:103C0000111192C281E091E00E94D31190C2809183
:103C10005704882321F090913605981740F50BE85A
:103C200013E0F801B490C8010196FC01C590D4904E
:103C3000C114D10409F47BC28B2D8F770E944310ED
:103C40007C010E94AF07F7FC0AC0E7FC0AC0F8013C
:103C500033968491882329F00E94D00602C0B7FED3
:103C600003C0C701F60109950C5F1F4FDACF8091A1
:103C70008A03811150C21D821E821F8218864091C4
:103C80002505A42EB12CF5E04F9FA0011124FA01C7
:103C9000E55AFB4F8591949190935B0380935A036F
:103CA000FA01E35AFB4FF4900E945E07C12CD12C1D
:103CB000E12C1A861B86312C212C1986EF1409F46D
:103CC000BEC0552453945E0C00915A0310915B03BF
:103CD0000C0D1D1DF80185909490652D81E00E94CA
:103CE0009A06C4010E94030E652D83E10E949A0684
:103CF00080910A01E81203C08EE30E94D006F80109
:103D00003296E491EF77E33609F457C080F4E23459
:103D1000B9F120F4EE2309F48DC06FC0EA3509F43F
:103D20004AC0E23609F069C0442443942BC0E83607
:103D3000D9F088F4E63609F060C0F8013396A59111
:103D4000B4918D919D910D90BC91A02D8D839E83FA
:103D5000AF83B88752C0E33709F445C0EA3709F0AA
:103D60004CC020E1298729C080912603803419F0B6
:103D70008CE091E002C084E191E00E94030E5AC001
:103D80006AE0462EF8013396A591B4916C9170E0EB
:103D900080E090E00E9450313B014C01642D70E0C6
:103DA00080E090E00E944E319B01AC01C401B30160
:103DB0000E94B53013C080E28987F8013396A5913F
:103DC000B4916C91062E000C770B9985691B7109D3
:103DD000072E000C880B990B0E9450316D837E8357
:103DE0008F8398870AC0F80133966591749144E0F7
:103DF00050E0CE0105960E94370D80910A01BD81E9
:103E0000AE813F812885E81203C0BA87AB871901CC
:103E1000F8013596E491E295EF70F0E0EE0FFF1FA8
:103E2000EB52FB4F859194914B2F5A2F632F722F9A
:103E30000E94DF09E6E0CE0ED11CE52C3FCF85E0E5
:103E40008A9DF0018B9DF00D1124E25AFB4F859164
:103E50009491009711F0FC010995809192038823B9
:103E600009F465C11092920311E01093830381E07D
:103E70000E9473078739910514F081E004C08A36E7
:103E80009F4F24F48FEF0E94830751C183E00E946B
:103E90007307873991055CF010930A01809125051D
:103EA000823019F41092250542C18F5F0CC08A360A
:103EB0009F4F64F410930A0180912505811102C07F
:103EC00082E001C081508093250531C160910A01D3
:103ED0006F5F84E10E949A0680910A0100915A0363
:103EE00010915B03480196E0899F800C911C11247E
:103EF00080E00E9473075C0197FF06C0B194A19413
:103F0000B108EE24E39401C0E12CF4013396C5908E
:103F1000D490F4013296249129878A859B85A32D1C
:103F2000B22D8D839E83AF83B887122F1F771436EF
:103F300040F4123680F4123461F01A3509F049C0A9
:103F40000AC0133751F11A3731F0163609F041C063
:103F500024C00AE001C001E08DE2A81681E0B806A5
:103F60003CF0412C512C40E2642E41E4742E06C0FA
:103F7000412C512C30E8632E3FE3732E602F70E00C
:103F800080E090E00E9450319B01AC01C301B2017E
:103F90000E94B530FF24F39421C0C50164E670E0AF
:103FA0000E948433FB01EE0FFF1FEE5FFE4F608126
:103FB000718180E090E00E944E319B01AC0160E095
:103FC00070E080E89FE30E94B53001E024E0F22E2B
:103FD00005C060E070E080E89FE301E0E5E6AE1632
:103FE000B1040CF446C0E1109058AB01BC01CE0105
:103FF00005960E942B16F4013596E491EF70F4E0DB
:10400000EF9F30011124F301E552FB4F659174914C
:10401000072E000C880B990B0E9450314B015C015C
:104020009B01AC016D817E818F8198850E94AE30AD
:1040300087FF04C08D829E82AF82B886F301E3526F
:10404000FB4F65917491072E000C880B990B0E9411
:1040500050314B015C019B01AC016D817E818F81F0
:1040600098850E945E32181624F48D829E82AF825B
:10407000B8868D809E80AF80B8842A853B85432D8D
:10408000522DC501B4010E94AE30882309F44FC0FF
:10409000602F70E080E090E00E945031A501940113
:1040A0000E9469320E941D311336C1F038F41A356E
:1040B00089F01236A9F0123401F512C0133799F0C5
:1040C0001A3751F01636C9F4F60180829182A28225
:1040D000B38213C080E203C080E101C080E0680FBA
:1040E000F60160830AC089829A82AB82BC8244E076
:1040F00050E0B601CE01019606C04F2D50E0B6014A
:1041000060517240C6010E94C00DF985F7FF0FC0D3
:104110000E9432060CC083E093E00E94AF0783E068
:1041200093E00E94041203C0109298036BCD2B966B
:10413000E2E10C9410341F920F920FB60F921124EB
:104140002F933F934F935F936F937F938F939F939F
:10415000AF93BF93EF93FF9381E080932A03109274
:104160008203809181038F5F80938103D3D7609313
:104170007D0370937E0380937F03909380038091EF
:10418000A603882321F00E94E5061092A603FF9162
:10419000EF91BF91AF919F918F917F916F915F91BF
:1041A0004F913F912F910F900FBE0F901F90189538
:1041B000CF92DF92EF92FF92B9D76B017C0183E03F
:1041C0000E94B629019749F4C0927403D0927503F6
:1041D000E0927603F09277031FC080917403909170
:1041E0007503A0917603B09177030097A105B105FF
:1041F00099F0C81AD90AEA0AFB0AD0927903C09248
:104200007803109274031092750310927603109243
:10421000770381E080937A03FF90EF90DF90CF9057
:1042200008951F920F920FB60F9211242F933F9370
:104230004F935F936F937F938F939F93AF93BF93AE
:10424000EF93FF93B5DFFF91EF91BF91AF919F91F6
:104250008F917F916F915F914F913F912F910F902F
:104260000FBE0F901F901895CF930FB6F894A89596
:1042700080916000886180936000109260000FBEA2
:1042800060E071EE80E090E00E94732B4EE450E01D
:1042900060E072E080E194E00E94370D80911004AC
:1042A00081FD03C08AE397E002C087E297E0909324
:1042B000800580937F0580912A048F3421F48091BA
:1042C0002B048A3119F081E080939D0384B58C7FA3
:1042D00084BD8091110484FF02C081E001C083E0AD
:1042E0000E94632A80917A008B7F80937A0080916C
:1042F0007A00866080937A00809169008C7F82606A
:1043000080936900E89A80911504813051F462E04D
:1043100083E0C3D780916900837F846080936900C4
:10432000E99A6BEF70E08CE293E00E940A2C5E9AAF
:104330000E94E506789480912C04893341F48091A1
:104340002D04833321F480912E04873389F089E38F
:1043500080932C0483E380932D0487E380932E04C1
:1043600043E050E06CE172E08CE294E00E94C00D0A
:1043700080915D04882351F010925D0441E050E08B
:104380006DE472E08DE594E00E94C00D80915504CB
:10439000882331F1E0915604EE2311F1F0E0EA5068
:1043A000FF4FC4912C2F30E0F901E555F84F94915F
:1043B000F901E956F84F249120937303E92FF0E0B7
:1043C000EE0FFF1FE753F84F85919491909372037E
:1043D0008093710380E00E949A1761E08C2F5DD773
:1043E0000E9478060E94F5170E949A13CF910895B3
:1043F000E0910301EF5FE0930301E770F0E0EE0F5F
:10440000FF1FE257FB4F9183808388E060E070E0FC
:104410008150E82FF0E0EE0FFF1FE257FB4F2081A5
:104420003181620F731F8111F3CF80E090E00E9411
:104430004E3120E030E040E05EE30C94693297FDBD
:1044400005C08F3F910509F01CF4089580E00895A0
:104450008FEF0895CF92DF92EF92FF92CF93DF9389
:104460008091100484FD05C080916503882309F4C0
:10447000A0C0C0910201CF5FC093020180E10E9401
:10448000662AC770EC2FF0E0EE0FFF1FE258FB4FDB
:104490009183808388E0C0E0D0E08150E82FF0E095
:1044A000EE0FFF1FE258FB4F20813181C20FD31F57
:1044B0008111F3CF2091690330916A0347E0429F55
:1044C000C001439F900D11248C0F9D1F23E09695F2
:1044D00087952A95E1F790936A0380936903809109
:1044E000100484FF66C029E53EEE49E050E4609187
:1044F00032047091330480913404909135040E9409
:1045000069326B017C01BE0180E090E00E944E3177
:104510009B01AC01C701B6010E9469320E942231A1
:1045200040917D0550917E054115510529F4709308
:104530007E0560937D0512C09A01220F331F240F60
:10454000351F2E5F3F4FA901460F571F56954795C0
:104550005695479550937E0540937D0581E0809365
:104560008303E09119048E2F61E20E945733482F94
:1045700080917D0590917E05C29664E670E00E9470
:104580007033F0E09B012E1B3F0BAFEFB0E00E94B9
:10459000DB335AE2459F900111242E1B3F0B032E63
:1045A000000C440B550B0E94B933C90148DF8093BE
:1045B00078058091100485FF04C080919F038111CC
:1045C00005C080916603882309F49CC0C091010155
:1045D000CF5FC09301018EE079D7C770EC2FF0E078
:1045E000EE0FFF1FE259FB4F9183808388E0C0E00C
:1045F000D0E08150E82FF0E0EE0FFF1FE259FB4FB3
:1046000020813181C20FD31F8111F3CF20916B0321
:1046100030916C0347E0429FC001439F900D1124ED
:104620008C0F9D1FA3E096958795AA95E1F790932F
:104630006C0380936B038091100485FF63C029EAAB
:104640003CEC48E050E4609136047091370480916E
:104650003804909139040E9469326B017C01BE01DB
:1046600080E090E00E944E319B01AC01C701B60191
:104670000E9469320E94223140917B0550917C0555
:104680004115510529F470937C0560937B0512C098
:104690009A01220F331F240F351F2E5F3F4FA901B0
:1046A000460F571F569547955695479550937C054D
:1046B00040937B05E09152048E2F61E20E945733B4
:1046C000482F80917B0590917C05C29664E670E04E
:1046D0000E947033F0E09B012E1B3F0BAFEFB0E068
:1046E0000E94DB335AE2459F900111242E1B3F0BA1
:1046F000032E000C440B550B0E94B933C9019FDEF9
:10470000809377058091100486FD05C08091670332
:10471000882309F480C080916303882349F020E155
:1047200037E240E050E061E08FE048D6CB0102C0C4
:104730008FE0CCD6E0910001EF5FE0930001E770DD
:10474000F0E0EE0FFF1FE25AFB4F9183808388E079
:10475000C0E0D0E08150E82FF0E0EE0FFF1FE25AFA
:10476000FB4F20813181C20FD31F8111F3CF2091E4
:104770006D0330916E0347E0429FC001439F900D4F
:1047800011248C0F9D1F33E0969587953A95E1F79C
:1047900090936E0380936D038091100486FF3BC05D
:1047A0002DE032E348EC5CE360913A0470913B0405
:1047B00080913C0490913D040E9469326B017C0120
:1047C000BE0180E090E00E944E319B01AC01C70128
:1047D000B6010E9469320E942231409179055091C0
:1047E0007A054115510529F470937A05609379058E
:1047F00012C09A01220F331F240F351F2E5F3F4F27
:10480000A901460F571F56954795569547955093C2
:104810007A054093790580911E048695813041F098
:1048200038F1823041F0833039F58091E60322C0BF
:1048300081E14CD608C020E23EE440E050E061E077
:1048400081E1BCD5CB01D4DD20913E0430913F0401
:1048500040914004509141040E9469320E942231EB
:104860007093E5036093E40381E08093830335C094
:104870008091E70390E002C080E090E0B9DD0E9403
:1048800022317093E5036093E403809168038823E9
:1048900021F180916403882341F020E137E240E078
:1048A00050E061E081E18AD503C081E10FD6BC010F
:1048B00080916F039091700347E0489F9001499F5A
:1048C000300D1124620F731F83E0769567958A95EA
:1048D000E1F77093700360936F03DF91CF91FF90C6
:1048E000EF90DF90CF90089581E00C949A17E0E369
:1048F000F3E01382128287E291E0918380838CE25D
:1049000093E0E9D6EDE4F7E088E992E0968B858BB9
:104910008CE992E0948F838F80EB92E092A381A345
:1049200084EB92E090A787A388EC92E096A785A7F6
:104930008CEC92E094AB83AB0895A4E0B0E0E3EAA2
:10494000F4E20C94F633A8957894E4D36B017C01DF
:1049500028EE33E040E050E00E94973330933E056C
:1049600020933D052CEDC21625E0D206E104F104AA
:1049700058F080919D03811107C00DEB14E030E4E5
:10498000632E772473945CC00E94F51775C38091E1
:10499000860381115AC080918F03811156C0F8019E
:1049A000262D11922A95E9F7DED6B4D34B015C018E
:1049B00034E6830E911CA11CB11C2AEF422E552413
:1049C0005A94A8D386169706A806B90608F049C0D7
:1049D0004FEF54125CC0509008015AE0551508F092
:1049E00059C082E1851508F058C09CE1951508F082
:1049F00057C0E7E2E51508F056C0FBE3F51508F0EF
:104A000055C025E9251508F054C021E080E48093C5
:104A1000A90530E0A0ECB2E10E94DB334B015C0160
:104A20006093A2037093A3038093A4039093A503C0
:104A30008CE293E047D6C501B40155D67092860347
:104A400080918503882309F4A2CF0E94181B8091CE
:104A500085038093860380918303882309F477C1BB
:104A60002BC024EC39E040E050E060E080E0A6D4C8
:104A70006F3F71058105910509F02CF4662319F04B
:104A8000651508F4562E4A9441109BCFA1CF509241
:104A90000801A3CF28E182E0BACF2CE084E0B7CFB1
:104AA00028E086E0B4CF26E088E0B1CF24E080E1C2
:104AB000AECF22E080E2ABCF0091360580911504A5
:104AC000833008F439C1833029F4A0907803B09082
:104AD00079030FC09BEF980F943048F4E82FF0E073
:104AE000EE0FFF1FEF5EFE4FA080B18002C0A12C31
:104AF000B12C9501205233402939384008F01CC1AF
:104B00002091060130910701A216B30620F4B0925D
:104B10000701A092060120910401309105012A1598
:104B20003B0520F4B0920501A0920401843001F508
:104B300080916205882389F01092620560E070E040
:104B40008EE595E00E945F109091620580910B01C7
:104B5000981303C081E0809387038EE595E00E945F
:104B60008D13813D974008F4B8C010920B01B5C079
:104B700080911A04811121C0209104013091050116
:104B80008091060190910701609157048A159B0559
:104B900068F4A81AB90AF901E81BF90BCF0170E013
:104BA0000E947033C5010E94703301C060E0061797
:104BB00009F493C06093360590C08091100482FF81
:104BC0004EC08091230590912405A816B90609F4DA
:104BD00056C09501281B390B293C310508F44FC0FC
:104BE0008091210590912205A816B90631F0A50102
:104BF000481B590B483C5105E0F480905E059090AD
:104C00005F05A0906005B090610558EE850E53E0F9
:104C1000951EA11CB11C7ED2681579058A059B05DD
:104C200018F481E0809387031092220510922105E9
:104C300026C070D260935E0570935F058093600517
:104C4000909361058091230590912405909322050E
:104C500080932105B0922405A092230510C02091D5
:104C60000401309105018091060190910701280F00
:104C7000391F3695279581E02A153B0508F080E01D
:104C80009091100490FF10C0882321F081E0809360
:104C9000880323C080918803882319F081E08093E2
:104CA00087031092880319C08823B9F080905E05AD
:104CB00090905F05A0906005B09061052BD286169C
:104CC0009706A806B90648F481E08093870364EF4D
:104CD00071E08EE595E00E945F1080918703882344
:104CE00069F010928703809136058F5F80933605B7
:104CF00090915704981710F41092360510913605CC
:104D00000117D1F00E949A1380919903811112C06A
:104D1000ADEAB3E0EEEEF0E084918D93319681112F
:104D2000FBCF8091B403180F1093B40363E088E0C5
:104D30000E9470131092990380918403811105C021
:104D400081E0809384038093820310928303809197
:104D50008403882309F4B2C0809182038111AEC01C
:104D60001092840380915805882331F091E090934C
:104D70009503833008F040C190919103992309F481
:104D800043C180919103882309F48FC08090F00380
:104D90009090F103A090F203B090F303C501B40129
:104DA0009F7725E33AEF4EE85CE30E9469320E9468
:104DB000B2302B013C012091FC033091FD03409166
:104DC000FE035091FF03C501B4010E94020C4B0188
:104DD0005C01209100043091010440910204509143
:104DE00003046091F4037091F5038091F6039091B0
:104DF000F7030E94020CA30192010E9469322B0169
:104E00003C019B01AC010E94693269837A838B83E8
:104E10009C83A5019401C501B4010E9469329B01E4
:104E2000AC0169817A818B819C810E94E82F0E946C
:104E3000D0320E941D3160935205709353058093C8
:104E4000540590935505C501B4019F770E941D310B
:104E50007093500560934F05C301B2019F770E9484
:104E60001D3170934E0560934D05A301920150587A
:104E7000C501B4010E945B3020914B0530914C0577
:104E800006EA1FEF021B130B20EE3EE245E652E45A
:104E90000E9469320E941D31C801860F971F0E942F
:104EA00081130E94AB13809351050E943D16C701E8
:104EB000B6010E94291D81E08093A60380916F05B1
:104EC00090917005A0917105B09172058C159D05AA
:104ED000AE05BF05B0F464E170E08FE695E00E9496
:104EE000761002DD8091A603882359F08091820319
:104EF000882339F08DE793E00E948D13C39708F063
:104F0000A3C080916B0590916C05A0916D05B09147
:104F10006E058C159D05AE05BF0528F564E670E0AD
:104F20008BE695E00E94761095DA9091930381E0EC
:104F30008927809393038823B1F08091A10388236C
:104F400069F08F5F8093A103833068F08091E8035C
:104F50008F5F8093E8031092A10305C08091E8035E
:104F60008F5F8093E8038091670590916805A09119
:104F70006905B0916A058C159D05AE05BF0508F061
:104F80007BC064EF71E087E695E00E94761081E0D7
:104F900080938303809392039091E9039F5F9093A2
:104FA000E90390918F03982790938F03992309F435
:104FB00063C08093890380919E03882399F0809138
:104FC0004E0390914F03A0915003B091510301966D
:104FD000A11DB11D80934E0390934F03A0935003E6
:104FE000B093510380912A03882309F442C0809131
:104FF0008103853080F13DC020915905263008F4A9
:10500000BBCE90938A03B8CE833008F4BACE8CE03E
:10501000ECEFF3E0A0EFB3E001900D928A95E1F799
:1050200081E0809391038091470590914805A0917C
:105030004905B0914A058093430590934405A09398
:105040004505B09346059DCE109282030E94E50669
:105050001092A60356CF8091AA058F5F8093AA0570
:10506000843010F00E945806109281030E94261B83
:1050700003C01092AA05F8CF2496E0E10C941234F4
:105080001F920F920FB60F9211242F933F938F937D
:105090009F93AF93BF938091AB059091AC05A09186
:1050A000AD05B091AE053091B30523E0230F2D3748
:1050B00020F40196A11DB11D05C026E8230F02961C
:1050C000A11DB11D2093B3058093AB059093AC0552
:1050D000A093AD05B093AE058091AF059091B0055A
:1050E000A091B105B091B2050196A11DB11D8093AB
:1050F000AF059093B005A093B105B093B205BF91F1
:10510000AF919F918F913F912F910F900FBE0F9074
:105110001F9018952FB7F8946091AB057091AC056E
:105120008091AD059091AE052FBF08953FB7F894DB
:105130008091AF059091B005A091B105B091B205F5
:1051400026B5A89B05C02F3F19F00196A11DB11DE2
:105150003FBFBA2FA92F982F8827820F911DA11D1D
:10516000B11DBC01CD0142E0660F771F881F991F5A
:105170004A95D1F70895CF92DF92EF92FF92CF93A5
:10518000DF936B017C01D2DFEB01C114D104E10498
:10519000F10471F0CBDF6C1B7D0B683E7340A8F30C
:1051A00081E0C81AD108E108F108C851DC4FEDCF01
:1051B000DF91CF91FF90EF90DF90CF90089501970E
:1051C00039F0880F991F880F991F02970197F1F7FF
:1051D0000895789484B5826084BD84B5816084BD6F
:1051E00085B5826085BD85B5816085BDEEE6F0E060
:1051F000808181608083E1E8F0E0108280818260BC
:105200008083808181608083E0E8F0E0808181603C
:105210008083E1EBF0E0808184608083E0EBF0E06C
:10522000808181608083EAE7F0E080818460808310
:1052300080818260808380818160808380818068BA
:1052400080831092C1000895833081F028F481306A
:1052500099F08230A1F008958630A9F08730B9F036
:105260008430D1F4809180008F7D03C080918000D4
:105270008F7780938000089584B58F7702C084B5BE
:105280008F7D84BD08958091B0008F7703C0809199
:10529000B0008F7D8093B0000895CF93DF9390E0AE
:1052A000FC01E956F84F2491FC01E555F84F849133
:1052B000882361F190E0880F991FFC01ED52F84FAF
:1052C000C591D491FC01E753F84FA591B4916111B8
:1052D00009C09FB7F8948881209582238883EC9138
:1052E0002E230BC0623061F49FB7F8943881822F6F
:1052F000809583238883EC912E2B2C939FBF06C02F
:105300008FB7F894E8812E2B28838FBFDF91CF9140
:1053100008951F93CF93DF93282F30E0F901ED57C5
:10532000F84F8491F901E956F84FD491F901E55508
:10533000F84FC491CC23B1F0162F811185DFEC2FEB
:10534000F0E0EE0FFF1FE753F84FA591B4918FB730
:10535000F894EC91111103C0D095DE2301C0DE2B2F
:10536000DC938FBFDF91CF911F910895CF93DF938F
:10537000282F30E0F901ED57F84F8491F901E956F3
:10538000F84FD491F901E555F84FC491CC2389F039
:1053900081115ADFEC2FF0E0EE0FFF1FE154F84FC0
:1053A000A591B491EC91ED2381E090E021F480E0AF
:1053B00002C080E090E0DF91CF910895A0E0B0E0DE
:1053C000E4EEF9E20C94FA3390E0FC01E956F84F70
:1053D000A491FC01E555F84F8491662311F0BA2F92
:1053E00001C0B0E089019A013F7090E0880F991FD9
:1053F0008154984F480159014FEF841A940AA40A26
:10540000B40AC12CD12C7601FC01C591D4916881DC
:105410006A236B131AC05FEFC51AD50AE50AF50AAD
:10542000C814D904EA04FB0479F745C046015701C2
:105430006FEF861A960AA60AB60AC016D106E206C9
:10544000F30609F438C075016401FC01C591D491DB
:1054500068816A236B13EACFB901A8014C195D0971
:105460006E097F096A017B0120E030E0A901FC019F
:10547000C591D49168816A236B130AC02C153D0530
:105480004E055F05C1F02F5F3F4F4F4F5F4FEFCF8E
:10549000A5E1B0E00E94EA33DC01CB014096A11DFA
:1054A000B11DBC01CD0124E0969587957795679550
:1054B0002A95D1F703C060E070E0CB01CDB7DEB72D
:1054C000ECE00C94163480930F0108958E3008F0B0
:1054D0008E50877020910F0190E4299F9001112434
:1054E000822B80937C0080917A00806480937A0084
:1054F00080917A0086FDFCCF809178002091790020
:1055000090E0922B0895A0E0B0E0E9E8FAE20C9474
:10551000FE336C01EB017B01E40EF51E00E010E0B0
:10552000CE15DF0561F06991D601ED91FC910190F6
:10553000F081E02DC6010995080F191FF1CFC801B0
:10554000CDB7DEB7E8E00C941A34FB0101900020DF
:10555000E9F73197AF01461B570BDC01ED91FC9148
:105560000280F381E02D09950895EFCF0895DC01C5
:10557000ED91FC910190F081E02D09950895A1E253
:10558000B0E0E5ECFAE20C94FA336C01142FE52F4D
:10559000CB01022F19A2223008F40AE07E0121E299
:1055A000E20EF11C802E912CA12CB12C612F7E2FAC
:1055B000A50194010E949733029F1019112481E0E4
:1055C000E81AF1081A3014F4105D01C0195CF701F3
:1055D0001083122FE32FCA01232B242B252B31F705
:1055E000B701C601B2DFA196ECE00C941634211588
:1055F000310549F4DC01ED91FC910190F081E02D41
:10560000642F09950895BBCF9A01AB0160E070E06B
:10561000EECFA0E0B0E0EFE0FBE20C94FE338C01B3
:105620006A017B012115310549F4DC01ED91FC9102
:105630000190F081E02D642F09951AC02A303105C0
:1056400099F477FF10C06DE292DFEC0144275527F3
:10565000BA014C195D096E097F092AE0C8018FDF84
:105660008C0F9D1F05C02AE0B701A601C80187DF86
:10567000CDB7DEB7E8E00C941A349A01AB01770F8E
:10568000660B770BC6CFA5DD0E943421C1E0DCE2BA
:1056900054D92097E9F3B5D0FBCF9091C100892F61
:1056A000807194FF0EC090913A0680913B0698134A
:1056B00002C080E00895E0913B06F0E0E854FA4F24
:1056C00080810895EAE3F6E081818083E8E3F6E0F3
:1056D000808181830895FC011382128227E331E0E7
:1056E0003183208308959B01AC018091C10084FD2A
:1056F0001092C100109239061092380610923B06A3
:1057000010923A06211531054105510501F1211587
:1057100081EE38074105510509F182E08093C00010
:1057200060E079E08DE390E00E949733DA01C901EF
:105730000197A109B109AC01BD017695679557950F
:105740004795942F852F8093C5009093C40088E9D6
:105750008093C10086E08093C20008951092C0003B
:1057600090E180E0F0CF1092C10008959091C100C7
:10577000892F807194FF06C080913A0690913B0674
:10578000891B8F770895F2CF08959091C100892FDA
:10579000807194FF14C090913A0680913B06981353
:1057A00002C080E00895E0913B06F0E0E854FA4F33
:1057B000808190913B069F5F9F7790933B06089571
:1057C000E4CF08959091C10094FF15C090913806E0
:1057D0009F5F9370209139069217E1F3E0913806AC
:1057E000F0E0EC54FA4F8083909338068091C1002A
:1057F00080628093C1000895862FE4DF81E090E00D
:1058000008950895DC01ED91FC910190F081E02D67
:10581000099508950F931F93CF93DF938C01FB019C
:105820006491EF012196662321F0C801EBDFFE01B0
:10583000F7CFDF91CF911F910F910895A0E0B0E0D5
:10584000E3E2FCE2E1C79E01275F3F4F4F815885AD
:1058500060E08D819E8112D0E2E0F2C7A0E0B0E06E
:10586000E3E3FCE2D1C79E01275F3F4F4F8158859C
:1058700061E08D819E8102D0E2E0E2C7A4E1B0E068
:10588000E3E4FCE2B1C77C016C871A016901CE0137
:1058900001964C01F1012C8520FD059120FF01911D
:1058A0001F01002309F43DC3053241F420FD059199
:1058B00020FF01911F01053261F405C00A3019F47F
:1058C0006DE0C7019FDF602FC7019CDF56016501B6
:1058D000E1CF10E0512C712CFFE1F715D8F00B321D
:1058E00079F038F4003279F00332A1F4F72DF06149
:1058F0002EC00D3261F0003369F4272D21602DC0D8
:10590000872D8260782E972D9460792E2AC0E72DFE
:10591000E86015C077FC2EC080ED800F8A3088F4D7
:1059200076FE06C02AE0129F800D1124182F19C0A0
:105930009AE0599E800D1124582EE72DE0627E2EAC
:1059400010C00E3231F476FCECC2F72DF0647F2EDD
:1059500008C00C3621F4272D2068722E02C00836AC
:1059600049F4F1012C8520FD059120FF01911F01D3
:105970000111B2CF8BEB800F833020F4872D806133
:10598000005E07C08BE9800F833008F056C1872D79
:105990008F7E86FF16E08F73782E053611F48064B3
:1059A00003C0063619F48068782E02C01111115018
:1059B00077FE06C01C3350F444244394410E08C0C3
:1059C000183040F0412C27E017E006C04CE3442E8D
:1059D00027E002C0212F412C560194E0A90EB11CF2
:1059E000F6016081718182819381042DA4010E945E
:1059F000F9046C01098100FF02C003FF07C071FCBC
:105A000008C072FE09C030E2632E07C02DE2622E8C
:105A100004C09BE2692E01C0612C802F8C7019F0AC
:105A2000611046C277C277FE0FC04C0C04FF04C061
:105A30008A81813309F44A94141474F5F8E0F4155A
:105A400078F588E0482E2CC076FC2AC0812F90E0A3
:105A50008C159D059CF02CEFC2162FEFD20674F02A
:105A6000872D8068782E0AC0E2E0F0E0EC0FFD1F81
:105A7000E10FF11D8081803319F411501111F4CF21
:105A800077FE0EC044244394410E812F90E0C81647
:105A9000D9062CF41C1904C04424439401C010E01E
:105AA00077FE06C01C141D0434F4C601019605C01F
:105AB00085E090E002C081E090E061100196112342
:105AC00031F0212F30E02F5F3F4F820F931F252DA4
:105AD00030E08217930714F4581A01C0512C872D17
