:1000000031C500000C946A270C94E22753C5000008
:1000100051C500004FC500004DC500004BC5000094
:1000200049C5000047C5000045C5000043C50000A4
:1000300041C500003FC500003DC500003BC50000B4
:100040000C94652F37C500000C94DA0E0C94000F49
:1000500031C500002FC500002DC500002BC50000D4
:1000600029C5000027C500009E1CA21CB61CD01C80
:10007000C61CDA1CE41CF51C0B1D311D311D084A81
:10008000D73B3BCE016E84BCBFFDC12F3D6C7431AC
:100090009ABD56833DDA3D00C77F11BED9E4BB4C03
:1000A0003E916BAAAABE000000803F05A84CCDB2CD
:1000B000D44EB93836A9020C50B9918688083CA6AE
:1000C000AAAA2ABE000000803F0664EC1B3C04BCC8
:1000D000163E3BE5B93CC93C37C29E5A3D66049882
:1000E000083EEA69AAAA3E000000803F0302010020
:1000F00053637265656E203000100E0F1123317A44
:100100007A7A7A7A0A0001000A006400E80320285B
:100110004E5453432900202850414C290025372EA6
:1001200032660025362E3166009125372E32660064
:10013000A125372E3266001D010B68EE0500230154
:100140008F68A3060023011473E6050023011D73C5
:10015000DE050023011268E2050029019076D6052C
:10016000003001A076D205002301BD61DA0500232D
:10017000015777CE0500230101669F06004E6F20D0
:10018000696E707574206461746121202575FF00AB
:10019000B8B9002534690507002534690506006FE4
:1001A0007665726C6F61640066726F7A656E00537B
:1001B000747265616D002534690500FF20CECECED6
:1001C000CE60CECECECE00FF20202024CB7C40CBF4
:1001D00024008280818081808480818081808380EE
:1001E0008180818085808180818020C8C8C8C87E48
:1001F000C8C8C8C820FF0020202024CBB8B9CB2411
:10020000202020FF002058650025322E3066002572
:1002100020342E3066002520342E3166002520340F
:100220002E3266005225332E306605005025332EBF
:10023000306605004825332E306605004225352EF0
:10024000316605004525352E3166004525342E30B2
:10025000666D00734525352E31660024026E699D5A
:1002600006002C026E699B060034026E6999060036
:100270003C025469970600440241689006004B0214
:100280005869820600530241738C06002090910049
:1002900025352E316600432564253569FF00256923
:1002A000002E253464001F1C1F1E1F1E1F1F1E1F33
:1002B0001E1F25303269FF003A253032693A00208E
:1002C000207820207920207AFF0020B3FF20B3FF80
:1002D00020C5FF20B3FF20B300B2FFB2FFC6FFB2BC
:1002E000FFB200B0B1B4B5B6B77B7D327C8900ED0A
:1002F000D96877000000590000000000000000D617
:100300009FDCA81817AA90437327F6B968EDF4DEAE
:10031000D409FEE61C1C84DDE80B992927D6DF8D65
:10032000210F036418EFEE1E99B7825276941500E0
:10033000347C000026149E988F0000006A31168FCE
:100340008C059600E7B73F3600000000000000AFC4
:10035000669ED0385D8A6C20B95422007CED044C36
:1003600080387486EDCBFA57CBDC19E2001DDF55DF
:1003700006E5CB01C30000000000000000009AB2B7
:100380000086DBD0BC5416131586004E44BD7F6F2B
:10039000151590010000B50000000000002F0000BE
:1003A000AEE5000000000000000000004700000073
:1003B000000000000000000000000000000000003D
:1003C000000000000000000000000000000000002D
:1003D0000000000000000000000000005A000000C3
:1003E00000000008CC31AA2C532E0002060A0F147C
:1003F0001E2D3C0601020203050A0A0B020C0142F3
:10040000616420436F6E6669673A202564206D79C8
:10041000203739004D696E696D4F53442D4578740E
:100420007261204D41564C696E6B20322E34FF753F
:100430006E692072393337204D4DFF00152622009A
:10044000013B090002340900030F17BC84DB1626A8
:100450000581090007E4100034150E0335110E0460
:1004600018450A00064C1600088B100009162200D9
:1004700025F113008BE4120B0AD8090019280E008D
:100480000DDB155C115A151116FB121212621314B2
:100490001755131313A60A021442097F0F3417BD10
:1004A0002E660B571B67171D9CEF11151DED1300D2
:1004B0000EAE17091E15180021040B00206D0E004A
:1004C0002216138F2405151F2B530B1F2CB8110058
:1004D0002D9111002F721100A7A50F00A8A20F00E7
:1004E000A99F0F00AA9C0F001F7C0D0026050D0080
:1004F00030A80800311E0A0033B10A00236810003A
:1005000032FE0F009A221400000000003E050C008D
:1005100000200505010DCD0809A80F00000000000E
:100520003606680000001C06663C04252906664065
:1005300004250006664404250E0666480425E906DF
:1005400000000000D90642130400CA06424C040011
:10055000BC0662120410AA06621104109906621900
:1005600004108C06621A04107C06000000006E065F
:100570006251041165066210041255065A4E0413A6
:1005800047067A4D0414B605B105AC050000FF001E
:100590000100040000000300E1FF1F00F1FF0F0055
:1005A000FCFF0400C0E0401F9CFF6400252E336662
:1005B00000252E30660025332E3166760034202843
:1005C0005253534929204B003320284375727265DA
:1005D0006E7429204B00322028563229204B0020EF
:1005E0002020202020204100312028563129204B76
:1005F0000020202050696E2053656E736F72730067
:10060000526F6C6C2020696E204E54534300506929
:1006100074636820696E204E54534300526F6C6CB3
:100620002020696E2050414C005069746368206935
:100630006E2050414C002020486F72697A6F6E2006
:10064000616E676C657300566572746963616C20D6
:100650006F66667300486F72697A6F6E74616C20A2
:100660006F66667300436F6E7472617374005363D8
:100670007265656E7320436F756E7400202053633E
:100680007265656E20706172616D730052535349DB
:10069000207761726E696E670042617474206368CE
:1006A00061726765207761726E004F766572737054
:1006B000656564207761726E696E67005374616C62
:1006C0006C207761726E696E6700426174742032CB
:1006D000207761726E696E67004261747465727929
:1006E000207761726E696E67002020204F5344208E
:1006F0007365747570002E253032640043256920BF
:10070000001D077607EF07D207BE071807BE07BE12
:10071000071307696E6974006D6973730061726D08
:10072000007607D707F9077107F4076C07670762B8
:10073000075D07BE07EA07DC07E007BE07BE07E55F
:1007400007580753074E074907716C6F69007168B6
:100750006F76007173746200696E697400617475FC
:100760006E006372757A0066627762006662776116
:100770000074726169006D616E7500F907F407EF2E
:1007800007EA07E507E007DC07D707D207CD07C868
:1007900007C307BE07B907B407AF07AA07A607A193
:1007A00007746872770062726B00686F6C64007423
:1007B000756E6500666C69700073707274006D5FB1
:1007C00025640064726966006F666C6F006C616E10
:1007D0006400706F736800636972630072746C0008
:1007E0006C6F69740067756964006175746F00618E
:1007F0006C7468006163726F0073746162000C084E
:1008000006081908130825392E3566002531302EC3
:100810003666002530356C64002530366C64007116
:100820000868085D085008450839082D084D6F74A0
:100830006F7220446561643F0042617474204220FD
:100840006C6F772100204C6F772052737369210001
:1008500042617474657279204C6F7721004F766520
:10086000725370656564210020205374616C6C21A3
:10087000004E6F2047505320666978210025342EA2
:1008800030660025342E31660025342E3266002570
:10089000352E32660025326900253369002534691A
:1008A0000025332E30660052B80E4085EB514019BA
:1008B00066BB0012800C1CA0141E66666640000019
:1008C000803F100CBA000A00001BE8031AF1050073
:1008D000000000E80573800225DF0573840227D637
:1008E0000573000025DF0573000027C805730000AD
:1008F00026DF0573000027BD0573000026DF0573A2
:1009000000002700000007000201000003040600A9
:1009100000000000000000010204081020408001D7
:100920000204081020010204081020040404040436
:10093000040404020202020202030303030303008D
:1009400000000023002600290000000000250028E8
:10095000002B0000000000240027002A006E616EBA
:1009600000696E660000407A10F35A00A0724E18BB
:10097000090010A5D4E80000E87648170000E40B51
:1009800054020000CA9A3B000000E1F50500008017
:10099000969800000040420F000000A08601000071
:1009A00000102700000000E80300000000640000C1
:1009B0000000000A00000000000100000000002C00
:1009C00076D888DC674F0823DFC1DFAE59E1B1B7C5
:1009D00096E5E3E453C63AE651997696E8E6C28492
:1009E00026EB898C9B62ED407C6FFCEFBC9C9F40AA
:1009F000F2BAA56FA5F490055A2AF75C936B6CF9CF
:100A0000676DC11BFCE0E40D47FEF520E6B500D0A4
:100A1000ED902E0300943577050080841E080000B9
:100A2000204E0A000000C80C333333330F986E1287
:100A3000831141EF8D2114893BE65516CFFEE6DB8D
:100A400018D1844B381BF77C1D901DA4BBE42420D7
:100A50003284725E228100C9F124ECA1E53D2700B9
:100A6000F3074F2B11241FBECFEFD8E0DEBFCDBF61
:100A700011E0A0E0B1E0EAE1F7E702C005900D92D5
:100A8000AC33B107D9F727E0ACE3B1E001C01D9268
:100A9000A334B207E1F715E0C2E3D5E004C0219723
:100AA000FE010E94C13AC033D107C9F70E946832E3
:100AB0000C94BB36A5CAFA01AA27283051F120317F
:100AC00081F1E8946F936E7F6E5F7F4F8F4F9F4FE2
:100AD000AF4FB1E03ED0B4E03CD0670F781F891F24
:100AE0009A1FA11D680F791F8A1F911DA11D6A0FF2
:100AF000711D811D911DA11D20D009F468943F91A5
:100B00002AE0269F11243019305D3193DEF6CF01A3
:100B10000895462F4770405D4193B3E00FD0C9F769
:100B2000F6CF462F4F70405D4A3318F0495D31FDD6
:100B30004052419302D0A9F7EACFB4E0A695979529
:100B4000879577956795BA95C9F7009761057105FF
:100B500008959B01AC010A2E069457954795379549
:100B60002795BA95C9F7620F731F841F951FA01DA3
:100B70000895283008F027E03327DA01990F311D56
:100B800087FD916000966105710539F432602E5F32
:100B90003D9330E32A95E1F708959F3F30F0803888
:100BA0007105610509F03C5F3C5F3D93913008F0B1
:100BB0008068911DDF93CF931F930F93FF92EF9265
:100BC000192F987F9695E92F96959695E90FFF270F
:100BD000E154F64F99273327EE24FF24A701E701BC
:100BE00005900894079428F4360FE71EF81E491F55
:100BF000511D660F771F881F991F0694A1F7059056
:100C0000079428F4E70EF81E491F561FC11D770FE1
:100C1000881F991F661F0694A1F70590079428F472
:100C2000F80E491F561FC71FD11D880F991F661F39
:100C3000771F0694A1F70590079420F4490F561FDB
:100C4000C71FD81F990F661F771F881F0694A9F723
:100C500084911095177041F0D695C7955795479593
:100C6000F794E7941A95C1F7E5E6F9E068941590D2
:100C7000159135916591959105907FE27395E118F5
:100C8000F10A430B560BC90BD009C0F7E10CF11E5A
:100C9000431F561FC91FD01D7EF4703311F48A956F
:100CA000E6CFE894015030F0080F0AF4002702174D
:100CB00008F4202F2395022F7A3328F079E37D93CF
:100CC0002A95E9F710C07D932A9589F606949795A1
:100CD0006795379517951794E118F10A430B560B52
:100CE000C90BD00998F023957E9173957A3308F05B
:100CF00070E37C932013B8F77E9170617D9330F0A0
:100D0000839571E37D9370E32A95E1F71124EF90C9
:100D1000FF900F911F91CF91DF91992787FD9095BB
:100D2000089580E0089580E0089580E00895089592
:100D30006FE070E080E090E00C94E02F682F80E09E
:100D40000C944111882311F080E401C080E090915F
:100D50001E03981741F080931E035E9880911E0336
:100D60008C61ECDF5E9A08955E9880910B0481FDA2
:100D700006C080910A0483FF1AC081E019C080EA8E
:100D80000E944C1180FF06C081E0DCDF80910A04E4
:100D9000886007C081FF08C080E0D4DF80910A042A
:100DA000877F80930A0405C082FDE3CF02C080E004
:100DB000C9DF5E9A0895CF93DF93E0911004E43089
:100DC00008F0E0E0F0E0E451FF4FC49180E1D1E0B1
:100DD000D80F6C2F0E9441118D2FD032C1F7DF91B7
:100DE000CF9108955E98E7DF60914E0482E00E9403
:100DF000411160914D0483E00E9441115E9A089573
:100E00005E988CEE0E944C11682F6F7E8CE60E94DB
:100E1000411162E18CE00E94411180911E038C63BC
:100E20008DDF0E94701B80911E038C6187DFDACFFB
:100E3000CF93DF935E98C0E1DFEFC15049F480911A
:100E40001E0382607BDF74DFDBDFDF91CF910895CB
:100E500080EA0E944C11877091F784E0815031F054
:100E6000DEBD0DB407FEFDCF9EB5F8CF61DFE5CF47
:100E700061E086E00E94723062E082E00E9472309F
:100E800061E08AE00E94723061E08AE00E94AE3048
:100E9000CFDF6ADFB5CF20911F038091200390E060
:100EA0003EE1239F800D911D112490933D0180937D
:100EB0003C0108958F71809320036F7060931F032E
:100EC00080911E03803411F0673008F4E4CF635042
:100ED00060931F03FBCF90911F03690F9091200334
:100EE000890F9EE1699FB0011124680F711D7093F5
:100EF0003D0160933C01089520913C0130913D01FA
:100F0000203E91E0390758F4A9014F5F5F4F50939D
:100F10003D0140933C01F901E25CFE4F808308955E
:100F20008F3F31F480911F038F5F80931F03B3CFF6
:100F3000E3CF862FF5DF81E090E00895CF93C42FB3
:100F4000CADF8C2FEDDFCF9108955E9860E085E0D9
:100F50000E94411160E086E00E94411161E084E05E
:100F60000E9441115E9AEEE3F1E080E25E9890818A
:100F70009EBD0DB407FEFDCF9EB581935E9A93E0B2
:100F8000EE31F90798F35E988FEF8EBD0DB407FE32
:100F9000FDCF8EB55E9A0895A1E0B0E0E2EDF7E0F6
:100FA0000C944E3B1CBC8F7280658CBD8DB58160EE
:100FB0008DBD8DB589838EB589832196E2E00C9431
:100FC0006A3B61E08DE00E94723061E08BE00E943C
:100FD000723060E08CE00E94723061E08AE00E9432
:100FE000723080E0D9CF81E293E0EBCFFB0120812A
:100FF000822790E1899F900111242827822F90E079
:10100000582F44279C0163E0220F331F6A95E1F7B4
:1010100042275327218130E02427352774E0959516
:1010200087957A95E1F782279327918380830895A6
:101030009C01862FB901DACFE82FF0E0EE0FFF1FF9
:10104000E059F94F20813181662329F040E253E0D5
:1010500088E998E004C048EE53E080ED97E024175B
:10106000350780F0241B350B841B950B65E070E081
:101070000E945C3AC9010E945C3A862F653018F0E4
:1010800084E0089580E00895A0E7B6E0E7EFF5E09A
:1010900080819181883E934028F48D919C91119795
:1010A000918380833296129685E0EF3FF80781F7AF
:1010B000089590E0880F991FDC01A059B94FFC01F9
:1010C000E950FA4F8D919C9120813181821B930BC5
:1010D0000895E091F60535E0E39FF0011124E25F09
:1010E000FA4F9491915020911001609154037091A6
:1010F000550387FF03C0222339F004C0882311F071
:10110000291721F0280F03C0292F01C020E0FB017F
:1011100036E0239FE00DF11D112433964591549143
:10112000452B39F3209310010895692FC3CE7F9387
:101130006F939F938F938AE293E09F938F930E9484
:1011400054330F900F900F900F900F900F900895C1
:10115000A0E0B0E0EEEAF8E00C94483BD92F009113
:101160004C0310914D0320914E0330914F03809119
:101170009803882309F473C082EBE82E87E0F82EE9
:10118000E4E6F0E090E9C92EDD24D394C701837032
:101190009927892B81F4C701BF010E945C3A892BF2
:1011A00031F4C701B6010E945C3A892B21F461E059
:1011B0008EE691E003C060E08DE691E0A0E0B0E053
:1011C000081719072A073B0718F440E050E008C049
:1011D000081B190B2A0B3B0B8FEFE81AF80AD6CF26
:1011E000C42FFA01EA55FD4FE4914130510511F445
:1011F0006111EF5F8E2F90E0A0E0B0E008171907B3
:101200002A073B0750F0081B190B2A0B3B0B4F5FBB
:101210005F4F4C30510521F7CCE08D2F0F5F1F4FF2
:10122000D0E086FF0EC0B80187EF96E080DFBE01F8
:101230006F5F7F4F86EF96E07ADFB70181EA92E039
:101240000DC0B7018DE998E072DFBE016F5F7F4F7F
:1012500086EF96E06CDFB80186EF96E068DFCDB7E9
:10126000DEB7E8E00C94643B6091E6037091E7031D
:1012700089E991E05CCF6091E4037091E50383E933
:1012800091E055CF80910C068E30C1F420915F061D
:1012900030E087E090E0482FB901082E02C0759534
:1012A00067950A94E2F760FD03C00197A0F748E054
:1012B00040935F0689E0E1E0F7E00BC080910E0407
:1012C000882321F083E1EBE7F7E003C084E1E1E26A
:1012D000F7E090915F06692F70E0981740F4CB011A
:1012E000880F991FE80FF91F8591949102C08EEB2A
:1012F00097E01DDF80918403882311F086E810CEEB
:1013000008951F93CF93DF93C82F192F8091400624
:10131000823019F020F0DFE003C0DFE101C0DAE243
:101320008091800690918106883C910520F0809103
:1013300089038111D0E2C095CC1FCC27CC1F11F0BE
:1013400016FF0DC06091410670E085E998E0EFDE80
:10135000CC2341F016FF06C08D2FE2DD03C08D2F98
:10136000DFDDF0CFDF91CF911F910895CF93DF9311
:1013700088E8D6DDC2E1D1E08881D2DD8981D0DD87
:101380008EE8CEDDDF91CF910895CF93813110F0BB
:101390008051FCCF811101C080E1880FCEEFC80FD2
:1013A00080E98C0FBDDD81E98C0FBADDCF91089506
:1013B000CF9380918B03882361F0C92F80913706EA
:1013C000E4DFC6FF06C06091370670E089E998E067
:1013D000AEDECF910895EF92FF920F931F93CF93BC
:1013E000DF938C01D62FC42F6CE370E00E945C3A2F
:1013F0007C0189E998E09BDECC2341F0B70188EBC2
:1014000092E095DECF776C2F70E010C0DD2331F0D5
:1014100080918903882311F080E201C08AE380DD96
:10142000C8016CE370E00E945C3ABC0182EB92E080
:101430007EDECDB7DEB7E6E00C94663BCF938091BD
:1014400098038823D9F0C92F60914803709149030C
:1014500080914A0390914B032CE330E040E050E050
:101460000E94833ADA01C901C5FF04C0462F4068D3
:1014700060E003C06C2F607440E0ADDFCF91089551
:1014800040E060E0A8CF85E24BCD1F93CF93DF9380
:10149000382F192F209165062F55C09167062630E9
:1014A00008F046C0D0E080E09C2F64E670E00E9427
:1014B0005C3ACB016138710540F029E820931201B4
:1014C00080589109E3E1F1E012C02DE82093130167
:1014D0006231710550F420918903222331F020E21A
:1014E000209312012093130109C0E2E1F1E06AE1C7
:1014F00070E00E945C3A2DE8261B208337FF36DF20
:1015000016FF06C0BE0185E998E011DEBCDF1AC0F7
:1015100060919F067091A0068091A1069091A2060D
:101520000E9409388DE998E002DE81E0F9DC0AC00A
:1015300024E6C29FC00111246FEF70E00E94703A50
:10154000EB01B1CFDF91CF911F9108956091160605
:1015500070E089E998E0EBDD96CF80E2E1CC8FEF97
:10156000DFCCEF92FF920F931F93CF930EE213E025
:10157000C0E096FD1CC089E0E82EF12CF8018191B5
:1015800091918F018C549440B7010E945C3A87EF8F
:1015900096E0CDDDC13011F4E2DF01C0DEDFCF5FC8
:1015A000C43061F70FC0D9DFCF5FC43059F0F80104
:1015B000619171918F018DE998E0B9DDC13099F7A2
:1015C000CEDFF2CFCF911F910F91FF90EF90089552
:1015D000CF93C22F7F936F935F934F939F938F937C
:1015E0008AE293E09F938F930E9454338DB79EB706
:1015F00008960FB6F8949EBF0FBE8DBFCC2311F096
:101600008C2F8EDCCF910895A0E0B0E0EAE0FBE003
:101610000C94483B80916E0690916F06FC013A96BF
:10162000D4913296C4910D96FC010591149160916C
:1016300062067091630680E090E00E943A382DECDB
:101640003CEC4CEC5DE30E9455396B017C016C2F46
:1016500070E080E090E00E943C389B01AC01C70143
:10166000B6010E9455396B017C01B80180E090E021
:101670000E943A389B01AC01C701B6010E94D436E2
:101680002AE037ED43E25CE30E945539AB01BC012F
:101690002D2F80E992E09CDFCDB7DEB7E8E00C9417
:1016A000643B20E095CF609180067091810680E0D8
:1016B00090E00E943A382AE037ED43E25CE30E9472
:1016C0005539AB01BC0189E898E0EBCF40910604A5
:1016D00050910704609108047091090481EA98E030
:1016E000E0CFABE0B0E0E7E7FBE00C943E3B80915D
:1016F0001E03803489F48090400490904104A090AF
:101700004204B0904304C0903C04D0903D04E0906B
:101710003E04F0903F0410C080904804909049042B
:10172000A0904A04B0904B04C0904404D09045046B
:10173000E0904604F09047048091E6039091E7031F
:10174000BC01990F880B990B0E943C389B01AC019E
:10175000C701B6010E9455396B017C018091750368
:1017600080FF04C0F7FAF094F7F8F094C701B601CF
:101770000E940938AB016A35710540F09B012D5478
:101780003F4F2935310580F477FDA90147345105D4
:101790002CF54A31510534F54A30510540F128E025
:1017A0002A8713EF30ED27C06B3571051CF0AB01B4
:1017B000435B5109CA0157FF03C091958195910977
:1017C00087349105D0F48A319105E0F40A9700F14D
:1017D00048E04A8715EF82EE8B871FC01A861DEC02
:1017E00091EC14C0E7E0EA8718EFF9ED15C029E0A5
:1017F0002A871DEC36EC3B8710C01A861DEC41ECA5
:101800004B870BC087E08A871BEF9BEE9B8705C049
:10181000E9E0EA871DECF6ECFB8727EA32E94BE2C8
:101820005CEBC501B4010E9455394B015C0125E315
:101830003AEF4EE85CE3C701B6010E9455396C836C
:101840007D838E839F839CE0292E312C19822A85EB
:10185000022E000C330B398728878981C82E880F08
:10186000DD086091E4037091E5036C0D7D1D072E8A
:10187000000C880B990B0E943C38A50194010E9432
:1018800055390E94FD3920E030E044EB52E40E94DB
:1018900055392B013C0120E030E0A9010E944A3972
:1018A00020E030E040E05FE387FD0BC0C301B20100
:1018B0000E94D4360E9409387B01EDE2EE0EF11C45
:1018C0000AC0C301B2010E94D3360E9409387B01CD
:1018D000FDE2EF0EF11C0DE00219222733272C192F
:1018E0003D093B832A83802F90E0281639060CF4AB
:1018F0006FC06C817D818E819F810E94FD392B019B
:101900003C013CE0039F602D11246E54062E000C18
:10191000770B880B990B0E943C389B01AC01C301EB
:10192000B2010E9455390E940938F701E60FF71FEE
:10193000CF0101978A35910508F048C062E170E057
:101940000E94703A3B014A85442379F031962EEE8D
:101950002603C001279F900D1124E80FF91FF7FD02
:101960003196F595E7955E2E01C0512C64E066191D
:101970008FEF800FB0DA3981332379F0053069F4C5
:10198000B601D7FE02C06A817B814AE050E08AE25C
:1019900093E00E94623206E003C08B85850DC0DAB9
:1019A0005520A1F0252D30E0888599852817390725
:1019B0006CF094E06916710449F0E52DE10F4AEFEF
:1019C0004E0F63E066198FEF800FB8DA0F5F8BCF91
:1019D000F7FE0BC0E981E25EE98334E0231A3108A7
:1019E00044E02416310449F038CFFBE5EF16F1044A
:1019F00024F029812E512983F0CF2B96E2E10C941B
:101A00005A3B66E089E056DA6CCE0F931F93CF9372
:101A1000DF932091A703222309F460C04091A5031E
:101A20005091A603209114063091150642175307D2
:101A300009F454C02091A303233010F4D1E201C073
:101A4000D0E0092F182F8091A403CAE1C81BC7FD5D
:101A500010C08C2F8695692F810F2CDA17FD02C0DC
:101A6000D1113FC067EA73E08AE293E00E94DA3165
:101A70003EC017FD02C0D11137C006FD1DC0C19583
:101A80002C2F30E08091E2039091A203891B90E01B
:101A9000B901660F771F0E94703A40919B03411174
:101AA0000DC0009729F0215031098217930731F4B6
:101AB00021E020939B0302C080E090E0EC01C95537
:101AC000DC4F8E01065E1F4F8991811102C045DDFA
:101AD0000EC026DAC017D107B9F7F9CF1092A703C5
:101AE00006C08D2F1DDABECF8D2F1ADAC6CFDF913B
:101AF000CF911F910F910895292F809114069091F5
:101B000015068F739927029710F026FF06C06BE128
:101B100074E08AE293E00C94DA3108950E94D3369F
:101B200020EC3BE649ED57E40C945539CF92DF9217
:101B3000EF92FF92CF93C42F6B017C01E894F7F8EA
:101B4000C701B6010E940938072E000C880B990BBB
:101B50000E943C389B01AC01C701B6010E94D336FC
:101B60009B01AC01C11105C060E074E284E799E417
:101B700004C060E070E583EC97E40E9455390E9450
:101B80000938CF91FF90EF90DF90CF9008950F9399
:101B90001F93CF93DF93162F082FEC018C2F801B00
:101BA000811720F489910E940633F8CFDF91CF91FD
:101BB0001F910F910895CF93DF93282F86FB442721
:101BC00040F9E42FF0E0DB016D917D918D919C91C6
:101BD000EE0FFF1F25FF1AC0EE5FF74FC591D4919E
:101BE000A5DF9F938F937F936F93DF93CF938AE2C9
:101BF00093E09F938F930E945433ADB7BEB718966E
:101C00000FB6F894BEBF0FBEADBF08C0E250F84F8C
:101C100025913491AB01BC01C90143DDDF91CF9126
:101C200008956AEF73E0892FC6CF66EF73E0892FBE
:101C3000C2CFCF93C42F28EE33E040E050E00E94A3
:101C4000833ADA01C90140E06C2FC5DBCF910895DA
:101C5000492F407460914F06709150068091510653
:101C600090915206E6CFCF93C82F6091B80470913F
:101C7000B9048091BA049091BB040E940938615064
:101C800071096F30774280F4C7FD02C086E148D900
:101C90004091B8045091B9046091BA047091BB04AA
:101CA00021E08DE798E094DCCF9108957F936F93C6
:101CB0009F938F9386E992E09F938F938AE293E0BC
:101CC0009F938F930E9454338DB79EB708960FB69B
:101CD000F8949EBF0FBE8DBF08950F931F93CF93AF
:101CE000DF9300E716E080E090E0F80161917191E8
:101CF0008F01EC012196CE01D9DFCE012897A9F7FB
:101D0000DF91CF911F910F910895AAE0B0E0EBE829
:101D1000FEE00C94453BD62EB72EC42EA22E9EEF8D
:101D200099834A833091B3043B83909109019C834A
:101D300090910A019D838E833F5F3093B3048FEFB0
:101D40009FEF98878F838E010E5F1F4F7E0187E084
:101D5000E80EF11C0E151F0531F0B701F801819155
:101D60008F0144D9F7CF8F8198859A8789870D2D68
:101D70001B2D9C2C9D0CBE01675F7F4F901629F098
:101D8000F80181918F0132D9F6CF8A2D2FD999850B
:101D90008A859F83888766E0CE010196F8DE6C2DE8
:101DA0008D2D9B2DF4DE62E0C701F1DE2A96EBE07B
:101DB0000C94613B1F920F920FB60F9211242F9338
:101DC0008F939F93EF93FF939091C600809141076B
:101DD0008F5F8F7720914207821741F0E091410792
:101DE000F0E0E154F94F908380934107FF91EF9128
:101DF0009F918F912F910F900FBE0F901F9018956C
:101E00001F920F920FB60F9211248F939F93EF930F
:101E1000FF939091400780913F07981779F0E091E8
:101E20004007F0E0E554F94F80818093C60080912F
:101E300040078F5F83708093400705C08091C10089
:101E40008F7D8093C100FF91EF919F918F910F90B3
:101E50000FBE0F901F901895EF92FF920F931F9354
:101E6000CF93DF938C01040F151FEC017B01E81A5F
:101E7000F90AC017D10739F0C7018C0F9D1F0E94C6
:101E8000753B8993F6CFCDB7DEB7E6E00C94663BA1
:101E9000A8E1B0E0EEE4FFE00C944D3B182F88E1A0
:101EA000189FB001112460587D4F48E150E0CE01E9
:101EB0000196D2DFE12FF0E0EE0FFF1FED59FC4F4E
:101EC0006081718180E090E00E943A3829813A81F6
:101ED0004B815C810E9455392D813E814F8158850F
:101EE0000E94D4369F938F937F936F93CE01099670
:101EF0009F938F938AE293E09F938F930E94423344
:101F00000FB6F894DEBF0FBECDBF6896E3E00C9429
:101F1000693B982F262F30E0F901E15AFC4F87FDED
:101F200009C0862F41E04083F901E55AFC4F9074C7
:101F30009083AECF1082089563E0892FEACF62E0EC
:101F4000892FE7CF61E0892FE4CF60E0892FE1CFCF
:101F5000CF936AE086E00E945A07C0E08C2F98DF9A
:101F6000FEDACF5FC430D1F7CF910895A0E0B0E0A2
:101F7000ECEBFFE00C94493BEB017C018B01040F7F
:101F8000151FC017D10771F0F701D1907F01CE0165
:101F90000E94753B8D1521F06D2DCE010E947D3B79
:101FA0002196EFCFCDB7DEB7E7E00C94653BEF921B
:101FB000FF921F93CF93DF93182F7B01C0E0D3E0F4
:101FC000CE010E94753B8F3F71F0811103C0112338
:101FD00051F01150111102C0F70109952196C03836
:101FE000F3E0DF0769F7DF91CF911F91FF90EF904A
:101FF0000895BC018AE293E00C942E331F93CF9393
:10200000DF93182FD92F87FD0EC096FF04C0C0E0C4
:102010008AEC92E003C0C1E089ED92E0EADF812F13
:102020009D2F83D801C0C0E08091A7069091A8069B
:10203000A091A906B091AA06BC01CD0190589B01C0
:10204000AC010E94D4360E9409388091750382FF4A
:1020500005C0CB016CE370E00E94703AD5FF05C06B
:10206000CB016AE070E00E94703AD4FF06C077FFAF
:1020700002C06F5F7F4F7595679516FF08C077FFA9
:1020800002C06D5F7F4F75956795759567959B014C
:10209000235D3F4F37FF02C02F5F3F4FC90195952A
:1020A000879569E070E00E94703A65302CF467FD16
:1020B00006C04FEC481B05C04EE764E002C040E696
:1020C00060E08C2F0E949E07DF91CF911F910895B1
:1020D000CF93DF9387FD03C08FEB92E08ADFCCE3E1
:1020E000D3E0499159916991799181EA98E0D9DADF
:1020F00083E0C834D807A9F732DAC6E3D3E06991A0
:10210000799189E998E013D883E0CC33D807B9F7FF
:10211000DF91CF910895FF920F931F93CF93DF9399
:10212000F92E8095D82FDD1FDD27DD1F092F0072C6
:10213000DD2339F096FD05C00023B1F187EF91E072
:1021400058DF83EC0E9490072091310630913206CF
:1021500048E1429FC001439F900D11240C9668E610
:1021600071E00E94703A64507109C62F77FF02C077
:10217000C8E1C60F011102C019E001C01AE0EC2F3E
:10218000F0E0EE52FE4F84910E949007CF5FC8317D
:1021900008F0C0E0115099F787E80E949007DD230E
:1021A00071F0F6FC04C00BC08AEE91E0C9CF0111BA
:1021B00003C08BEB91E002C087EC91E01ADFCDB752
:1021C000DEB7E5E00C94673B1F93CF93DF9340911C
:1021D000FA035091FB036091FC037091FD03452BC2
:1021E000462B472B69F44091F6035091F703609119
:1021F000F8037091F903452B462B472B09F43DC09A
:1022000094FD02C01FEF01C010E2EC018091890330
:102210008823D9F0809195038A3048F08FEA91E0C5
:10222000E8DE812F0E94900788EA91E00CC080913F
:1022300096038A3050F08FEA91E0DBDE812F0E9416
:1022400090078FE991E0D5DE18C0C095CC1FCC2750
:10225000CC1F19F083E00E94900766EF73E08D2F8A
:10226000AADC812F0E949007CC2319F084E00E9401
:1022700090076AEF73E08D2F9EDCDF91CF911F9165
:1022800008958EBD0DB407FEFDCF8EB56EBD0DB4A5
:1022900007FEFDCF8EB508958EBD0DB407FEFDCFB0
:1022A0008EB58FEF8EBD0DB407FEFDCF8EB50895B0
:1022B0008AEA90E00C9404300E94DA32811101C065
:1022C000F7CF089595FB222720F994FD02C090E0F6
:1022D00001C092E0922B86FD02C080E001C084E044
:1022E000892B08951F93CF93DF93182FEBDF8C5F1B
:1022F000C82FD0E017FD07C0BE016F5F7F4F8CEF86
:1023000096E00E949708CC0FDD1FC059D94F688115
:1023100079818DE998E00E949708DF91CF911F9114
:1023200008951F93CF93DF93182FC92FCBDFD4E0ED
:10233000D80F17FD08C06D2F70E06F5F7F4F8EE9DB
:1023400092E00E9497086C2F60748D2F0E941C08E9
:10235000D82FC0E0CD1302C081E801C080E80E9400
:102360009007CF5FC530B1F7DF91CF911F910895EE
:102370001F93CF93DF93182FC92FA4DFD4E0D80F7A
:1023800017FD08C06D2F70E06F5F7F4F8CEF96E0F8
:102390000E9497086C2F60748D2F0E941C0860E9C2
:1023A00077E005DEDF91CF911F91089596FB2227FC
:1023B00020F930E095FD03C080E090E002C082E0AB
:1023C00090E0282B392B215031092330310528F496
:1023D000F901E85EFE4F8081089580E00895CF9274
:1023E000DF92EF92FF92CF93DF93D82FC92FDEDFDA
:1023F00080930F01C7FD46C0C4FF2AC081E08093CF
:10240000900329E838E848E85CE36091A7067091FA
:10241000A8068091A9069091AA060E9455396B01E1
:102420007C010E9409389B0177FF04C022273327D3
:10243000261B370B2A303105FCF4D6FD03C08DE195
:1024400092E002C086E192E028E1B701A60112C045
:1024500010929003E0916E06F0916F0672962491AF
:102460004091A7065091A8066091A9067091AA060E
:102470008FE092E0ADD806C0243631051CF38FE022
:1024800092E0E2CFDF91CF91FF90EF90DF90CF907D
:102490000895A2E0B0E0EFE4F2E10C944E3B90919D
:1024A0000706682F70E0660F771F80E8989F600D21
:1024B000711D112442E050E0CE010196CDDC8981EE
:1024C0009A812296E2E00C946A3B0F931F93CF937C
:1024D000DF93EC018B010E94AF2FDC01CB01800F59
:1024E000911FA11DB11D88839983AA83BB83DF91AE
:1024F000CF911F910F9108959B01FC014081518163
:1025000062817381420F531F611D711D408351838E
:10251000628373830895E0916E06F0916F0634969E
:1025200065917591859194910895CF92DF92EF9284
:10253000FF92CF93DF936B017C01EDDFA701960142
:102540000E9455396B017C0120E03CE34CE156E4EC
:102550000E949A37C0916E06D0916F06FE01181640
:102560003CF039962491B701A6018DE798E024C08C
:1025700070966591749180E090E00E943A389B01DA
:10258000AC01C701B6010E94A1376B017C010E941A
:1025900009386A30710534F06436710534F08DE71E
:1025A00098E005C089E898E002C083E898E0FE0161
:1025B0003F962491B701A6010BD8DF91CF91FF90F0
:1025C000EF90DF90CF90089596FB882780F9809355
:1025D0009A0380918B03882369F097FD0BC060916B
:1025E00038067091390680913A0690913B060E9418
:1025F0003C389BCF089540918806509189066091A0
:102600008A0670918B0696FD08C04115510561053B
:10261000710519F0CB01BA0188CF40912D06509178
:102620002E0660912F0670913006F4CF6091A306BC
:102630007091A4068091A5069091A60676CFE091B0
:102640006E06F0916F06659175918591949108954C
:10265000CF92DF92EF92FF921F93CF93DF93EC0123
:102660006A017B01122FEBDFA70196010E94553909
:10267000112341F024EE38E34EE85EE30E94553921
:1026800028E106C0E0916E06F0916F06389624911D
:10269000AB01BC01CE010E94E80ADF91CF911F91EE
:1026A000FF90EF90DF90CF900895292F20744091F4
:1026B000250650912606609127067091280681EA2A
:1026C00098E0C6CF292F207440911B0650911C061C
:1026D00060911D0670911E0681EA98E0B9CFA0E0D6
:1026E000B0E0E5E7F3E10C94483BEC01D62EFE01A7
:1026F000059114910115110509F46AC0FE01329685
:10270000849181110E949007FE0133968491319645
:10271000E590F490893691F030F4813609F43CC0AC
:102720008836C1F004C08337E9F0863719F150E2EA
:10273000C52E60E070E080E89FE337C0F70160815C
:102740007181072E000C880B990B0E943C3840E2E7
:10275000C42E32C0E0916E06F0916F063996C49097
:10276000DADE23C0E0916E06F0916F063896C490D1
:1027700066DF1BC0D0DE20919003211114C0E091D0
:102780006E06F0916F067296C49020E030E040E74C
:1027900052E40E94553909C031E4C32E6AE077ED56
:1027A00083E29CE302C028E1C22EF701208131813F
:1027B000428153810E9455392C2DAB01BC01C801C7
:1027C0000E94E80A0E94AF0A2796DA94D1108FCFB0
:1027D000CDB7DEB7E8E00C94643B67E08BE592E0B0
:1027E0007ECFCF93DF93D82FC92F0E94950888E022
:1027F0000E94900760914F0670915006809151069B
:102800009091520640E015DA6AE087E391E067DFD5
:10281000C6FF05C06C2F8AE08D0F0E945A0783E027
:102820000E94900766EF73E080E0C5D90E94AF0A6E
:1028300084E00E9490076AEF73E080E0BCD9DF91EA
:10284000CF910895CF92DF92EF92FF92CF93DF93D3
:1028500080918303882309F4BFC010928303C09042
:102860002506D0902606E0902706F0902806E7DEA1
:10287000A70196010E9455390E940938EB01809109
:102880006C0690916D0664E670E00E945C3AFB0174
:1028900080918F03882351F091E080E020914006E1
:1028A000223008F090E0292F382F02C020E030E0DD
:1028B00080910E0481110AC08091120490E0C81723
:1028C000D90724F48091880380FD2260809111044F
:1028D000882329F090E08C179D070CF42460409128
:1028E00067069091650660911304662331F0309776
:1028F00021F070E0E617F707ECF0C0911904CC2343
:10290000D1F084E6489FA0011124892F97FF02C0CF
:1029100081E0890F8595480F511D87FD5A95692FD4
:10292000990F770BCA010E94703A8C2F90E06817BC
:1029300079070CF428608091180480FD0BC0809109
:102940001A0490E04091DC035091DD0348175907C9
:1029500008F4206180914C04882339F0309729F0E5
:1029600090E0E817F9070CF42062809116068F3189
:1029700048F08091680690916906883C910514F4AE
:10298000206406C02115310519F41092230324C0D8
:102990009091230381E09111890F8093230380910B
:1029A00023036FEF680F41E050E002C0440F551F52
:1029B0006A95E2F78B3018F081E041E050E0BA010F
:1029C00062237323672B21F48F5F440F551FF2CFCF
:1029D000809323038917C9F2E0912303EE2341F08A
:1029E000F0E0EE0FFF1FE35EF74F8591949101DB5E
:1029F000DF91CF91FF90EF90DF90CF9008952FE679
:102A000032E143E85AE30C945539CF92DF92EF92CA
:102A1000FF92CF93DF93C091BC04D091BD047BDDC6
:102A20006B017C012AEF2C9FC0012D9F900D11247A
:102A3000BC01990F880B990B0E943C389B01AC019B
:102A4000C701B6010E945539E0916E06F0916F06FC
:102A5000A8974CF03F96C491D2DFAB01BC012C2F5C
:102A600089E898E006C039962491AB01BC018DE756
:102A700098E00E94E80ADF91CF91FF90EF90DF90FD
:102A8000CF900895CF93DF93611103C0CFE8D8E0D2
:102A900002C0C3E8D8E0BC0180E090E00E943A3870
:102AA000AEDFAB01BC012DE0CE010E94E80ADF9150
:102AB000CF9108950F931F93292F207495FF15C070
:102AC00060912D0670912E0680912F069091300610
:102AD000222321F12091290630912A0640912B06CC
:102AE00050912C060E94D33619C06091FE0370915C
:102AF000FF038091000490910104222361F0009172
:102B0000F2031091F3032091F4033091F503601B5D
:102B1000710B820B930B0E943C3871DF06DD1F9115
:102B20000F9108952091140630911506260F311D3E
:102B30003093A6032093A5038093A4038091E2031E
:102B40008093A203089597FF03C088599E4F08956C
:102B5000893621E0920714F0885691400895CF936A
:102B6000DF93EC010E94AF2F28813981CB01821BBA
:102B7000930BDF91CF91089581E080937D0388E0EE
:102B8000E7EFF5E0DF011D928A95E9F780E081DC4F
:102B90009093760380937503089524E0880F991F1E
:102BA0002A95E1F78C549F4F68E671E00E94703AD5
:102BB000CB0101960895CF92DF92EF92FF921F937F
:102BC000CF93DF9380915F068A3009F05DC0C0919A
:102BD0008206D0918306C83E83E0D8073CF4C93111
:102BE0008CEFD8072CF4C9E1DCEF02C0C7EED3E0CC
:102BF000E0916E06F0916F063996149160919406FB
:102C000070E085E998E00E9497080E94AD0A609103
:102C100095067091960680E090E00E943A386B012C
:102C20007C0179DCA70196010E945539AB01BC01FA
:102C3000212F8DE798E00E94E80A0E94AF0A809158
:102C40009706909198067FDF2091310630913206E9
:102C5000821B930BA2DF0E94C50985E092E0C9D9CF
:102C60005ADC6B017C01BE01DD0F880B990B0E94C1
:102C70003C38A70196010E945539AB01BC01212FB8
:102C80008DE798E00E94E80ADF91CF911F91FF90B5
:102C9000EF90DF90CF90089580913E0690913F068F
:102CA000C29664E670E00E945C3A20913106309151
:102CB0003206CB01821B930B46DF845B9109909314
:102CC0003D0680933C0669DF885F0E94C5096091DC
:102CD0003C0670913D0686EB91E00C949708CF92EC
:102CE000DF92EF92FF92CF93DF93EC016A017B01B9
:102CF0009A01AB01688179818A819B810E949A3710
:102D000087FF04C0C882D982EA82FB82DF91CF911B
:102D1000FF90EF90DF90CF9008958F929F92AF92A7
:102D2000BF92CF92DF92EF92FF920F931F93CF93B8
:102D30008C014A015B01C22FFC01C080D180E2807E
:102D4000F38020E030E0A901C701B6010E949A3764
:102D5000882311F0C23030F4F80180829182A2827F
:102D6000B3821DC0A7019601C501B4010E94D336EC
:102D70004B015C016C2F70E080E090E00E943C38D9
:102D80009B01AC01C501B4010E94A137A7019601C6
:102D90000E94D436F8016083718382839383CF913C
:102DA0001F910F91FF90EF90DF90CF90BF90AF9069
:102DB0009F908F900895CF93DF9397FD25C0C92FE3
:102DC00091E0909399039C2FF1DAD82F60916A06D5
:102DD00070916B0680E090E00E943A38AB01BC0134
:102DE0002D2F8CE994E099DFC07160919C04709163
:102DF0009D0480919E0490919F040E940E38DC01F6
:102E0000CB016C2F3FDE08C081E090914C04911102
:102E100001C080E080939903DF91CF910895CF9313
:102E2000DF93C92FC3DAD82F60916C0670916D06BD
:102E300080E090E00E943A38AB01BC012D2F88E978
:102E400094E06BDFC0716091980470919904809157
:102E50009A0490919B040E940E38DC01CB016C2FE8
:102E600011DEDF91CF910895CF93DF93C92F9EDAC2
:102E7000D82F6091680670916906072E000C880BA8
:102E8000990B0E943C38AB01BC012D2F80EA94E0E5
:102E900044DFC4FD03C0CFE8D8E002C0C3E8D8E0F7
:102EA0002AE037ED43E25CE36091A0047091A10455
:102EB0008091A2049091A3040E945539AB01BC01FA
:102EC0002EE0CE010E94E80ADF91CF910895A0E0A4
:102ED000B0E0EDE6F7E10C94483BD92F80911F0656
:102EE0009091200630DE8C01C0902106D090220601
:102EF000E0902306F090240624E6B701A6018BEAB1
:102F000096E00BDFD6FBCC27C0F92C2FB701A6012A
:102F100081EA98E09DDB0E94AF0A20913106309152
:102F20003206C801821B930B38DED5FD02C090E04B
:102F300001C098E0890F0E94C5094091AB065091ED
:102F4000AC066091AD067091AE062C2F89E092E040
:102F50007FDBCDB7DEB7E8E00C94643BCF93DF9323
:102F6000C92F24DAD82F6091DC037091DD0380E053
:102F700090E00E943A38AB01BC012D2F84EA94E026
:102F8000CCDE6091A4047091A5048091A604909178
:102F9000A7040E94093889E998E00E949708809167
:102FA000180480FD03C0C4FD0E94430ADF91CF9145
:102FB00008958F929F92AF92BF92CF92DF92EF923D
:102FC000FF926091680670916906072E000C880BCD
:102FD000990B0E943C386B017C0180901B069090FD
:102FE0001C06A0901D06B0901E0629DBA5019401C9
:102FF0000E9455399B01AC01C701B6010E94A1375F
:1030000020E030E040E251E40E945539AB01BC01C0
:1030100024E688EB94E081DEFF90EF90DF90CF9084
:10302000BF90AF909F908F900895A0E0B0E0EBE14B
:10303000F8E10C94443B20918403222309F42EC12F
:10304000C82F96FF12C020E030E0A90160911B0656
:1030500070911C0680911D0690911E060E949A3761
:10306000882309F41BC1A5DF20C080910E048111C3
:10307000C8C020E030E0A90160911B0670911C06D9
:1030800080911D0690911E060E949A37882309F4AC
:1030900005C18FDF9091160680918703933048F029
:1030A000811103C081E0809387038C2F0E94330E2F
:1030B000F5C0882311F18091880690918906A0912E
:1030C0008A06B0918B068093460690934706A0939C
:1030D0004806B09349068091A3069091A406A0915A
:1030E000A506B091A6068093A8049093A904A09386
:1030F000AA04B093AB04109287032DEC3CEC4CE493
:103100005DEB609142067091430680914406909178
:1031100045060E949A3787FF62C0C0908806D0900B
:103120008906E0908A06F0908B062091A8043091E1
:10313000A9044091AA045091AB046091A306709138
:10314000A4068091A5069091A6060E94D3364B0155
:103150005C01A70196016091460670914706809137
:103160004806909149060E94D3369B01AC01C701E5
:10317000B6010E94A1379B01AC01C501B4010E94B8
:1031800055396B017C01C7D99B01AC01C701B60160
:103190000E9455396B017C010E940938CB016031D6
:1031A000774224F41816190644F078C0C12C8CE339
:1031B000D82E8CE1E82E86E4F82EC7FD03C08EEEF3
:1031C0000E949007E0916E06F0916F063996249167
:1031D000B701A6018DE798E00E94E80A5FC08091E0
:1031E000E4039091E50397FF59C0809189038823F8
:1031F00019F08DE892E002C08CE892E00E94F90F8D
:103200004DC0D09167060D2F10E080916406082E06
:10321000000C990B08171907B1F160914F067091D6
:10322000500680915106909152060E943A386B01E7
:103230007C016D2F70E080E090E00E943A389B01A5
:10324000AC01C701B6010E9455396B017C01409168
:103250006506042E000C550B401B510BBA01550F8F
:10326000880B990B0E943C389B01AC01C701B60149
:103270000E94A137C4DB0E940E38709361066093F0
:103280006006D0936406C7FD03C087E10E949007E3
:1032900080916006909161060E94400ACDB7DEB72A
:1032A000ECE00C94603B2AE038CDCF93DF93EC0147
:1032B0009A01AB01688179818A819B810E94D43611
:1032C000688379838A839B83DF91CF910895A7E0F8
:1032D000B0E0EDE6F9E10C943E3B82E094E03FDCA7
:1032E0001C0160E070E082E094E0EFD8B10180E082
:1032F00090E00E943A3883DB6A837B838C839D83D2
:103300006091680670916906072E000C880B990B76
:103310000E943C386B017C0160916C0670916D06D7
:1033200080E090E00E943A38A70196010E9455394A
:103330002CEA35EC47E257E30E945539AB01BC015A
:1033400086E094E0B0DF10910F01809042069090EB
:103350004306A0904406B0904506DDD82B013C0101
:1033600020E030E040E752E4C501B4010E94553945
:10337000A30192010E945539AB01BC01212F87EABC
:1033800096E0CBDC2091670680916506082E000C44
:10339000990B422F50E08417950714F4209365068B
:1033A00080910E04811120C01091880310FD1CC073
:1033B000609188067091890680918A0690918B06AB
:1033C0000E940938663071057CF0809116068F31B5
:1033D00058F01160109388031092A3061092A4066F
:1033E0001092A5061092A60621E63BE046E35BE3B9
:1033F000C701B6010E9455392A813B814C815D810C
:103400000E945539AB01BC018FE996E04EDF8091F7
:10341000DE039091DF032091180420FD5FC020910E
:103420005204309153043F832E8300915404109131
:103430005504021713074CF43E812F811F830E831E
:10344000032F122F31E0398301C019823E812F8171
:103450004E815F814817590714F4382F292F632FA5
:10346000722F061717070CF4B8018E819F81681B15
:10347000790B80E090E00E943A382B013C01B801C2
:10348000EE81FF816E1B7F0B80E090E00E943A3856
:103490009B01AC01C301B2010E94A13720E030E0E2
:1034A00048EC52E40E9455390E940938653671058E
:1034B0002CF477FF05C060E070E002C064E670E0C5
:1034C000F981FF2331F084E690E09C01261B370B45
:1034D000B9017093DD036093DC0304C09093DD03B6
:1034E0008093DC0380910E04811104C080918803D5
:1034F00080FD05C080918403882309F472C0B10166
:103500008FE496E00E947C1280918B03882399F0CF
:1035100020911B0630911C0640911D0650911E06FD
:103520006A817B818C819D810E945539AB01BC01F0
:1035300083EA96E0BADE6091380670913906809190
:103540003A0690913B060E943C38AB01BC018EEEDE
:1035500095E0C5DB4091250650912606609127062F
:10356000709128068AEE95E0BADB40911B065091D7
:103570001C0660911D0670911E0686EE95E0AFDB7D
:1035800040912D0650912E0660912F0670913006C5
:1035900082EE95E0A4DB40912106509122066091D5
:1035A0002306709124068EED95E099DB4091060488
:1035B0005091070460910804709109048EEC95E025
:1035C0008EDBB701A6018AED95E089DBB501A40188
:1035D00086ED95E084DBB501A401705882ED95E09D
:1035E0007EDB2796E2E10C945A3BCF93DF93EC010C
:1035F000CB01BA010E943C3825E93FEB46ED53E38D
:103600000E945539688379838A839B83DF91CF91A8
:1036100008950E94AF2F60930E0670930F0680935B
:1036200010069093110680911406909115069093C0
:10363000130680931206EDE7F3E081E08083828336
:103640000895CF9390916D03992309F447C0E091B9
:103650004F04F0E0EE0FFF1FE858F94F2081318151
:10366000CFB7882309F0F894809156048130D9F0BF
:1036700018F0823011F131C0E0916B03F0916C03CE
:10368000908180916D03892B8083C9010E94043051
:10369000E0916B03F0916C03908180916D038095B4
:1036A000892380831AC090916D03E0916B03F091A0
:1036B0006C032D3D35406CF009C090916D03E09195
:1036C0006B03F0916C032C3D35401CF48081982BEA
:1036D00003C08081909598239083CFBFCF910895A8
:1036E00066E970E080E090E00C94E02F65E082E015
:1036F0000E945A0784E194E00E94F90F0E94AF2FC4
:103700004AE050E08AE293E00E94293280919703D8
:10371000882359F061E081E00E945A0760912404F7
:1037200070E08FEF93E00E9497080E94A507D8CF22
:10373000A6E0B0E0EEE9FBE10C944B3B03EF13E0B5
:10374000FF24F394F801319684916091B0066623CA
:1037500039F0880F880F0E94433A811101C081E03F
:10376000F801249130910D0690E09A8389833B8380
:103770001C822D83FE8224E946E0BE016F5F7F4FED
:1037800082E40E94850E0E5F1F4FF3E00F3F1F077C
:10379000C9F62696E5E00C94673BA9E0B0E0E3EDBE
:1037A000FBE10C944D3B8091180486508230D0F49C
:1037B0001091090180910D068093090119821A82E6
:1037C0001B821C821D821E821F82188683E08987CD
:1037D00022E349E0BE016F5F7F4F80E00E94850ECB
:1037E000109309012996E3E00C94693BA2E0B0E054
:1037F000ECEFFBE10C94483B162F042F9EEF9093C7
:10380000C0046093C1048093C50480910901809332
:10381000C30484E68093C4048FEF9FEF9A83898367
:10382000E62EF12C81ECC82E84E0D82EBE016F5F0D
:103830007F4FF60181916F010E94F607F1E0EF1AC8
:10384000F1088BEFE8168FEFF80681F7BE016F5F86
:103850007F4F802F0E94F60766E080EC94E00E9484
:10386000C70D612F86EC94E00E94C70D62E0CE0187
:1038700001960E94C70D2296E8E00C94643BFC017F
:1038800080818E3E09F03AC081818F34B9F5828102
:103890008335A1F58381843489F584818237F9F0F9
:1038A000873719F0823651F50FC06581468150E0A7
:1038B00080E8689FB0011124CF0107960E94B60FDF
:1038C00081E08093910308958681811117C08091D2
:1038D0009103882399F0EE27FF27099408956581C5
:1038E000468150E080E8689FB0011124CF0107961F
:1038F0000E942C0F4FED6FEF83E878CF08954F9221
:103900005F926F927F928F929F92AF92BF92CF926F
:10391000DF92EF92FF920F931F93CF93C82F1092D5
:10392000AC048091AF049091B0048B30910508F005
:10393000B3C0FC01EC5CFF4F0C94C13A1092B70489
:103940001092B604CE3F19F081E090E01AC082E0F8
:1039500090E09093B0048093AF041092C1048FEF75
:103960009FEF9093BF048093BE0496C0C093C104A0
:103970001092B1046C2F8EEB94E00E94180884E042
:1039800090E09093B0048093AF0486C0C093C204CB
:103990006C2F8EEB94E00E94180883E090E0F1CF4A
:1039A000C093C3046C2F8EEB94E00E94180885E04E
:1039B00090E0E7CFC093C4046C2F8EEB94E00E949C
:1039C000180886E090E0DDCFC093C5046C2F8EEB25
:1039D00094E00E9418088091C104811103C088E01E
:1039E00090E0CFCF87E090E0CCCFE091B10481E0D0
:1039F0008E0F8093B104F0E0EA53FB4FC0836C2F2D
:103A00008EEB94E00E9418089091B1048091C1045B
:103A1000981342C0E4CFE091C504F0E0E551FD4FBA
:103A200064918EEB94E00E9418082C2F30E0809176
:103A3000BE049091BF0499272817390731F0CE3F73
:103A400009F485CF8AE090E09CCF89E090E09093E4
:103A5000B0048093AF04E091B104F0E0EA53FB4F6F
:103A60001AC04C2F50E02091BF0430E0421753079A
:103A700009F068CF0A9709F465CF81E08093AC0420
:103A800081E090E09093B0048093AF04E091B104A2
:103A9000F0E0E953FB4FC0832091AC04222399F05E
:103AA0008091C2048093B2048091B4049091B504D3
:103AB000009721F41092B7041092B60401969093E7
:103AC000B5048093B4041092AE04222309F46AC4AE
:103AD000A0DD8091C5048338E1F49091C304809106
:103AE0000A06981316C08091C404843691F480911C
:103AF000C6049091C70420910806309109068217E8
:103B0000930739F0909309068093080688EC94E0B7
:103B1000B6DE8091C504882309F41CC120910D06EE
:103B2000222339F09091C304291719F0933309F037
:103B30003BC48E3309F484C208F085C08D3109F48A
:103B40002EC3A0F4823009F46CC320F4813009F450
:103B500055C12AC4883109F479C18B3109F024C4D4
:103B60008091AF068F5F8093AF061EC4833209F445
:103B7000D1C208F05DC08E3109F425C2813209F04E
:103B800013C46091D6047091D7048091D8049091A9
:103B9000D90428EE33E040E050E00E94A53ACA0183
:103BA000B9010E943C38609388067093890680931F
:103BB0008A0690938B066091DC047091DD04072ED9
:103BC000000C880B990B0E943C384B015C018091E2
:103BD000DA049091DB04BC01990F880B990B0E94C9
:103BE0003C386B017C01A5019401C501B4010E9420
:103BF00055394B015C01A7019601C701B6010E942E
:103C000055399B01AC01C501B4010E94D4360E9414
:103C1000BC392AE037ED43E25CE30E9455396093FA
:103C20001706709318068093190690931A06BCC362
:103C3000843209F496C38A3209F0B6C38091C6046F
:103C400080939406B1C3823A09F4DCC208F052C0F2
:103C50008A3409F45EC108F046C0813409F0A4C377
:103C60008091CA049091CB04909371068093700662
:103C70008091CC049091CD0490937306809372064A
:103C80008091CE049091CF04909375068093740632
:103C90008091D0049091D10490937706809376061A
:103CA0008091D2049091D304909379068093780602
:103CB0008091D4049091D50490937B0680937A06EA
:103CC0008091D6049091D70490937D0680937C06D2
:103CD0008091D8049091D90490937F0680937E06BA
:103CE0008091EF0459C28D3609F491C2893809F4E4
:103CF00056C25AC3853B09F49CC028F5863A09F49C
:103D000086C2883A09F050C36091C6047091C70416
:103D10008091C8049091C9040E94093870932006CC
:103D200060931F068091CA049091CB04A091CC04AB
:103D3000B091CD048093210690932206A093230690
:103D4000B093240631C3813F09F4C2C28D3F09F408
:103D50002FC22AC38091CA04863049F48091C304DB
:103D600080930A0610920906109208061DC385303A
:103D700009F41AC38A3109F417C38091CB048093E4
:103D80000C068091CC04881F8827881F80938403A9
:103D90008091C60480935F068091C30480930D06D2
:103DA0008091A103811121C08091AF06882391F0F9
:103DB000809196038A3020F48F5F8093960319C018
:103DC000109294038091B0068F3798F4880F8093F7
:103DD000B0060FC0809195038A3020F48F5F8093E6
:103DE000950307C01092940304C01092960310929A
:103DF00095031092A1031092AF06D6C280910A04D7
:103E000084FD0CC02091D4043091D50430936D060C
:103E100020936C069091E4049093670686FDC4C2DB
:103E20008091D6049091D704909369068093680698
:103E3000BBC280910A0485FDB7C28091C6049091EF
:103E4000C70490936B0680936A06AEC24091CE047D
:103E50005091CF046091D0047091D10486EF93E02B
:103E6000C4DB4091D2045091D3046091D40470918A
:103E7000D5048AEF93E0B9DB8091E2048093400699
:103E80009091E30490934106882389F08091D604B1
:103E90009091D704A091D804B091D9048093FE03E7
:103EA0009093FF03A0930004B093010418C020E096
:103EB00030E04AE754E460912D0670912E0680911F
:103EC0002F06909130060E9455390E940938609360
:103ED000FE037093FF03809300049093010480918C
:103EE000E0049091E10490933F0680933E06809118
:103EF000DA049091DB049093810680938006809190
:103F0000A1038F5F8093A1031092950310929603F3
:103F10004BC28091C6049091C704A091C804B0918F
:103F2000C9048093250690932606A0932706B09394
:103F3000280680914006882349F08091CA04909118
:103F4000CB04A091CC04B091CD0408C08091170699
:103F500090911806A0911906B0911A0680931B063D
:103F600090931C06A0931D06B0931E068091D60464
:103F70009091D70490933206809331068091D804B3
:103F8000809316068091CE049091CF04A091D00426
:103F9000B091D10480932D0690932E06A0932F0606
:103FA000B09330068091D2049091D304A091D404B0
:103FB000B091D5048093420690934306A0934406A3
:103FC000B0934506F1C121EE3EE245E652E4609130
:103FD000CE047091CF048091D0049091D1040E94BE
:103FE00055390E9409387093E5036093E40321EE8C
:103FF0003EE245E652E46091CA047091CB048091A0
:10400000CC049091CD040E9455390E9409387093D8
:10401000E7036093E60321EE3EE245E652E4609159
:10402000D2047091D3048091D4049091D5040E945D
:1040300055390E9409387093E9036093E803B4C1CD
:104040006091C6047091C7048091C8049091C9041E
:104050000E94093870939E0660939D066091CA0481
:104060007091CB048091CC049091CD040E940938CA
:1040700070939C0660939B068091DA049091DB0418
:1040800090939A06809399068091CE049091CF04E4
:10409000A091D004B091D1048093900690939106A2
:1040A000A0939206B09393068091D2049091D3048A
:1040B000A091D404B091D50480938C0690938D0682
:1040C000A0938E06B0938F068091DC049091DD045E
:1040D00090939806809397068091DE049091DF0478
:1040E00090939606809395066091D6047091D704BC
:1040F0008091D8049091D9040E9409387093830666
:10410000609382068091A1038F5F8093A103109238
:1041100095034AC18091CA049091CB049093710693
:10412000809370068091CC049091CD049093730697
:10413000809372068091CE049091CF04909375067F
:10414000809374068091D0049091D1049093770667
:10415000809376068091D2049091D304909379064F
:10416000809378068091D4049091D50490937B0637
:1041700080937A068091D6049091D70490937D061F
:1041800080937C068091D8049091D90490937F0607
:1041900080937E068091DB048093E10305C18091CA
:1041A000D2049091D3049093630680936206FCC07E
:1041B0008091C6048093A303873008F0F5C082E3A2
:1041C000E7ECF4E0A7EAB3E001900D928A95E1F7FD
:1041D0001092D903E9EDF3E022E32E1BC22FCE0F9C
:1041E00092919F7DD9F3118286E20E9449120E942A
:1041F0006211E82FF0E0E551FC4F64918C2F0E9492
:104200009215D2C08091CD0480930B06CDC09091C1
:10421000CA048091CB04981708F4892F8093E00397
:10422000C3C080911504082E000C990B449720E11F
:104230003EE0829F2001839F500C929F500C1124DE
:10424000052C000C660877082091C6043091C7043D
:104250004091C8045091C9046091CA047091CB0484
:1042600080E4A82E92E4B92EEFE0CE2ED12CE12CE2
:10427000F12C00E010E08091CC049091CD040E94DC
:10428000E23A49015A01C301B201680D791D8A1D44
:104290009B1D20E831E541E050E00E94833A2093E5
:1042A0004C0330934D0340934E0350934F03609360
:1042B00048037093490380934A0390934B0381E032
:1042C000232B242B252B09F480E0809398036CC0CA
:1042D0008091CE049091CF04A091D004B091D104EC
:1042E00080933C0390933D03A0933E03B0933F0320
:1042F0008091D2049091D304A091D404B091D504BC
:104300008093400390934103A0934203B0934303EF
:104310008091D6049091D704A091D804B091D9048B
:104320008093440390934503A0934603B0934703BF
:104330008091DA049091DB049093370380933603E5
:104340008091DE049091DF049093390380933803C9
:104350008091E2049091E30490933B0380933A03AD
:1043600023C08091CA049091CB0490932F03809333
:104370002E038091CC049091CD04909331038093CF
:1043800030038091CE049091CF04909333038093B7
:1043900032038091D0049091D1049093350380939F
:1043A000340302C080E001C081E0CF911F910F91E2
:1043B000FF90EF90DF90CF90BF90AF909F908F9045
:1043C0007F906F905F904F9008950E94DA3288231B
:1043D00041F00E94E93293DA811103C00E945C111E
:1043E000F4CF089584E20E94491296FF08C080919C
:1043F000370690E08C549F4F0E94A31504C0809113
:10440000310690913206880F991F8D966AE570E00B
:104410000E94703A77FF03C0685F7F4FFBCF6770E1
:104420007727FB01ED51FD4F8491089587FD03C06F
:10443000D9DF0E949007609131067091320689E9B8
:1044400098E00E94970885E00C9490074F925F9245
:104450006F927F928F929F92AF92BF92DF92EF9274
:10446000FF920F931F93CF93DF937C01F6FC0CC058
:104470006F2D81E08E0D0E945A078091750381FD9A
:104480001CC00E94710B19C0C5E082EB0E9490070E
:10449000DDE0D15019F00E94AD0AFBCFC33011F01E
:1044A00083EB01C085EC0E9490070E94AF0AC150C7
:1044B000F9F2C33051F786ECE9CFF4FEB1C0C091F8
:1044C0003506D09136060091330610913406C801A6
:1044D00017FF04C088279927801B910B6AEF70E0B3
:1044E0000E94703AE62F472FCE01D7FF04C08827DD
:1044F00099278C1B9D0B6AEF70E00E94703A2E2F5B
:10450000342F261737070CF49B01B9016F5F7F4FDB
:104510007093BD046093BC04072E000C880B990BAC
:104520000E943C384B015C01B801110F880B990BBC
:104530000E943C382B013C0124EE38E34EE552E466
:10454000C501B4010E9455399B01AC01C301B20100
:104550000E94A1370E940938162FBE01DD0F880B7B
:10456000990B0E943C382B013C012DE63BED4EE0BF
:1045700052E4C501B4010E9455399B01AC01C3014D
:10458000B2010E94A13720E030E040E05FE30E94EA
:10459000D4360E940938062FE6FC09C023DF62E00A
:1045A000611B482F85E0800F0E949E0739C09091C3
:1045B000FF05961304C0809100068117E1F08091F9
:1045C0000306909104069093060680930506809159
:1045D0000106909102069093040680930306809151
:1045E000FF059091000690930206809301060093C8
:1045F000FF0510930006C0E0D0E032E0B32EFE01CC
:10460000E150FA4F87816B2D681B868144E28B5FF6
:104610000E949E072297CA3F4FEFD40781F7BECF73
:10462000E7FC08C062E085E00E946B0780E991E04A
:104630000E94F90FF5FEBBC080918403882309F422
:10464000B6C080910E04811180C0609138067091CF
:10465000390680913A0690913B060E943C389B01B6
:10466000AC01609188067091890680918A069091CC
:104670008B060E94473721EE3EE245EE52E40E944F
:1046800055390E9409386A5071092DE2269FC001F0
:10469000279F900D11246AE070E00E94703ACB01D0
:1046A0008D9697FD01969595879569E070E00E943B
:1046B000703AD62F653058F4CFECC81B4C2F8CE0E5
:1046C0000E949E074C2F6D2F81E00E949E078091D3
:1046D000370690E02091140130911501821B930B55
:1046E0000E94A315853B910534F028E631E0A9012D
:1046F000481B590BCA019C01245B310948E4429FC5
:10470000C001439F900D11246AE070E00E94703A4E
:10471000CB01849666E070E00E94703A67FD07C0A6
:104720006D3044F4DFEBD80FC1E0C60F05C0C1E027
:10473000DCE302C0CCE0DEE34D2F64E08C2F0E946E
:104740009E074D2F60E08C2F30C080902D069090FA
:104750002E06A0902F06B09030060E948B12A50165
:1047600094010E94553920E030E040EA50E40E9474
:10477000D4362DEC3CEC4CE850E40E9455390E94B4
:104780000938862F9FEF960F9B3238F469E00E941C
:104790004F3A4FEC491B682F07C06C321CF064E0A5
:1047A0004EE202C060E04FEC86E00E949E07DF917F
:1047B000CF911F910F91FF90EF90DF90BF90AF903E
:1047C0009F908F907F906F905F904F900895ABE097
:1047D000B0E0EDEEF3E20C943E3B6B017C010E94F5
:1047E000B40680910E041091840381112DC0112311
:1047F00089F18091880380FF2DC0609188067091B7
:10480000890680918A0690918B060E9409386B3048
:1048100071058CF460911B0670911C0680911D0639
:1048200090911E060E9409386230710524F480912F
:104830001606823078F0C0928406D0928506E09207
:104840008606F092870606C0111104C08091850388
:104850008111F1CF1093850380915104853018F0B8
:1048600084E0809351048EE096E00E94AF15853C71
:10487000994080F110921B0610921C0610921D06A2
:1048800010921E0662E085E00E945A0760911406AD
:10489000709115068091120690911306681B790B92
:1048A0008DE791E00E94970840919C0350919D03F1
:1048B00060919E0370919F0341155105610571053B
:1048C00031F02AE030E08AE293E00E941C3283E07B
:1048D00094E469C080910B0480FF68C01091840348
:1048E000111123C08091840690918506A0918606BF
:1048F000B0918706892B8A2B8B2BB9F06091A30688
:104900007091A4068091A5069091A6060E94093890
:104910006630710554F081E0809392030E94440850
:104920008091070680935A033CC0809192038823AC
:10493000E9F180915A0390910706891721F080933D
:1049400007061092920382E00E945908092E000C7B
:10495000AA0BBB0BB7FF07C0B095A09590958195AA
:104960009F4FAF4FBF4F8D329140A105B1050CF065
:10497000AAC283E00E945908092E000CAA0BBB0BA7
:10498000B7FF07C0B095A095909581959F4FAF4F09
:10499000BF4F8D329140A105B1050CF094C21111A9
:1049A00092C281E091E00E94F11390C28091510483
:1049B000882321F090910706981740F50CE314E046
:1049C000F801B490C8010196FC01C590D490C114BF
:1049D000D10409F47BC28B2D8F770E9449127C0190
:1049E0000E949508F7FC0AC0E7FC0AC0F80133965C
:1049F0008491882329F00E94900702C0B7FE03C06B
:104A0000C701F60109950C5F1F4FDACF809184032F
:104A1000811150C21D821E821F8218864091F605A8
:104A2000A42EB12CF5E04F9FA0011124FA01E45F00
:104A3000FA4F859194919093550380935403FA0112
:104A4000E25FFA4FF4900E944408C12CD12CE12C73
:104A50001A861B86312C212C1986EF1409F4BEC04E
:104A6000552453945E0C00915403109155030C0D82
:104A70001D1DF80185909490652D81E00E945A07D4
:104A8000C4010E94F90F652D83E10E945A078091AD
:104A90001001E81203C08EE30E949007F8013296DD
:104AA000E491EF77E33609F457C080F4E234B9F1CA
:104AB00020F4EE2309F48DC06FC0EA3509F44AC032
:104AC000E23609F069C0442443942BC0E836D9F09B
:104AD00088F4E63609F060C0F8013396A591B491E8
:104AE0008D919D910D90BC91A02D8D839E83AF8360
:104AF000B88752C0E33709F445C0EA3709F04CC023
:104B000020E1298729C080911E03803419F08EE0AE
:104B100091E002C086E191E00E94F90F5AC06AE07C
:104B2000462EF8013396A591B4916C9170E080E027
:104B300090E00E943C383B014C01642D70E080E025
:104B400090E00E943A389B01AC01C401B3010E947D
:104B5000A13713C080E28987F8013396A591B491FB
:104B60006C91062E000C770B9985691B7109072E35
:104B7000000C880B990B0E943C386D837E838F83D9
:104B800098870AC0F80133966591749144E050E02B
:104B9000CE0105960E942C0F80911001BD81AE813F
:104BA0003F812885E81203C0BA87AB871901F80155
:104BB0003596E491E295EF70F0E0EE0FFF1FEA57B3
:104BC000FA4F859194914B2F5A2F632F722F0E9489
:104BD000510BE6E0CE0ED11CE52C3FCF85E08A9D3F
:104BE000F0018B9DF00D1124E15FFA4F85919491B6
:104BF000009711F0FC01099580918C03882309F43A
:104C000065C110928C0311E010937D0381E00E9436
:104C100059088739910514F081E004C08A369F4F06
:104C200024F48FEF0E94690851C183E00E94590863
:104C3000873991055CF0109310018091F605823060
:104C400019F41092F60542C18F5F0CC08A369F4F4F
:104C500064F4109310018091F605811102C082E086
:104C600001C081508093F60531C1609110016F5FE2
:104C700084E10E945A078091100100915403109121
:104C80005503480196E0899F800C911C112480E017
:104C90000E9459085C0197FF06C0B194A194B10825
:104CA000EE24E39401C0E12CF4013396C590D49036
:104CB000F4013296249129878A859B85A32DB22DF4
:104CC0008D839E83AF83B887122F1F77143640F4ED
:104CD000123680F4123461F01A3509F049C00AC066
:104CE000133751F11A3731F0163609F041C024C09C
:104CF0000AE001C001E08DE2A81681E0B8063CF0B0
:104D0000412C512C40E2642E41E4742E06C0412C0B
:104D1000512C30E8632E3FE3732E602F70E080E06B
:104D200090E00E943C389B01AC01C301B2010E949B
:104D3000A137FF24F39421C0C50164E670E00E940E
:104D4000703AFB01EE0FFF1FEC5FFE4F6081718137
:104D500080E090E00E943A389B01AC0160E070E096
:104D600080E89FE30E94A13701E024E0F22E05C015
:104D700060E070E080E89FE301E0E5E6AE16B10494
:104D80000CF446C0E1109058AB01BC01CE01059671
:104D90000E945519F4013596E491EF70F4E0EF9F0D
:104DA00030011124F301E457FA4F65917491072EF5
:104DB000000C880B990B0E943C384B015C019B0155
:104DC000AC016D817E818F8198850E949A3787FF23
:104DD00004C08D829E82AF82B886F301E257FA4FFB
:104DE00065917491072E000C880B990B0E943C383A
:104DF0004B015C019B01AC016D817E818F819885A7
:104E00000E944A39181624F48D829E82AF82B88699
:104E10008D809E80AF80B8842A853B85432D522D9E
:104E2000C501B4010E949A37882309F44FC0602F4E
:104E300070E080E090E00E943C38A50194010E945F
:104E400055390E9409381336C1F038F41A3589F003
:104E50001236A9F0123401F512C0133799F01A373F
:104E600051F01636C9F4F60180829182A282B38293
:104E700013C080E203C080E101C080E0680FF6014A
:104E800060830AC089829A82AB82BC8244E050E08F
:104E9000B601CE01019606C04F2D50E0B6016A5012
:104EA0007240C6010E94B60FF985F7FF0FC00E943D
:104EB000F2060CC083E093E00E94950883E093E043
:104EC0000E94221403C0109292036BCD2B96E2E154
:104ED0000C945A3B1F920F920FB60F9211242F93EE
:104EE0003F934F935F936F937F938F939F93AF9372
:104EF000BF93EF93FF9381E08093220310927C0392
:104F000080917B038F5F80937B030E94AF2F609320
:104F10007703709378038093790390937A03809159
:104F2000A003882321F00E94A5071092A003FF91FF
:104F3000EF91BF91AF919F918F917F916F915F9111
:104F40004F913F912F910F900FBE0F901F9018958A
:104F5000CF92DF92EF92FF920E94BB2F6B017C01F8
:104F600083E00E94DB30019749F4C0926E03D09237
:104F70006F03E0927003F09271031FC080916E0383
:104F800090916F03A0917003B09171030097A105F8
:104F9000B10599F0C81AD90AEA0AFB0AD09273033C
:104FA000C092720310926E0310926F0310927003FE
:104FB0001092710381E080937403FF90EF90DF9073
:104FC000CF9008951F920F920FB60F9211242F9336
:104FD0003F934F935F936F937F938F939F93AF9381
:104FE000BF93EF93FF93B4DFFF91EF91BF91AF9128
:104FF0009F918F917F916F915F914F913F912F91F1
:105000000F900FBE0F901F901895CF930FB6F89486
:10501000A895809160008861809360001092600084
:105020000FBE60E071EE80E090E00E9498324EE4A6
:1050300050E060E072E08AE094E00E942C0F8091E2
:105040000A0481FD03C08AEB98E002C087EA98E079
:1050500090936F0680936E06809124048F3421F420
:10506000809125048A3119F081E08093970384B5FB
:105070008C7F84BD80910B0484FF02C081E001C05D
:1050800083E00E94883180917A008B7F80937A0040
:1050900080917A00866080937A00809169008C7F8D
:1050A000826080936900E89A80910F04813059F4FE
:1050B00062E083E00E94723080916900837F8460A7
:1050C00080936900E99A86E293E0909325038093A8
:1050D00024036DEF70E00E942E335E9A0E94A507B4
:1050E000789480912604893341F480912704833396
:1050F00021F480912804873389F089E38093260482
:1051000083E38093270487E38093280443E050E0FF
:105110006CE172E086E294E00E94B60F8091570441
:10512000882351F01092570441E050E06DE472E0A2
:1051300087E594E00E94B60F80914F04882331F1F7
:10514000E0915004EE2311F1F0E0E850FF4FC491DC
:105150002C2F30E0F901E55DF64F9491F901E95EFD
:10516000F64F249120936D03E92FF0E0EE0FFF1F1F
:10517000E75BF64F8591949190936C0380936B035A
:1051800080E00E94211B61E08C2FACD70E94380781
:105190000E94761B0E94BC15CF910895E0910301F7
:1051A000EF5FE0930301E770F0E0EE0FFF1FE857B9
:1051B000FB4F9183808388E060E070E08150E82FAE
:1051C000F0E0EE0FFF1FE857FB4F20813181620FA7
:1051D000731F8111F3CF80E090E00E943A3820E005
:1051E00030E040E05EE30C94553997FD05C08F3FF9
:1051F000910509F01CF4089580E008958FEF08955B
:10520000CF92DF92EF92FF92CF93DF9380910A04C7
:1052100084FD05C080915F03882309F4A0C0C0917C
:105220000201CF5FC093020180E10E948B31C77001
:10523000EC2FF0E0EE0FFF1FE858FB4F91838083C7
:1052400088E0C0E0D0E08150E82FF0E0EE0FFF1FD3
:10525000E858FB4F20813181C20FD31F8111F3CF5A
:10526000209163033091640347E0429FC001439F54
:10527000900D11248C0F9D1F23E0969587952A95FC
:10528000E1F7909364038093630380910A0484FFA1
:1052900066C029E53EEE49E050E460912C0470912F
:1052A0002D0480912E0490912F040E9455396B019A
:1052B0007C01BE0180E090E00E943A389B01AC0185
:1052C000C701B6010E9455390E940E3840916C0604
:1052D00050916D064115510529F470936D06609348
:1052E0006C0612C09A01220F331F240F351F2E5F48
:1052F0003F4FA901460F571F56954795569547951D
:1053000050936D0640936C0681E080937D03E0919D
:1053100013048E2F61E20E94433A482F80916C065D
:1053200090916D06C29664E670E00E945C3AF0E0EF
:105330009B012E1B3F0BAFEFB0E00E94C73A5AE231
:10534000459F900111242E1B3F0B032E000C440B94
:10535000550B0E94A53AC90148DF809367068091EA
:105360000A0485FF04C080919903811105C08091D2
:105370006003882309F49CC0C0910101CF5FC093F2
:1053800001018EE0C8D7C770EC2FF0E0EE0FFF1FD1
:10539000E859FB4F9183808388E0C0E0D0E08150E2
:1053A000E82FF0E0EE0FFF1FE859FB4F208131811D
:1053B000C20FD31F8111F3CF209165033091660393
:1053C00047E0429FC001439F900D11248C0F9D1F09
:1053D000A3E096958795AA95E1F79093660380934D
:1053E000650380910A0485FF63C029EA3CEC48E02C
:1053F00050E46091300470913104809132049091B6
:1054000033040E9455396B017C01BE0180E090E0BD
:105410000E943A389B01AC01C701B6010E94553980
:105420000E940E3840916A0650916B064115510555
:1054300029F470936B0660936A0612C09A01220FDA
:10544000331F240F351F2E5F3F4FA901460F571FF3
:10545000569547955695479550936B0640936A0627
:10546000E0914C048E2F61E20E94433A482F8091D4
:105470006A0690916B06C29664E670E00E945C3A00
:10548000F0E09B012E1B3F0BAFEFB0E00E94C73A4C
:105490005AE2459F900111242E1B3F0B032E000C56
:1054A000440B550B0E94A53AC9019FDE8093660606
:1054B00080910A0486FD05C080916103882309F468
:1054C00080C080915D03882349F020E137E240E00D
:1054D00050E061E08FE097D6CB0102C08FE01BD790
:1054E000E0910001EF5FE0930001E770F0E0EE0F64
:1054F000FF1FE85AFB4F9183808388E0C0E0D0E033
:105500008150E82FF0E0EE0FFF1FE85AFB4F20819B
:105510003181C20FD31F8111F3CF209167033091E6
:10552000680347E0429FC001439F900D11248C0FF8
:105530009D1F33E0969587953A95E1F79093680320
:105540008093670380910A0486FF3BC02DE032E31D
:1055500048EC5CE36091340470913504809136042A
:10556000909137040E9455396B017C01BE0180E0A7
:1055700090E00E943A389B01AC01C701B6010E943D
:1055800055390E940E3840916806509169064115C0
:10559000510529F4709369066093680612C09A0158
:1055A000220F331F240F351F2E5F3F4FA901460FD7
:1055B000571F5695479556954795509369064093C2
:1055C0006806809118048695813041F038F1823068
:1055D00041F0833039F58091E00322C081E19BD610
:1055E00008C020E23EE440E050E061E081E10BD6FB
:1055F000CB01D4DD209138043091390440913A0434
:1056000050913B040E9455390E940E387093DF037D
:105610006093DE0381E080937D0337C08091E103D6
:1056200090E004C080917E0690917F06B7DD0E94D5
:105630000E387093DF036093DE038091620388234A
:1056400021F180915E03882341F020E137E240E0C0
:1056500050E061E081E1D7D503C081E15CD6BC01B7
:105660008091690390916A0347E0489F9001499FA8
:10567000300D1124620F731F83E0769567958A952C
:10568000E1F770936A0360936903DF91CF91FF9014
:10569000EF90DF90CF90089581E00C94211BEAE217
:1056A000F3E0138212828FE191E09183808386E29E
:1056B00093E036D7EDECF8E088E992E0968B858BA5
:1056C0008CE992E0948F838F80EB92E092A381A388
:1056D00084EB92E090A787A388EC92E096A785A739
:1056E0008CEC92E094AB83AB0895A4E0B0E0EBE7E0
:1056F000FBE20C94403BA895789431D46B017C017B
:1057000028EE33E040E050E00E94833A30931506E3
:10571000209314062CEDC21625E0D206E104F10414
:1057200020F080919703882319F00E94761BC9C34B
:1057300080910D06882399F08091940381110FC008
:105740000E94981B0E94701B0E94981B0E94701B55
:105750000E94981B0E94701B81E0809394030EEBC3
:1057600014E030E4632E7724739480917F038111D9
:1057700008C080918003811104C08091890388232F
:1057800061F00E94E52180917F03809380038091E6
:105790007D03882309F4CCC175C0F801262D119230
:1057A0002A95E9F704D7DBD34B015C0134E6830E7D
:1057B000911CA11CB11C2AEF422E55245A94CFD320
:1057C00086169706A806B906A8F024EC39E040E052
:1057D00050E060E080E017D56F3F710581059105CD
:1057E00009F02CF4662319F0651508F4562E4A9436
:1057F0004110E5CF4FEF541203C05090080102C092
:10580000509208015AE0551590F482E1851590F404
:105810009CE1951590F4E7E2E51590F4FBE3F515AE
:1058200090F425E9251590F421E080E411C028E1E9
:1058300082E00EC02CE084E00BC028E086E008C0C7
:1058400026E088E005C024E080E102C022E080E29A
:105850008093B00630E0A0ECB2E10E94C73A4B0161
:105860005C0160939C0370939D0380939E039093CF
:105870009F0386E293E04BD6C501B40159D67092DE
:10588000800373CF0091070680910F04833008F4E2
:1058900044C1833029F4A0907203B090730311C007
:1058A0009BEF980F943048F4E82FF0E0EE0FFF1FC5
:1058B000E259F94FA080B18004C0A0907E06B0905C
:1058C0007F069501205233402939384008F025C120
:1058D0002091060130910701A216B30620F4B09280
:1058E0000701A092060120910401309105012A15BB
:1058F0003B0520F4B0920501A0920401843049F5E3
:1059000080915F069AEF980F923008F4D7C090917B
:105910004E06981789F080934E0660E070E08AE4A6
:1059200096E00E94651290914E06809111019813A5
:1059300003C081E0809381038AE496E00E94AF1562
:10594000813D974008F4BAC080915F0680931101B1
:10595000B5C080911404811121C0209104013091BF
:1059600005018091060190910701609151048A150B
:105970009B0568F4A81AB90AF901E81BF90BCF01D5
:1059800070E00E945C3AC5010E945C3A01C060E090
:10599000061709F493C06093070690C080910A042B
:1059A00082FF4EC08091F4059091F505A816B906C6
:1059B00009F456C09501281B390B293C310508F420
:1059C0004FC08091F2059091F305A816B90631F009
:1059D000A501481B590B483C5105E0F480904A064C
:1059E00090904B06A0904C06B0904D0658EE850E58
:1059F00053E0951EA11CB11CB2D2681579058A0529
:105A00009B0518F481E0809381031092F3051092B6
:105A1000F20526C0A4D260934A0670934B06809389
:105A20004C0690934D068091F4059091F505909366
:105A3000F3058093F205B092F505A092F40510C02D
:105A40002091040130910501809106019091070198
:105A5000280F391F3695279581E02A153B0508F058
:105A600080E090910A0490FF10C0882321F081E02B
:105A70008093820323C080918203882319F081E000
:105A8000809381031092820319C08823B9F080901B
:105A90004A0690904B06A0904C06B0904D065FD2FF
:105AA00086169706A806B90648F481E0809381031C
:105AB00064EF71E08AE496E00E94651280918103B0
:105AC000882369F010928103809107068F5F80938D
:105AD000070690915104981710F410920706109140
